{
	"contracts/RebalancingVault.sol": {
		"Vault": {
			"abi": [
				{
					"inputs": [
						{
							"internalType": "uint256",
							"name": "_noOfTokens",
							"type": "uint256"
						},
						{
							"internalType": "contract IERC20[]",
							"name": "_toekenAddresses",
							"type": "address[]"
						},
						{
							"internalType": "uint256[]",
							"name": "_ratios",
							"type": "uint256[]"
						}
					],
					"stateMutability": "nonpayable",
					"type": "constructor"
				},
				{
					"inputs": [],
					"name": "allWETHreceived",
					"outputs": [
						{
							"internalType": "uint256",
							"name": "",
							"type": "uint256"
						}
					],
					"stateMutability": "view",
					"type": "function"
				},
				{
					"inputs": [],
					"name": "depositWETH",
					"outputs": [],
					"stateMutability": "payable",
					"type": "function"
				},
				{
					"inputs": [],
					"name": "lastWETHreceived",
					"outputs": [
						{
							"internalType": "uint256",
							"name": "",
							"type": "uint256"
						}
					],
					"stateMutability": "view",
					"type": "function"
				},
				{
					"inputs": [],
					"name": "timesWETHreceived",
					"outputs": [
						{
							"internalType": "uint256",
							"name": "",
							"type": "uint256"
						}
					],
					"stateMutability": "view",
					"type": "function"
				},
				{
					"inputs": [
						{
							"internalType": "contract IERC20",
							"name": "",
							"type": "address"
						}
					],
					"name": "tokenAmmounts",
					"outputs": [
						{
							"internalType": "uint256",
							"name": "",
							"type": "uint256"
						}
					],
					"stateMutability": "view",
					"type": "function"
				},
				{
					"inputs": [
						{
							"internalType": "contract IERC20",
							"name": "",
							"type": "address"
						}
					],
					"name": "tokenRations",
					"outputs": [
						{
							"internalType": "uint256",
							"name": "",
							"type": "uint256"
						}
					],
					"stateMutability": "view",
					"type": "function"
				},
				{
					"inputs": [
						{
							"internalType": "contract IERC20",
							"name": "_tokenAddress",
							"type": "address"
						},
						{
							"internalType": "uint256",
							"name": "_withdrawAmount",
							"type": "uint256"
						}
					],
					"name": "withdrawToken",
					"outputs": [],
					"stateMutability": "nonpayable",
					"type": "function"
				},
				{
					"inputs": [
						{
							"internalType": "contract IERC20",
							"name": "_tokenAddress",
							"type": "address"
						},
						{
							"internalType": "uint256",
							"name": "_withdrawAmount",
							"type": "uint256"
						},
						{
							"internalType": "address",
							"name": "_receiver",
							"type": "address"
						}
					],
					"name": "withdrawTokenTo",
					"outputs": [],
					"stateMutability": "nonpayable",
					"type": "function"
				}
			],
			"devdoc": {
				"kind": "dev",
				"methods": {},
				"version": 1
			},
			"evm": {
				"assembly": "    /* \"contracts/RebalancingVault.sol\":1791:6086  contract Vault {... */\n  mstore(0x40, 0x80)\n    /* \"contracts/RebalancingVault.sol\":2094:2104  msg.sender */\n  caller\n    /* \"contracts/RebalancingVault.sol\":2054:2105  address payable contractOwner = payable(msg.sender) */\n  0x02\n  exp(0x0100, 0x00)\n  dup2\n  sload\n  dup2\n  0xffffffffffffffffffffffffffffffffffffffff\n  mul\n  not\n  and\n  swap1\n  dup4\n  0xffffffffffffffffffffffffffffffffffffffff\n  and\n  mul\n  or\n  swap1\n  sstore\n  pop\n    /* \"contracts/RebalancingVault.sol\":2569:2958  constructor(uint _noOfTokens, IERC20[] memory _toekenAddresses, uint[] memory _ratios) {... */\n  callvalue\n  dup1\n  iszero\n  tag_1\n  jumpi\n  0x00\n  dup1\n  revert\ntag_1:\n  pop\n  mload(0x40)\n  sub(codesize, bytecodeSize)\n  dup1\n  bytecodeSize\n  dup4\n  codecopy\n  dup2\n  dup2\n  add\n  0x40\n  mstore\n  dup2\n  add\n  swap1\n  tag_2\n  swap2\n  swap1\n  tag_3\n  jump\t// in\ntag_2:\n    /* \"contracts/RebalancingVault.sol\":2685:2686  8 */\n  0x08\n    /* \"contracts/RebalancingVault.sol\":2670:2681  _noOfTokens */\n  dup4\n    /* \"contracts/RebalancingVault.sol\":2670:2686  _noOfTokens <= 8 */\n  gt\n  iszero\n    /* \"contracts/RebalancingVault.sol\":2670:2728  _noOfTokens <= 8 && _noOfTokens == _toekenAddresses.length */\n  dup1\n  iszero\n  tag_6\n  jumpi\n  pop\n    /* \"contracts/RebalancingVault.sol\":2705:2721  _toekenAddresses */\n  dup2\n    /* \"contracts/RebalancingVault.sol\":2705:2728  _toekenAddresses.length */\n  mload\n    /* \"contracts/RebalancingVault.sol\":2690:2701  _noOfTokens */\n  dup4\n    /* \"contracts/RebalancingVault.sol\":2690:2728  _noOfTokens == _toekenAddresses.length */\n  eq\n    /* \"contracts/RebalancingVault.sol\":2670:2728  _noOfTokens <= 8 && _noOfTokens == _toekenAddresses.length */\ntag_6:\n    /* \"contracts/RebalancingVault.sol\":2670:2761  _noOfTokens <= 8 && _noOfTokens == _toekenAddresses.length && _noOfTokens == _ratios.length */\n  dup1\n  iszero\n  tag_7\n  jumpi\n  pop\n    /* \"contracts/RebalancingVault.sol\":2747:2754  _ratios */\n  dup1\n    /* \"contracts/RebalancingVault.sol\":2747:2761  _ratios.length */\n  mload\n    /* \"contracts/RebalancingVault.sol\":2732:2743  _noOfTokens */\n  dup4\n    /* \"contracts/RebalancingVault.sol\":2732:2761  _noOfTokens == _ratios.length */\n  eq\n    /* \"contracts/RebalancingVault.sol\":2670:2761  _noOfTokens <= 8 && _noOfTokens == _toekenAddresses.length && _noOfTokens == _ratios.length */\ntag_7:\n    /* \"contracts/RebalancingVault.sol\":2666:2952  if (_noOfTokens <= 8 && _noOfTokens == _toekenAddresses.length && _noOfTokens == _ratios.length){... */\n  iszero\n  tag_8\n  jumpi\n    /* \"contracts/RebalancingVault.sol\":2781:2787  uint i */\n  0x00\n    /* \"contracts/RebalancingVault.sol\":2776:2946  for (uint i = 0; i < _noOfTokens; i++) {... */\ntag_9:\n    /* \"contracts/RebalancingVault.sol\":2797:2808  _noOfTokens */\n  dup4\n    /* \"contracts/RebalancingVault.sol\":2793:2794  i */\n  dup2\n    /* \"contracts/RebalancingVault.sol\":2793:2808  i < _noOfTokens */\n  lt\n    /* \"contracts/RebalancingVault.sol\":2776:2946  for (uint i = 0; i < _noOfTokens; i++) {... */\n  iszero\n  tag_10\n  jumpi\n    /* \"contracts/RebalancingVault.sol\":2869:2876  _ratios */\n  dup2\n    /* \"contracts/RebalancingVault.sol\":2877:2878  i */\n  dup2\n    /* \"contracts/RebalancingVault.sol\":2869:2879  _ratios[i] */\n  dup2\n  mload\n  dup2\n  lt\n  tag_12\n  jumpi\n  tag_13\n  tag_14\n  jump\t// in\ntag_13:\ntag_12:\n  0x20\n  mul\n  0x20\n  add\n  add\n  mload\n    /* \"contracts/RebalancingVault.sol\":2833:2845  tokenRations */\n  0x00\n    /* \"contracts/RebalancingVault.sol\":2833:2866  tokenRations[_toekenAddresses[i]] */\n  dup1\n    /* \"contracts/RebalancingVault.sol\":2846:2862  _toekenAddresses */\n  dup6\n    /* \"contracts/RebalancingVault.sol\":2863:2864  i */\n  dup5\n    /* \"contracts/RebalancingVault.sol\":2846:2865  _toekenAddresses[i] */\n  dup2\n  mload\n  dup2\n  lt\n  tag_15\n  jumpi\n  tag_16\n  tag_14\n  jump\t// in\ntag_16:\ntag_15:\n  0x20\n  mul\n  0x20\n  add\n  add\n  mload\n    /* \"contracts/RebalancingVault.sol\":2833:2866  tokenRations[_toekenAddresses[i]] */\n  0xffffffffffffffffffffffffffffffffffffffff\n  and\n  0xffffffffffffffffffffffffffffffffffffffff\n  and\n  dup2\n  mstore\n  0x20\n  add\n  swap1\n  dup2\n  mstore\n  0x20\n  add\n  0x00\n  keccak256\n    /* \"contracts/RebalancingVault.sol\":2833:2879  tokenRations[_toekenAddresses[i]] = _ratios[i] */\n  dup2\n  swap1\n  sstore\n  pop\n    /* \"contracts/RebalancingVault.sol\":2934:2935  0 */\n  0x00\n    /* \"contracts/RebalancingVault.sol\":2897:2910  tokenAmmounts */\n  0x01\n    /* \"contracts/RebalancingVault.sol\":2897:2931  tokenAmmounts[_toekenAddresses[i]] */\n  0x00\n    /* \"contracts/RebalancingVault.sol\":2911:2927  _toekenAddresses */\n  dup6\n    /* \"contracts/RebalancingVault.sol\":2928:2929  i */\n  dup5\n    /* \"contracts/RebalancingVault.sol\":2911:2930  _toekenAddresses[i] */\n  dup2\n  mload\n  dup2\n  lt\n  tag_17\n  jumpi\n  tag_18\n  tag_14\n  jump\t// in\ntag_18:\ntag_17:\n  0x20\n  mul\n  0x20\n  add\n  add\n  mload\n    /* \"contracts/RebalancingVault.sol\":2897:2931  tokenAmmounts[_toekenAddresses[i]] */\n  0xffffffffffffffffffffffffffffffffffffffff\n  and\n  0xffffffffffffffffffffffffffffffffffffffff\n  and\n  dup2\n  mstore\n  0x20\n  add\n  swap1\n  dup2\n  mstore\n  0x20\n  add\n  0x00\n  keccak256\n    /* \"contracts/RebalancingVault.sol\":2897:2935  tokenAmmounts[_toekenAddresses[i]] = 0 */\n  dup2\n  swap1\n  sstore\n  pop\n    /* \"contracts/RebalancingVault.sol\":2810:2813  i++ */\n  dup1\n  dup1\n  tag_19\n  swap1\n  tag_20\n  jump\t// in\ntag_19:\n  swap2\n  pop\n  pop\n    /* \"contracts/RebalancingVault.sol\":2776:2946  for (uint i = 0; i < _noOfTokens; i++) {... */\n  jump(tag_9)\ntag_10:\n  pop\n    /* \"contracts/RebalancingVault.sol\":2666:2952  if (_noOfTokens <= 8 && _noOfTokens == _toekenAddresses.length && _noOfTokens == _ratios.length){... */\ntag_8:\n    /* \"contracts/RebalancingVault.sol\":2569:2958  constructor(uint _noOfTokens, IERC20[] memory _toekenAddresses, uint[] memory _ratios) {... */\n  pop\n  pop\n  pop\n    /* \"contracts/RebalancingVault.sol\":1791:6086  contract Vault {... */\n  jump(tag_21)\n    /* \"#utility.yul\":7:82   */\ntag_22:\n    /* \"#utility.yul\":40:46   */\n  0x00\n    /* \"#utility.yul\":73:75   */\n  0x40\n    /* \"#utility.yul\":67:76   */\n  mload\n    /* \"#utility.yul\":57:76   */\n  swap1\n  pop\n    /* \"#utility.yul\":7:82   */\n  swap1\n  jump\t// out\n    /* \"#utility.yul\":88:205   */\ntag_23:\n    /* \"#utility.yul\":197:198   */\n  0x00\n    /* \"#utility.yul\":194:195   */\n  dup1\n    /* \"#utility.yul\":187:199   */\n  revert\n    /* \"#utility.yul\":211:328   */\ntag_24:\n    /* \"#utility.yul\":320:321   */\n  0x00\n    /* \"#utility.yul\":317:318   */\n  dup1\n    /* \"#utility.yul\":310:322   */\n  revert\n    /* \"#utility.yul\":334:411   */\ntag_25:\n    /* \"#utility.yul\":371:378   */\n  0x00\n    /* \"#utility.yul\":400:405   */\n  dup2\n    /* \"#utility.yul\":389:405   */\n  swap1\n  pop\n    /* \"#utility.yul\":334:411   */\n  swap2\n  swap1\n  pop\n  jump\t// out\n    /* \"#utility.yul\":417:539   */\ntag_26:\n    /* \"#utility.yul\":490:514   */\n  tag_52\n    /* \"#utility.yul\":508:513   */\n  dup2\n    /* \"#utility.yul\":490:514   */\n  tag_25\n  jump\t// in\ntag_52:\n    /* \"#utility.yul\":483:488   */\n  dup2\n    /* \"#utility.yul\":480:515   */\n  eq\n    /* \"#utility.yul\":470:533   */\n  tag_53\n  jumpi\n    /* \"#utility.yul\":529:530   */\n  0x00\n    /* \"#utility.yul\":526:527   */\n  dup1\n    /* \"#utility.yul\":519:531   */\n  revert\n    /* \"#utility.yul\":470:533   */\ntag_53:\n    /* \"#utility.yul\":417:539   */\n  pop\n  jump\t// out\n    /* \"#utility.yul\":545:688   */\ntag_27:\n    /* \"#utility.yul\":602:607   */\n  0x00\n    /* \"#utility.yul\":633:639   */\n  dup2\n    /* \"#utility.yul\":627:640   */\n  mload\n    /* \"#utility.yul\":618:640   */\n  swap1\n  pop\n    /* \"#utility.yul\":649:682   */\n  tag_55\n    /* \"#utility.yul\":676:681   */\n  dup2\n    /* \"#utility.yul\":649:682   */\n  tag_26\n  jump\t// in\ntag_55:\n    /* \"#utility.yul\":545:688   */\n  swap3\n  swap2\n  pop\n  pop\n  jump\t// out\n    /* \"#utility.yul\":694:811   */\ntag_28:\n    /* \"#utility.yul\":803:804   */\n  0x00\n    /* \"#utility.yul\":800:801   */\n  dup1\n    /* \"#utility.yul\":793:805   */\n  revert\n    /* \"#utility.yul\":817:919   */\ntag_29:\n    /* \"#utility.yul\":858:864   */\n  0x00\n    /* \"#utility.yul\":909:911   */\n  0x1f\n    /* \"#utility.yul\":905:912   */\n  not\n    /* \"#utility.yul\":900:902   */\n  0x1f\n    /* \"#utility.yul\":893:898   */\n  dup4\n    /* \"#utility.yul\":889:903   */\n  add\n    /* \"#utility.yul\":885:913   */\n  and\n    /* \"#utility.yul\":875:913   */\n  swap1\n  pop\n    /* \"#utility.yul\":817:919   */\n  swap2\n  swap1\n  pop\n  jump\t// out\n    /* \"#utility.yul\":925:1105   */\ntag_30:\n    /* \"#utility.yul\":973:1050   */\n  0x4e487b7100000000000000000000000000000000000000000000000000000000\n    /* \"#utility.yul\":970:971   */\n  0x00\n    /* \"#utility.yul\":963:1051   */\n  mstore\n    /* \"#utility.yul\":1070:1074   */\n  0x41\n    /* \"#utility.yul\":1067:1068   */\n  0x04\n    /* \"#utility.yul\":1060:1075   */\n  mstore\n    /* \"#utility.yul\":1094:1098   */\n  0x24\n    /* \"#utility.yul\":1091:1092   */\n  0x00\n    /* \"#utility.yul\":1084:1099   */\n  revert\n    /* \"#utility.yul\":1111:1392   */\ntag_31:\n    /* \"#utility.yul\":1194:1221   */\n  tag_60\n    /* \"#utility.yul\":1216:1220   */\n  dup3\n    /* \"#utility.yul\":1194:1221   */\n  tag_29\n  jump\t// in\ntag_60:\n    /* \"#utility.yul\":1186:1192   */\n  dup2\n    /* \"#utility.yul\":1182:1222   */\n  add\n    /* \"#utility.yul\":1324:1330   */\n  dup2\n    /* \"#utility.yul\":1312:1322   */\n  dup2\n    /* \"#utility.yul\":1309:1331   */\n  lt\n    /* \"#utility.yul\":1288:1306   */\n  0xffffffffffffffff\n    /* \"#utility.yul\":1276:1286   */\n  dup3\n    /* \"#utility.yul\":1273:1307   */\n  gt\n    /* \"#utility.yul\":1270:1332   */\n  or\n    /* \"#utility.yul\":1267:1355   */\n  iszero\n  tag_61\n  jumpi\n    /* \"#utility.yul\":1335:1353   */\n  tag_62\n  tag_30\n  jump\t// in\ntag_62:\n    /* \"#utility.yul\":1267:1355   */\ntag_61:\n    /* \"#utility.yul\":1375:1385   */\n  dup1\n    /* \"#utility.yul\":1371:1373   */\n  0x40\n    /* \"#utility.yul\":1364:1386   */\n  mstore\n    /* \"#utility.yul\":1154:1392   */\n  pop\n    /* \"#utility.yul\":1111:1392   */\n  pop\n  pop\n  jump\t// out\n    /* \"#utility.yul\":1398:1527   */\ntag_32:\n    /* \"#utility.yul\":1432:1438   */\n  0x00\n    /* \"#utility.yul\":1459:1479   */\n  tag_64\n  tag_22\n  jump\t// in\ntag_64:\n    /* \"#utility.yul\":1449:1479   */\n  swap1\n  pop\n    /* \"#utility.yul\":1488:1521   */\n  tag_65\n    /* \"#utility.yul\":1516:1520   */\n  dup3\n    /* \"#utility.yul\":1508:1514   */\n  dup3\n    /* \"#utility.yul\":1488:1521   */\n  tag_31\n  jump\t// in\ntag_65:\n    /* \"#utility.yul\":1398:1527   */\n  swap2\n  swap1\n  pop\n  jump\t// out\n    /* \"#utility.yul\":1533:1858   */\ntag_33:\n    /* \"#utility.yul\":1624:1628   */\n  0x00\n    /* \"#utility.yul\":1714:1732   */\n  0xffffffffffffffff\n    /* \"#utility.yul\":1706:1712   */\n  dup3\n    /* \"#utility.yul\":1703:1733   */\n  gt\n    /* \"#utility.yul\":1700:1756   */\n  iszero\n  tag_67\n  jumpi\n    /* \"#utility.yul\":1736:1754   */\n  tag_68\n  tag_30\n  jump\t// in\ntag_68:\n    /* \"#utility.yul\":1700:1756   */\ntag_67:\n    /* \"#utility.yul\":1786:1790   */\n  0x20\n    /* \"#utility.yul\":1778:1784   */\n  dup3\n    /* \"#utility.yul\":1774:1791   */\n  mul\n    /* \"#utility.yul\":1766:1791   */\n  swap1\n  pop\n    /* \"#utility.yul\":1846:1850   */\n  0x20\n    /* \"#utility.yul\":1840:1844   */\n  dup2\n    /* \"#utility.yul\":1836:1851   */\n  add\n    /* \"#utility.yul\":1828:1851   */\n  swap1\n  pop\n    /* \"#utility.yul\":1533:1858   */\n  swap2\n  swap1\n  pop\n  jump\t// out\n    /* \"#utility.yul\":1864:1981   */\ntag_34:\n    /* \"#utility.yul\":1973:1974   */\n  0x00\n    /* \"#utility.yul\":1970:1971   */\n  dup1\n    /* \"#utility.yul\":1963:1975   */\n  revert\n    /* \"#utility.yul\":1987:2113   */\ntag_35:\n    /* \"#utility.yul\":2024:2031   */\n  0x00\n    /* \"#utility.yul\":2064:2106   */\n  0xffffffffffffffffffffffffffffffffffffffff\n    /* \"#utility.yul\":2057:2062   */\n  dup3\n    /* \"#utility.yul\":2053:2107   */\n  and\n    /* \"#utility.yul\":2042:2107   */\n  swap1\n  pop\n    /* \"#utility.yul\":1987:2113   */\n  swap2\n  swap1\n  pop\n  jump\t// out\n    /* \"#utility.yul\":2119:2215   */\ntag_36:\n    /* \"#utility.yul\":2156:2163   */\n  0x00\n    /* \"#utility.yul\":2185:2209   */\n  tag_72\n    /* \"#utility.yul\":2203:2208   */\n  dup3\n    /* \"#utility.yul\":2185:2209   */\n  tag_35\n  jump\t// in\ntag_72:\n    /* \"#utility.yul\":2174:2209   */\n  swap1\n  pop\n    /* \"#utility.yul\":2119:2215   */\n  swap2\n  swap1\n  pop\n  jump\t// out\n    /* \"#utility.yul\":2221:2331   */\ntag_37:\n    /* \"#utility.yul\":2272:2279   */\n  0x00\n    /* \"#utility.yul\":2301:2325   */\n  tag_74\n    /* \"#utility.yul\":2319:2324   */\n  dup3\n    /* \"#utility.yul\":2301:2325   */\n  tag_36\n  jump\t// in\ntag_74:\n    /* \"#utility.yul\":2290:2325   */\n  swap1\n  pop\n    /* \"#utility.yul\":2221:2331   */\n  swap2\n  swap1\n  pop\n  jump\t// out\n    /* \"#utility.yul\":2337:2487   */\ntag_38:\n    /* \"#utility.yul\":2424:2462   */\n  tag_76\n    /* \"#utility.yul\":2456:2461   */\n  dup2\n    /* \"#utility.yul\":2424:2462   */\n  tag_37\n  jump\t// in\ntag_76:\n    /* \"#utility.yul\":2417:2422   */\n  dup2\n    /* \"#utility.yul\":2414:2463   */\n  eq\n    /* \"#utility.yul\":2404:2481   */\n  tag_77\n  jumpi\n    /* \"#utility.yul\":2477:2478   */\n  0x00\n    /* \"#utility.yul\":2474:2475   */\n  dup1\n    /* \"#utility.yul\":2467:2479   */\n  revert\n    /* \"#utility.yul\":2404:2481   */\ntag_77:\n    /* \"#utility.yul\":2337:2487   */\n  pop\n  jump\t// out\n    /* \"#utility.yul\":2493:2664   */\ntag_39:\n    /* \"#utility.yul\":2564:2569   */\n  0x00\n    /* \"#utility.yul\":2595:2601   */\n  dup2\n    /* \"#utility.yul\":2589:2602   */\n  mload\n    /* \"#utility.yul\":2580:2602   */\n  swap1\n  pop\n    /* \"#utility.yul\":2611:2658   */\n  tag_79\n    /* \"#utility.yul\":2652:2657   */\n  dup2\n    /* \"#utility.yul\":2611:2658   */\n  tag_38\n  jump\t// in\ntag_79:\n    /* \"#utility.yul\":2493:2664   */\n  swap3\n  swap2\n  pop\n  pop\n  jump\t// out\n    /* \"#utility.yul\":2695:3469   */\ntag_40:\n    /* \"#utility.yul\":2816:2821   */\n  0x00\n    /* \"#utility.yul\":2841:2936   */\n  tag_81\n    /* \"#utility.yul\":2857:2935   */\n  tag_82\n    /* \"#utility.yul\":2928:2934   */\n  dup5\n    /* \"#utility.yul\":2857:2935   */\n  tag_33\n  jump\t// in\ntag_82:\n    /* \"#utility.yul\":2841:2936   */\n  tag_32\n  jump\t// in\ntag_81:\n    /* \"#utility.yul\":2832:2936   */\n  swap1\n  pop\n    /* \"#utility.yul\":2956:2961   */\n  dup1\n    /* \"#utility.yul\":2985:2991   */\n  dup4\n    /* \"#utility.yul\":2978:2983   */\n  dup3\n    /* \"#utility.yul\":2971:2992   */\n  mstore\n    /* \"#utility.yul\":3019:3023   */\n  0x20\n    /* \"#utility.yul\":3012:3017   */\n  dup3\n    /* \"#utility.yul\":3008:3024   */\n  add\n    /* \"#utility.yul\":3001:3024   */\n  swap1\n  pop\n    /* \"#utility.yul\":3072:3076   */\n  0x20\n    /* \"#utility.yul\":3064:3070   */\n  dup5\n    /* \"#utility.yul\":3060:3077   */\n  mul\n    /* \"#utility.yul\":3052:3058   */\n  dup4\n    /* \"#utility.yul\":3048:3078   */\n  add\n    /* \"#utility.yul\":3101:3104   */\n  dup6\n    /* \"#utility.yul\":3093:3099   */\n  dup2\n    /* \"#utility.yul\":3090:3105   */\n  gt\n    /* \"#utility.yul\":3087:3209   */\n  iszero\n  tag_83\n  jumpi\n    /* \"#utility.yul\":3120:3199   */\n  tag_84\n  tag_34\n  jump\t// in\ntag_84:\n    /* \"#utility.yul\":3087:3209   */\ntag_83:\n    /* \"#utility.yul\":3235:3241   */\n  dup4\n    /* \"#utility.yul\":3218:3463   */\ntag_85:\n    /* \"#utility.yul\":3252:3258   */\n  dup2\n    /* \"#utility.yul\":3247:3250   */\n  dup2\n    /* \"#utility.yul\":3244:3259   */\n  lt\n    /* \"#utility.yul\":3218:3463   */\n  iszero\n  tag_87\n  jumpi\n    /* \"#utility.yul\":3327:3330   */\n  dup1\n    /* \"#utility.yul\":3356:3418   */\n  tag_88\n    /* \"#utility.yul\":3414:3417   */\n  dup9\n    /* \"#utility.yul\":3402:3412   */\n  dup3\n    /* \"#utility.yul\":3356:3418   */\n  tag_39\n  jump\t// in\ntag_88:\n    /* \"#utility.yul\":3351:3354   */\n  dup5\n    /* \"#utility.yul\":3344:3419   */\n  mstore\n    /* \"#utility.yul\":3448:3452   */\n  0x20\n    /* \"#utility.yul\":3443:3446   */\n  dup5\n    /* \"#utility.yul\":3439:3453   */\n  add\n    /* \"#utility.yul\":3432:3453   */\n  swap4\n  pop\n    /* \"#utility.yul\":3294:3463   */\n  pop\n    /* \"#utility.yul\":3278:3282   */\n  0x20\n    /* \"#utility.yul\":3273:3276   */\n  dup2\n    /* \"#utility.yul\":3269:3283   */\n  add\n    /* \"#utility.yul\":3262:3283   */\n  swap1\n  pop\n    /* \"#utility.yul\":3218:3463   */\n  jump(tag_85)\ntag_87:\n    /* \"#utility.yul\":3222:3243   */\n  pop\n    /* \"#utility.yul\":2822:3469   */\n  pop\n  pop\n    /* \"#utility.yul\":2695:3469   */\n  swap4\n  swap3\n  pop\n  pop\n  pop\n  jump\t// out\n    /* \"#utility.yul\":3500:3913   */\ntag_41:\n    /* \"#utility.yul\":3596:3601   */\n  0x00\n    /* \"#utility.yul\":3645:3648   */\n  dup3\n    /* \"#utility.yul\":3638:3642   */\n  0x1f\n    /* \"#utility.yul\":3630:3636   */\n  dup4\n    /* \"#utility.yul\":3626:3643   */\n  add\n    /* \"#utility.yul\":3622:3649   */\n  slt\n    /* \"#utility.yul\":3612:3734   */\n  tag_90\n  jumpi\n    /* \"#utility.yul\":3653:3732   */\n  tag_91\n  tag_28\n  jump\t// in\ntag_91:\n    /* \"#utility.yul\":3612:3734   */\ntag_90:\n    /* \"#utility.yul\":3763:3769   */\n  dup2\n    /* \"#utility.yul\":3757:3770   */\n  mload\n    /* \"#utility.yul\":3788:3907   */\n  tag_92\n    /* \"#utility.yul\":3903:3906   */\n  dup5\n    /* \"#utility.yul\":3895:3901   */\n  dup3\n    /* \"#utility.yul\":3888:3892   */\n  0x20\n    /* \"#utility.yul\":3880:3886   */\n  dup7\n    /* \"#utility.yul\":3876:3893   */\n  add\n    /* \"#utility.yul\":3788:3907   */\n  tag_40\n  jump\t// in\ntag_92:\n    /* \"#utility.yul\":3779:3907   */\n  swap2\n  pop\n    /* \"#utility.yul\":3602:3913   */\n  pop\n    /* \"#utility.yul\":3500:3913   */\n  swap3\n  swap2\n  pop\n  pop\n  jump\t// out\n    /* \"#utility.yul\":3919:4230   */\ntag_42:\n    /* \"#utility.yul\":3996:4000   */\n  0x00\n    /* \"#utility.yul\":4086:4104   */\n  0xffffffffffffffff\n    /* \"#utility.yul\":4078:4084   */\n  dup3\n    /* \"#utility.yul\":4075:4105   */\n  gt\n    /* \"#utility.yul\":4072:4128   */\n  iszero\n  tag_94\n  jumpi\n    /* \"#utility.yul\":4108:4126   */\n  tag_95\n  tag_30\n  jump\t// in\ntag_95:\n    /* \"#utility.yul\":4072:4128   */\ntag_94:\n    /* \"#utility.yul\":4158:4162   */\n  0x20\n    /* \"#utility.yul\":4150:4156   */\n  dup3\n    /* \"#utility.yul\":4146:4163   */\n  mul\n    /* \"#utility.yul\":4138:4163   */\n  swap1\n  pop\n    /* \"#utility.yul\":4218:4222   */\n  0x20\n    /* \"#utility.yul\":4212:4216   */\n  dup2\n    /* \"#utility.yul\":4208:4223   */\n  add\n    /* \"#utility.yul\":4200:4223   */\n  swap1\n  pop\n    /* \"#utility.yul\":3919:4230   */\n  swap2\n  swap1\n  pop\n  jump\t// out\n    /* \"#utility.yul\":4253:4985   */\ntag_43:\n    /* \"#utility.yul\":4360:4365   */\n  0x00\n    /* \"#utility.yul\":4385:4466   */\n  tag_97\n    /* \"#utility.yul\":4401:4465   */\n  tag_98\n    /* \"#utility.yul\":4458:4464   */\n  dup5\n    /* \"#utility.yul\":4401:4465   */\n  tag_42\n  jump\t// in\ntag_98:\n    /* \"#utility.yul\":4385:4466   */\n  tag_32\n  jump\t// in\ntag_97:\n    /* \"#utility.yul\":4376:4466   */\n  swap1\n  pop\n    /* \"#utility.yul\":4486:4491   */\n  dup1\n    /* \"#utility.yul\":4515:4521   */\n  dup4\n    /* \"#utility.yul\":4508:4513   */\n  dup3\n    /* \"#utility.yul\":4501:4522   */\n  mstore\n    /* \"#utility.yul\":4549:4553   */\n  0x20\n    /* \"#utility.yul\":4542:4547   */\n  dup3\n    /* \"#utility.yul\":4538:4554   */\n  add\n    /* \"#utility.yul\":4531:4554   */\n  swap1\n  pop\n    /* \"#utility.yul\":4602:4606   */\n  0x20\n    /* \"#utility.yul\":4594:4600   */\n  dup5\n    /* \"#utility.yul\":4590:4607   */\n  mul\n    /* \"#utility.yul\":4582:4588   */\n  dup4\n    /* \"#utility.yul\":4578:4608   */\n  add\n    /* \"#utility.yul\":4631:4634   */\n  dup6\n    /* \"#utility.yul\":4623:4629   */\n  dup2\n    /* \"#utility.yul\":4620:4635   */\n  gt\n    /* \"#utility.yul\":4617:4739   */\n  iszero\n  tag_99\n  jumpi\n    /* \"#utility.yul\":4650:4729   */\n  tag_100\n  tag_34\n  jump\t// in\ntag_100:\n    /* \"#utility.yul\":4617:4739   */\ntag_99:\n    /* \"#utility.yul\":4765:4771   */\n  dup4\n    /* \"#utility.yul\":4748:4979   */\ntag_101:\n    /* \"#utility.yul\":4782:4788   */\n  dup2\n    /* \"#utility.yul\":4777:4780   */\n  dup2\n    /* \"#utility.yul\":4774:4789   */\n  lt\n    /* \"#utility.yul\":4748:4979   */\n  iszero\n  tag_103\n  jumpi\n    /* \"#utility.yul\":4857:4860   */\n  dup1\n    /* \"#utility.yul\":4886:4934   */\n  tag_104\n    /* \"#utility.yul\":4930:4933   */\n  dup9\n    /* \"#utility.yul\":4918:4928   */\n  dup3\n    /* \"#utility.yul\":4886:4934   */\n  tag_27\n  jump\t// in\ntag_104:\n    /* \"#utility.yul\":4881:4884   */\n  dup5\n    /* \"#utility.yul\":4874:4935   */\n  mstore\n    /* \"#utility.yul\":4964:4968   */\n  0x20\n    /* \"#utility.yul\":4959:4962   */\n  dup5\n    /* \"#utility.yul\":4955:4969   */\n  add\n    /* \"#utility.yul\":4948:4969   */\n  swap4\n  pop\n    /* \"#utility.yul\":4824:4979   */\n  pop\n    /* \"#utility.yul\":4808:4812   */\n  0x20\n    /* \"#utility.yul\":4803:4806   */\n  dup2\n    /* \"#utility.yul\":4799:4813   */\n  add\n    /* \"#utility.yul\":4792:4813   */\n  swap1\n  pop\n    /* \"#utility.yul\":4748:4979   */\n  jump(tag_101)\ntag_103:\n    /* \"#utility.yul\":4752:4773   */\n  pop\n    /* \"#utility.yul\":4366:4985   */\n  pop\n  pop\n    /* \"#utility.yul\":4253:4985   */\n  swap4\n  swap3\n  pop\n  pop\n  pop\n  jump\t// out\n    /* \"#utility.yul\":5008:5393   */\ntag_44:\n    /* \"#utility.yul\":5090:5095   */\n  0x00\n    /* \"#utility.yul\":5139:5142   */\n  dup3\n    /* \"#utility.yul\":5132:5136   */\n  0x1f\n    /* \"#utility.yul\":5124:5130   */\n  dup4\n    /* \"#utility.yul\":5120:5137   */\n  add\n    /* \"#utility.yul\":5116:5143   */\n  slt\n    /* \"#utility.yul\":5106:5228   */\n  tag_106\n  jumpi\n    /* \"#utility.yul\":5147:5226   */\n  tag_107\n  tag_28\n  jump\t// in\ntag_107:\n    /* \"#utility.yul\":5106:5228   */\ntag_106:\n    /* \"#utility.yul\":5257:5263   */\n  dup2\n    /* \"#utility.yul\":5251:5264   */\n  mload\n    /* \"#utility.yul\":5282:5387   */\n  tag_108\n    /* \"#utility.yul\":5383:5386   */\n  dup5\n    /* \"#utility.yul\":5375:5381   */\n  dup3\n    /* \"#utility.yul\":5368:5372   */\n  0x20\n    /* \"#utility.yul\":5360:5366   */\n  dup7\n    /* \"#utility.yul\":5356:5373   */\n  add\n    /* \"#utility.yul\":5282:5387   */\n  tag_43\n  jump\t// in\ntag_108:\n    /* \"#utility.yul\":5273:5387   */\n  swap2\n  pop\n    /* \"#utility.yul\":5096:5393   */\n  pop\n    /* \"#utility.yul\":5008:5393   */\n  swap3\n  swap2\n  pop\n  pop\n  jump\t// out\n    /* \"#utility.yul\":5399:6496   */\ntag_3:\n    /* \"#utility.yul\":5551:5557   */\n  0x00\n    /* \"#utility.yul\":5559:5565   */\n  dup1\n    /* \"#utility.yul\":5567:5573   */\n  0x00\n    /* \"#utility.yul\":5616:5618   */\n  0x60\n    /* \"#utility.yul\":5604:5613   */\n  dup5\n    /* \"#utility.yul\":5595:5602   */\n  dup7\n    /* \"#utility.yul\":5591:5614   */\n  sub\n    /* \"#utility.yul\":5587:5619   */\n  slt\n    /* \"#utility.yul\":5584:5703   */\n  iszero\n  tag_110\n  jumpi\n    /* \"#utility.yul\":5622:5701   */\n  tag_111\n  tag_23\n  jump\t// in\ntag_111:\n    /* \"#utility.yul\":5584:5703   */\ntag_110:\n    /* \"#utility.yul\":5742:5743   */\n  0x00\n    /* \"#utility.yul\":5767:5831   */\n  tag_112\n    /* \"#utility.yul\":5823:5830   */\n  dup7\n    /* \"#utility.yul\":5814:5820   */\n  dup3\n    /* \"#utility.yul\":5803:5812   */\n  dup8\n    /* \"#utility.yul\":5799:5821   */\n  add\n    /* \"#utility.yul\":5767:5831   */\n  tag_27\n  jump\t// in\ntag_112:\n    /* \"#utility.yul\":5757:5831   */\n  swap4\n  pop\n    /* \"#utility.yul\":5713:5841   */\n  pop\n    /* \"#utility.yul\":5901:5903   */\n  0x20\n    /* \"#utility.yul\":5890:5899   */\n  dup5\n    /* \"#utility.yul\":5886:5904   */\n  add\n    /* \"#utility.yul\":5880:5905   */\n  mload\n    /* \"#utility.yul\":5932:5950   */\n  0xffffffffffffffff\n    /* \"#utility.yul\":5924:5930   */\n  dup2\n    /* \"#utility.yul\":5921:5951   */\n  gt\n    /* \"#utility.yul\":5918:6035   */\n  iszero\n  tag_113\n  jumpi\n    /* \"#utility.yul\":5954:6033   */\n  tag_114\n  tag_24\n  jump\t// in\ntag_114:\n    /* \"#utility.yul\":5918:6035   */\ntag_113:\n    /* \"#utility.yul\":6059:6162   */\n  tag_115\n    /* \"#utility.yul\":6154:6161   */\n  dup7\n    /* \"#utility.yul\":6145:6151   */\n  dup3\n    /* \"#utility.yul\":6134:6143   */\n  dup8\n    /* \"#utility.yul\":6130:6152   */\n  add\n    /* \"#utility.yul\":6059:6162   */\n  tag_41\n  jump\t// in\ntag_115:\n    /* \"#utility.yul\":6049:6162   */\n  swap3\n  pop\n    /* \"#utility.yul\":5851:6172   */\n  pop\n    /* \"#utility.yul\":6232:6234   */\n  0x40\n    /* \"#utility.yul\":6221:6230   */\n  dup5\n    /* \"#utility.yul\":6217:6235   */\n  add\n    /* \"#utility.yul\":6211:6236   */\n  mload\n    /* \"#utility.yul\":6263:6281   */\n  0xffffffffffffffff\n    /* \"#utility.yul\":6255:6261   */\n  dup2\n    /* \"#utility.yul\":6252:6282   */\n  gt\n    /* \"#utility.yul\":6249:6366   */\n  iszero\n  tag_116\n  jumpi\n    /* \"#utility.yul\":6285:6364   */\n  tag_117\n  tag_24\n  jump\t// in\ntag_117:\n    /* \"#utility.yul\":6249:6366   */\ntag_116:\n    /* \"#utility.yul\":6390:6479   */\n  tag_118\n    /* \"#utility.yul\":6471:6478   */\n  dup7\n    /* \"#utility.yul\":6462:6468   */\n  dup3\n    /* \"#utility.yul\":6451:6460   */\n  dup8\n    /* \"#utility.yul\":6447:6469   */\n  add\n    /* \"#utility.yul\":6390:6479   */\n  tag_44\n  jump\t// in\ntag_118:\n    /* \"#utility.yul\":6380:6479   */\n  swap2\n  pop\n    /* \"#utility.yul\":6182:6489   */\n  pop\n    /* \"#utility.yul\":5399:6496   */\n  swap3\n  pop\n  swap3\n  pop\n  swap3\n  jump\t// out\n    /* \"#utility.yul\":6502:6682   */\ntag_14:\n    /* \"#utility.yul\":6550:6627   */\n  0x4e487b7100000000000000000000000000000000000000000000000000000000\n    /* \"#utility.yul\":6547:6548   */\n  0x00\n    /* \"#utility.yul\":6540:6628   */\n  mstore\n    /* \"#utility.yul\":6647:6651   */\n  0x32\n    /* \"#utility.yul\":6644:6645   */\n  0x04\n    /* \"#utility.yul\":6637:6652   */\n  mstore\n    /* \"#utility.yul\":6671:6675   */\n  0x24\n    /* \"#utility.yul\":6668:6669   */\n  0x00\n    /* \"#utility.yul\":6661:6676   */\n  revert\n    /* \"#utility.yul\":6688:6868   */\ntag_45:\n    /* \"#utility.yul\":6736:6813   */\n  0x4e487b7100000000000000000000000000000000000000000000000000000000\n    /* \"#utility.yul\":6733:6734   */\n  0x00\n    /* \"#utility.yul\":6726:6814   */\n  mstore\n    /* \"#utility.yul\":6833:6837   */\n  0x11\n    /* \"#utility.yul\":6830:6831   */\n  0x04\n    /* \"#utility.yul\":6823:6838   */\n  mstore\n    /* \"#utility.yul\":6857:6861   */\n  0x24\n    /* \"#utility.yul\":6854:6855   */\n  0x00\n    /* \"#utility.yul\":6847:6862   */\n  revert\n    /* \"#utility.yul\":6874:7107   */\ntag_20:\n    /* \"#utility.yul\":6913:6916   */\n  0x00\n    /* \"#utility.yul\":6936:6960   */\n  tag_122\n    /* \"#utility.yul\":6954:6959   */\n  dup3\n    /* \"#utility.yul\":6936:6960   */\n  tag_25\n  jump\t// in\ntag_122:\n    /* \"#utility.yul\":6927:6960   */\n  swap2\n  pop\n    /* \"#utility.yul\":6982:7048   */\n  0xffffffffffffffffffffffffffffffffffffffffffffffffffffffffffffffff\n    /* \"#utility.yul\":6975:6980   */\n  dup3\n    /* \"#utility.yul\":6972:7049   */\n  sub\n    /* \"#utility.yul\":6969:7072   */\n  tag_123\n  jumpi\n    /* \"#utility.yul\":7052:7070   */\n  tag_124\n  tag_45\n  jump\t// in\ntag_124:\n    /* \"#utility.yul\":6969:7072   */\ntag_123:\n    /* \"#utility.yul\":7099:7100   */\n  0x01\n    /* \"#utility.yul\":7092:7097   */\n  dup3\n    /* \"#utility.yul\":7088:7101   */\n  add\n    /* \"#utility.yul\":7081:7101   */\n  swap1\n  pop\n    /* \"#utility.yul\":6874:7107   */\n  swap2\n  swap1\n  pop\n  jump\t// out\n    /* \"contracts/RebalancingVault.sol\":1791:6086  contract Vault {... */\ntag_21:\n  dataSize(sub_0)\n  dup1\n  dataOffset(sub_0)\n  0x00\n  codecopy\n  0x00\n  return\nstop\n\nsub_0: assembly {\n        /* \"contracts/RebalancingVault.sol\":1791:6086  contract Vault {... */\n      mstore(0x40, 0x80)\n      jumpi(tag_1, lt(calldatasize, 0x04))\n      shr(0xe0, calldataload(0x00))\n      dup1\n      0x9e281a98\n      gt\n      tag_10\n      jumpi\n      dup1\n      0x9e281a98\n      eq\n      tag_6\n      jumpi\n      dup1\n      0xbea7e949\n      eq\n      tag_7\n      jumpi\n      dup1\n      0xee85c691\n      eq\n      tag_8\n      jumpi\n      dup1\n      0xf5e72a37\n      eq\n      tag_9\n      jumpi\n      jump(tag_1)\n    tag_10:\n      dup1\n      0x0b7b1f9e\n      eq\n      tag_2\n      jumpi\n      dup1\n      0x1de3df2c\n      eq\n      tag_3\n      jumpi\n      dup1\n      0x54ad4179\n      eq\n      tag_4\n      jumpi\n      dup1\n      0x6e3f4b3e\n      eq\n      tag_5\n      jumpi\n    tag_1:\n      0x00\n      dup1\n      revert\n        /* \"contracts/RebalancingVault.sol\":2189:2218  uint public timesWETHreceived */\n    tag_2:\n      callvalue\n      dup1\n      iszero\n      tag_11\n      jumpi\n      0x00\n      dup1\n      revert\n    tag_11:\n      pop\n      tag_12\n      tag_13\n      jump\t// in\n    tag_12:\n      mload(0x40)\n      tag_14\n      swap2\n      swap1\n      tag_15\n      jump\t// in\n    tag_14:\n      mload(0x40)\n      dup1\n      swap2\n      sub\n      swap1\n      return\n        /* \"contracts/RebalancingVault.sol\":2997:3173  function depositWETH() public payable{... */\n    tag_3:\n      tag_16\n      tag_17\n      jump\t// in\n    tag_16:\n      stop\n        /* \"contracts/RebalancingVault.sol\":3660:4134  function withdrawTokenTo(IERC20 _tokenAddress, uint _withdrawAmount, address _receiver) public{... */\n    tag_4:\n      callvalue\n      dup1\n      iszero\n      tag_18\n      jumpi\n      0x00\n      dup1\n      revert\n    tag_18:\n      pop\n      tag_19\n      0x04\n      dup1\n      calldatasize\n      sub\n      dup2\n      add\n      swap1\n      tag_20\n      swap2\n      swap1\n      tag_21\n      jump\t// in\n    tag_20:\n      tag_22\n      jump\t// in\n    tag_19:\n      stop\n        /* \"contracts/RebalancingVault.sol\":1953:1998  mapping(IERC20  => uint) public tokenAmmounts */\n    tag_5:\n      callvalue\n      dup1\n      iszero\n      tag_23\n      jumpi\n      0x00\n      dup1\n      revert\n    tag_23:\n      pop\n      tag_24\n      0x04\n      dup1\n      calldatasize\n      sub\n      dup2\n      add\n      swap1\n      tag_25\n      swap2\n      swap1\n      tag_26\n      jump\t// in\n    tag_25:\n      tag_27\n      jump\t// in\n    tag_24:\n      mload(0x40)\n      tag_28\n      swap2\n      swap1\n      tag_15\n      jump\t// in\n    tag_28:\n      mload(0x40)\n      dup1\n      swap2\n      sub\n      swap1\n      return\n        /* \"contracts/RebalancingVault.sol\":3193:3644  function withdrawToken(IERC20 _tokenAddress, uint _withdrawAmount) public { ... */\n    tag_6:\n      callvalue\n      dup1\n      iszero\n      tag_29\n      jumpi\n      0x00\n      dup1\n      revert\n    tag_29:\n      pop\n      tag_30\n      0x04\n      dup1\n      calldatasize\n      sub\n      dup2\n      add\n      swap1\n      tag_31\n      swap2\n      swap1\n      tag_32\n      jump\t// in\n    tag_31:\n      tag_33\n      jump\t// in\n    tag_30:\n      stop\n        /* \"contracts/RebalancingVault.sol\":1903:1947  mapping(IERC20  => uint) public tokenRations */\n    tag_7:\n      callvalue\n      dup1\n      iszero\n      tag_34\n      jumpi\n      0x00\n      dup1\n      revert\n    tag_34:\n      pop\n      tag_35\n      0x04\n      dup1\n      calldatasize\n      sub\n      dup2\n      add\n      swap1\n      tag_36\n      swap2\n      swap1\n      tag_26\n      jump\t// in\n    tag_36:\n      tag_37\n      jump\t// in\n    tag_35:\n      mload(0x40)\n      tag_38\n      swap2\n      swap1\n      tag_15\n      jump\t// in\n    tag_38:\n      mload(0x40)\n      dup1\n      swap2\n      sub\n      swap1\n      return\n        /* \"contracts/RebalancingVault.sol\":2155:2183  uint public lastWETHreceived */\n    tag_8:\n      callvalue\n      dup1\n      iszero\n      tag_39\n      jumpi\n      0x00\n      dup1\n      revert\n    tag_39:\n      pop\n      tag_40\n      tag_41\n      jump\t// in\n    tag_40:\n      mload(0x40)\n      tag_42\n      swap2\n      swap1\n      tag_15\n      jump\t// in\n    tag_42:\n      mload(0x40)\n      dup1\n      swap2\n      sub\n      swap1\n      return\n        /* \"contracts/RebalancingVault.sol\":2224:2251  uint public allWETHreceived */\n    tag_9:\n      callvalue\n      dup1\n      iszero\n      tag_43\n      jumpi\n      0x00\n      dup1\n      revert\n    tag_43:\n      pop\n      tag_44\n      tag_45\n      jump\t// in\n    tag_44:\n      mload(0x40)\n      tag_46\n      swap2\n      swap1\n      tag_15\n      jump\t// in\n    tag_46:\n      mload(0x40)\n      dup1\n      swap2\n      sub\n      swap1\n      return\n        /* \"contracts/RebalancingVault.sol\":2189:2218  uint public timesWETHreceived */\n    tag_13:\n      sload(0x04)\n      dup2\n      jump\t// out\n        /* \"contracts/RebalancingVault.sol\":2997:3173  function depositWETH() public payable{... */\n    tag_17:\n        /* \"contracts/RebalancingVault.sol\":3067:3076  msg.value */\n      callvalue\n        /* \"contracts/RebalancingVault.sol\":3048:3064  lastWETHreceived */\n      0x03\n        /* \"contracts/RebalancingVault.sol\":3048:3076  lastWETHreceived = msg.value */\n      dup2\n      swap1\n      sstore\n      pop\n        /* \"contracts/RebalancingVault.sol\":3109:3118  msg.value */\n      callvalue\n        /* \"contracts/RebalancingVault.sol\":3090:3105  allWETHreceived */\n      0x05\n      0x00\n        /* \"contracts/RebalancingVault.sol\":3090:3118  allWETHreceived += msg.value */\n      dup3\n      dup3\n      sload\n      tag_48\n      swap2\n      swap1\n      tag_49\n      jump\t// in\n    tag_48:\n      swap3\n      pop\n      pop\n      dup2\n      swap1\n      sstore\n      pop\n        /* \"contracts/RebalancingVault.sol\":3153:3162  msg.value */\n      callvalue\n        /* \"contracts/RebalancingVault.sol\":3132:3149  timesWETHreceived */\n      0x04\n      0x00\n        /* \"contracts/RebalancingVault.sol\":3132:3162  timesWETHreceived += msg.value */\n      dup3\n      dup3\n      sload\n      tag_50\n      swap2\n      swap1\n      tag_49\n      jump\t// in\n    tag_50:\n      swap3\n      pop\n      pop\n      dup2\n      swap1\n      sstore\n      pop\n        /* \"contracts/RebalancingVault.sol\":2997:3173  function depositWETH() public payable{... */\n      jump\t// out\n        /* \"contracts/RebalancingVault.sol\":3660:4134  function withdrawTokenTo(IERC20 _tokenAddress, uint _withdrawAmount, address _receiver) public{... */\n    tag_22:\n        /* \"contracts/RebalancingVault.sol\":3782:3795  contractOwner */\n      0x02\n      0x00\n      swap1\n      sload\n      swap1\n      0x0100\n      exp\n      swap1\n      div\n      0xffffffffffffffffffffffffffffffffffffffff\n      and\n        /* \"contracts/RebalancingVault.sol\":3768:3795  msg.sender == contractOwner */\n      0xffffffffffffffffffffffffffffffffffffffff\n      and\n        /* \"contracts/RebalancingVault.sol\":3768:3778  msg.sender */\n      caller\n        /* \"contracts/RebalancingVault.sol\":3768:3795  msg.sender == contractOwner */\n      0xffffffffffffffffffffffffffffffffffffffff\n      and\n      eq\n        /* \"contracts/RebalancingVault.sol\":3760:3834  require(msg.sender == contractOwner, \"You are not the owner of the vault\") */\n      tag_52\n      jumpi\n      mload(0x40)\n      0x08c379a000000000000000000000000000000000000000000000000000000000\n      dup2\n      mstore\n      0x04\n      add\n      tag_53\n      swap1\n      tag_54\n      jump\t// in\n    tag_53:\n      mload(0x40)\n      dup1\n      swap2\n      sub\n      swap1\n      revert\n    tag_52:\n        /* \"contracts/RebalancingVault.sol\":3879:3880  0 */\n      0x00\n        /* \"contracts/RebalancingVault.sol\":3848:3861  tokenAmmounts */\n      0x01\n        /* \"contracts/RebalancingVault.sol\":3848:3876  tokenAmmounts[_tokenAddress] */\n      0x00\n        /* \"contracts/RebalancingVault.sol\":3862:3875  _tokenAddress */\n      dup6\n        /* \"contracts/RebalancingVault.sol\":3848:3876  tokenAmmounts[_tokenAddress] */\n      0xffffffffffffffffffffffffffffffffffffffff\n      and\n      0xffffffffffffffffffffffffffffffffffffffff\n      and\n      dup2\n      mstore\n      0x20\n      add\n      swap1\n      dup2\n      mstore\n      0x20\n      add\n      0x00\n      keccak256\n      sload\n        /* \"contracts/RebalancingVault.sol\":3848:3880  tokenAmmounts[_tokenAddress] > 0 */\n      gt\n        /* \"contracts/RebalancingVault.sol\":3840:3881  require(tokenAmmounts[_tokenAddress] > 0) */\n      tag_55\n      jumpi\n      0x00\n      dup1\n      revert\n    tag_55:\n        /* \"contracts/RebalancingVault.sol\":3989:4004  _withdrawAmount */\n      dup2\n        /* \"contracts/RebalancingVault.sol\":3957:3970  tokenAmmounts */\n      0x01\n        /* \"contracts/RebalancingVault.sol\":3957:3985  tokenAmmounts[_tokenAddress] */\n      0x00\n        /* \"contracts/RebalancingVault.sol\":3971:3984  _tokenAddress */\n      dup6\n        /* \"contracts/RebalancingVault.sol\":3957:3985  tokenAmmounts[_tokenAddress] */\n      0xffffffffffffffffffffffffffffffffffffffff\n      and\n      0xffffffffffffffffffffffffffffffffffffffff\n      and\n      dup2\n      mstore\n      0x20\n      add\n      swap1\n      dup2\n      mstore\n      0x20\n      add\n      0x00\n      keccak256\n      sload\n        /* \"contracts/RebalancingVault.sol\":3957:4004  tokenAmmounts[_tokenAddress] >= _withdrawAmount */\n      lt\n      iszero\n        /* \"contracts/RebalancingVault.sol\":3949:4005  require(tokenAmmounts[_tokenAddress] >= _withdrawAmount) */\n      tag_56\n      jumpi\n      0x00\n      dup1\n      revert\n    tag_56:\n        /* \"contracts/RebalancingVault.sol\":4073:4086  _tokenAddress */\n      dup3\n        /* \"contracts/RebalancingVault.sol\":4073:4095  _tokenAddress.transfer */\n      0xffffffffffffffffffffffffffffffffffffffff\n      and\n      0xa9059cbb\n        /* \"contracts/RebalancingVault.sol\":4096:4105  _receiver */\n      dup3\n        /* \"contracts/RebalancingVault.sol\":4107:4122  _withdrawAmount */\n      dup5\n        /* \"contracts/RebalancingVault.sol\":4073:4123  _tokenAddress.transfer(_receiver, _withdrawAmount) */\n      mload(0x40)\n      dup4\n      0xffffffff\n      and\n      0xe0\n      shl\n      dup2\n      mstore\n      0x04\n      add\n      tag_57\n      swap3\n      swap2\n      swap1\n      tag_58\n      jump\t// in\n    tag_57:\n      0x20\n      mload(0x40)\n      dup1\n      dup4\n      sub\n      dup2\n      0x00\n      dup8\n      gas\n      call\n      iszero\n      dup1\n      iszero\n      tag_60\n      jumpi\n      returndatasize\n      0x00\n      dup1\n      returndatacopy\n      revert(0x00, returndatasize)\n    tag_60:\n      pop\n      pop\n      pop\n      pop\n      mload(0x40)\n      returndatasize\n      not(0x1f)\n      0x1f\n      dup3\n      add\n      and\n      dup3\n      add\n      dup1\n      0x40\n      mstore\n      pop\n      dup2\n      add\n      swap1\n      tag_61\n      swap2\n      swap1\n      tag_62\n      jump\t// in\n    tag_61:\n      pop\n        /* \"contracts/RebalancingVault.sol\":3660:4134  function withdrawTokenTo(IERC20 _tokenAddress, uint _withdrawAmount, address _receiver) public{... */\n      pop\n      pop\n      pop\n      jump\t// out\n        /* \"contracts/RebalancingVault.sol\":1953:1998  mapping(IERC20  => uint) public tokenAmmounts */\n    tag_27:\n      mstore(0x20, 0x01)\n      dup1\n      0x00\n      mstore\n      keccak256(0x00, 0x40)\n      0x00\n      swap2\n      pop\n      swap1\n      pop\n      sload\n      dup2\n      jump\t// out\n        /* \"contracts/RebalancingVault.sol\":3193:3644  function withdrawToken(IERC20 _tokenAddress, uint _withdrawAmount) public { ... */\n    tag_33:\n        /* \"contracts/RebalancingVault.sol\":3296:3309  contractOwner */\n      0x02\n      0x00\n      swap1\n      sload\n      swap1\n      0x0100\n      exp\n      swap1\n      div\n      0xffffffffffffffffffffffffffffffffffffffff\n      and\n        /* \"contracts/RebalancingVault.sol\":3282:3309  msg.sender == contractOwner */\n      0xffffffffffffffffffffffffffffffffffffffff\n      and\n        /* \"contracts/RebalancingVault.sol\":3282:3292  msg.sender */\n      caller\n        /* \"contracts/RebalancingVault.sol\":3282:3309  msg.sender == contractOwner */\n      0xffffffffffffffffffffffffffffffffffffffff\n      and\n      eq\n        /* \"contracts/RebalancingVault.sol\":3274:3348  require(msg.sender == contractOwner, \"You are not the owner of the vault\") */\n      tag_64\n      jumpi\n      mload(0x40)\n      0x08c379a000000000000000000000000000000000000000000000000000000000\n      dup2\n      mstore\n      0x04\n      add\n      tag_65\n      swap1\n      tag_54\n      jump\t// in\n    tag_65:\n      mload(0x40)\n      dup1\n      swap2\n      sub\n      swap1\n      revert\n    tag_64:\n        /* \"contracts/RebalancingVault.sol\":3393:3394  0 */\n      0x00\n        /* \"contracts/RebalancingVault.sol\":3362:3375  tokenAmmounts */\n      0x01\n        /* \"contracts/RebalancingVault.sol\":3362:3390  tokenAmmounts[_tokenAddress] */\n      0x00\n        /* \"contracts/RebalancingVault.sol\":3376:3389  _tokenAddress */\n      dup5\n        /* \"contracts/RebalancingVault.sol\":3362:3390  tokenAmmounts[_tokenAddress] */\n      0xffffffffffffffffffffffffffffffffffffffff\n      and\n      0xffffffffffffffffffffffffffffffffffffffff\n      and\n      dup2\n      mstore\n      0x20\n      add\n      swap1\n      dup2\n      mstore\n      0x20\n      add\n      0x00\n      keccak256\n      sload\n        /* \"contracts/RebalancingVault.sol\":3362:3394  tokenAmmounts[_tokenAddress] > 0 */\n      gt\n        /* \"contracts/RebalancingVault.sol\":3354:3395  require(tokenAmmounts[_tokenAddress] > 0) */\n      tag_66\n      jumpi\n      0x00\n      dup1\n      revert\n    tag_66:\n        /* \"contracts/RebalancingVault.sol\":3503:3518  _withdrawAmount */\n      dup1\n        /* \"contracts/RebalancingVault.sol\":3471:3484  tokenAmmounts */\n      0x01\n        /* \"contracts/RebalancingVault.sol\":3471:3499  tokenAmmounts[_tokenAddress] */\n      0x00\n        /* \"contracts/RebalancingVault.sol\":3485:3498  _tokenAddress */\n      dup5\n        /* \"contracts/RebalancingVault.sol\":3471:3499  tokenAmmounts[_tokenAddress] */\n      0xffffffffffffffffffffffffffffffffffffffff\n      and\n      0xffffffffffffffffffffffffffffffffffffffff\n      and\n      dup2\n      mstore\n      0x20\n      add\n      swap1\n      dup2\n      mstore\n      0x20\n      add\n      0x00\n      keccak256\n      sload\n        /* \"contracts/RebalancingVault.sol\":3471:3518  tokenAmmounts[_tokenAddress] >= _withdrawAmount */\n      lt\n      iszero\n        /* \"contracts/RebalancingVault.sol\":3463:3519  require(tokenAmmounts[_tokenAddress] >= _withdrawAmount) */\n      tag_67\n      jumpi\n      0x00\n      dup1\n      revert\n    tag_67:\n        /* \"contracts/RebalancingVault.sol\":3587:3600  _tokenAddress */\n      dup2\n        /* \"contracts/RebalancingVault.sol\":3587:3609  _tokenAddress.transfer */\n      0xffffffffffffffffffffffffffffffffffffffff\n      and\n      0xa9059cbb\n        /* \"contracts/RebalancingVault.sol\":3610:3623  contractOwner */\n      0x02\n      0x00\n      swap1\n      sload\n      swap1\n      0x0100\n      exp\n      swap1\n      div\n      0xffffffffffffffffffffffffffffffffffffffff\n      and\n        /* \"contracts/RebalancingVault.sol\":3625:3640  _withdrawAmount */\n      dup4\n        /* \"contracts/RebalancingVault.sol\":3587:3641  _tokenAddress.transfer(contractOwner, _withdrawAmount) */\n      mload(0x40)\n      dup4\n      0xffffffff\n      and\n      0xe0\n      shl\n      dup2\n      mstore\n      0x04\n      add\n      tag_68\n      swap3\n      swap2\n      swap1\n      tag_69\n      jump\t// in\n    tag_68:\n      0x20\n      mload(0x40)\n      dup1\n      dup4\n      sub\n      dup2\n      0x00\n      dup8\n      gas\n      call\n      iszero\n      dup1\n      iszero\n      tag_71\n      jumpi\n      returndatasize\n      0x00\n      dup1\n      returndatacopy\n      revert(0x00, returndatasize)\n    tag_71:\n      pop\n      pop\n      pop\n      pop\n      mload(0x40)\n      returndatasize\n      not(0x1f)\n      0x1f\n      dup3\n      add\n      and\n      dup3\n      add\n      dup1\n      0x40\n      mstore\n      pop\n      dup2\n      add\n      swap1\n      tag_72\n      swap2\n      swap1\n      tag_62\n      jump\t// in\n    tag_72:\n      pop\n        /* \"contracts/RebalancingVault.sol\":3193:3644  function withdrawToken(IERC20 _tokenAddress, uint _withdrawAmount) public { ... */\n      pop\n      pop\n      jump\t// out\n        /* \"contracts/RebalancingVault.sol\":1903:1947  mapping(IERC20  => uint) public tokenRations */\n    tag_37:\n      mstore(0x20, 0x00)\n      dup1\n      0x00\n      mstore\n      keccak256(0x00, 0x40)\n      0x00\n      swap2\n      pop\n      swap1\n      pop\n      sload\n      dup2\n      jump\t// out\n        /* \"contracts/RebalancingVault.sol\":2155:2183  uint public lastWETHreceived */\n    tag_41:\n      sload(0x03)\n      dup2\n      jump\t// out\n        /* \"contracts/RebalancingVault.sol\":2224:2251  uint public allWETHreceived */\n    tag_45:\n      sload(0x05)\n      dup2\n      jump\t// out\n        /* \"#utility.yul\":7:84   */\n    tag_73:\n        /* \"#utility.yul\":44:51   */\n      0x00\n        /* \"#utility.yul\":73:78   */\n      dup2\n        /* \"#utility.yul\":62:78   */\n      swap1\n      pop\n        /* \"#utility.yul\":7:84   */\n      swap2\n      swap1\n      pop\n      jump\t// out\n        /* \"#utility.yul\":90:208   */\n    tag_74:\n        /* \"#utility.yul\":177:201   */\n      tag_103\n        /* \"#utility.yul\":195:200   */\n      dup2\n        /* \"#utility.yul\":177:201   */\n      tag_73\n      jump\t// in\n    tag_103:\n        /* \"#utility.yul\":172:175   */\n      dup3\n        /* \"#utility.yul\":165:202   */\n      mstore\n        /* \"#utility.yul\":90:208   */\n      pop\n      pop\n      jump\t// out\n        /* \"#utility.yul\":214:436   */\n    tag_15:\n        /* \"#utility.yul\":307:311   */\n      0x00\n        /* \"#utility.yul\":345:347   */\n      0x20\n        /* \"#utility.yul\":334:343   */\n      dup3\n        /* \"#utility.yul\":330:348   */\n      add\n        /* \"#utility.yul\":322:348   */\n      swap1\n      pop\n        /* \"#utility.yul\":358:429   */\n      tag_105\n        /* \"#utility.yul\":426:427   */\n      0x00\n        /* \"#utility.yul\":415:424   */\n      dup4\n        /* \"#utility.yul\":411:428   */\n      add\n        /* \"#utility.yul\":402:408   */\n      dup5\n        /* \"#utility.yul\":358:429   */\n      tag_74\n      jump\t// in\n    tag_105:\n        /* \"#utility.yul\":214:436   */\n      swap3\n      swap2\n      pop\n      pop\n      jump\t// out\n        /* \"#utility.yul\":523:640   */\n    tag_76:\n        /* \"#utility.yul\":632:633   */\n      0x00\n        /* \"#utility.yul\":629:630   */\n      dup1\n        /* \"#utility.yul\":622:634   */\n      revert\n        /* \"#utility.yul\":769:895   */\n    tag_78:\n        /* \"#utility.yul\":806:813   */\n      0x00\n        /* \"#utility.yul\":846:888   */\n      0xffffffffffffffffffffffffffffffffffffffff\n        /* \"#utility.yul\":839:844   */\n      dup3\n        /* \"#utility.yul\":835:889   */\n      and\n        /* \"#utility.yul\":824:889   */\n      swap1\n      pop\n        /* \"#utility.yul\":769:895   */\n      swap2\n      swap1\n      pop\n      jump\t// out\n        /* \"#utility.yul\":901:997   */\n    tag_79:\n        /* \"#utility.yul\":938:945   */\n      0x00\n        /* \"#utility.yul\":967:991   */\n      tag_111\n        /* \"#utility.yul\":985:990   */\n      dup3\n        /* \"#utility.yul\":967:991   */\n      tag_78\n      jump\t// in\n    tag_111:\n        /* \"#utility.yul\":956:991   */\n      swap1\n      pop\n        /* \"#utility.yul\":901:997   */\n      swap2\n      swap1\n      pop\n      jump\t// out\n        /* \"#utility.yul\":1003:1113   */\n    tag_80:\n        /* \"#utility.yul\":1054:1061   */\n      0x00\n        /* \"#utility.yul\":1083:1107   */\n      tag_113\n        /* \"#utility.yul\":1101:1106   */\n      dup3\n        /* \"#utility.yul\":1083:1107   */\n      tag_79\n      jump\t// in\n    tag_113:\n        /* \"#utility.yul\":1072:1107   */\n      swap1\n      pop\n        /* \"#utility.yul\":1003:1113   */\n      swap2\n      swap1\n      pop\n      jump\t// out\n        /* \"#utility.yul\":1119:1269   */\n    tag_81:\n        /* \"#utility.yul\":1206:1244   */\n      tag_115\n        /* \"#utility.yul\":1238:1243   */\n      dup2\n        /* \"#utility.yul\":1206:1244   */\n      tag_80\n      jump\t// in\n    tag_115:\n        /* \"#utility.yul\":1199:1204   */\n      dup2\n        /* \"#utility.yul\":1196:1245   */\n      eq\n        /* \"#utility.yul\":1186:1263   */\n      tag_116\n      jumpi\n        /* \"#utility.yul\":1259:1260   */\n      0x00\n        /* \"#utility.yul\":1256:1257   */\n      dup1\n        /* \"#utility.yul\":1249:1261   */\n      revert\n        /* \"#utility.yul\":1186:1263   */\n    tag_116:\n        /* \"#utility.yul\":1119:1269   */\n      pop\n      jump\t// out\n        /* \"#utility.yul\":1275:1442   */\n    tag_82:\n        /* \"#utility.yul\":1335:1340   */\n      0x00\n        /* \"#utility.yul\":1373:1379   */\n      dup2\n        /* \"#utility.yul\":1360:1380   */\n      calldataload\n        /* \"#utility.yul\":1351:1380   */\n      swap1\n      pop\n        /* \"#utility.yul\":1389:1436   */\n      tag_118\n        /* \"#utility.yul\":1430:1435   */\n      dup2\n        /* \"#utility.yul\":1389:1436   */\n      tag_81\n      jump\t// in\n    tag_118:\n        /* \"#utility.yul\":1275:1442   */\n      swap3\n      swap2\n      pop\n      pop\n      jump\t// out\n        /* \"#utility.yul\":1448:1570   */\n    tag_83:\n        /* \"#utility.yul\":1521:1545   */\n      tag_120\n        /* \"#utility.yul\":1539:1544   */\n      dup2\n        /* \"#utility.yul\":1521:1545   */\n      tag_73\n      jump\t// in\n    tag_120:\n        /* \"#utility.yul\":1514:1519   */\n      dup2\n        /* \"#utility.yul\":1511:1546   */\n      eq\n        /* \"#utility.yul\":1501:1564   */\n      tag_121\n      jumpi\n        /* \"#utility.yul\":1560:1561   */\n      0x00\n        /* \"#utility.yul\":1557:1558   */\n      dup1\n        /* \"#utility.yul\":1550:1562   */\n      revert\n        /* \"#utility.yul\":1501:1564   */\n    tag_121:\n        /* \"#utility.yul\":1448:1570   */\n      pop\n      jump\t// out\n        /* \"#utility.yul\":1576:1715   */\n    tag_84:\n        /* \"#utility.yul\":1622:1627   */\n      0x00\n        /* \"#utility.yul\":1660:1666   */\n      dup2\n        /* \"#utility.yul\":1647:1667   */\n      calldataload\n        /* \"#utility.yul\":1638:1667   */\n      swap1\n      pop\n        /* \"#utility.yul\":1676:1709   */\n      tag_123\n        /* \"#utility.yul\":1703:1708   */\n      dup2\n        /* \"#utility.yul\":1676:1709   */\n      tag_83\n      jump\t// in\n    tag_123:\n        /* \"#utility.yul\":1576:1715   */\n      swap3\n      swap2\n      pop\n      pop\n      jump\t// out\n        /* \"#utility.yul\":1721:1843   */\n    tag_85:\n        /* \"#utility.yul\":1794:1818   */\n      tag_125\n        /* \"#utility.yul\":1812:1817   */\n      dup2\n        /* \"#utility.yul\":1794:1818   */\n      tag_79\n      jump\t// in\n    tag_125:\n        /* \"#utility.yul\":1787:1792   */\n      dup2\n        /* \"#utility.yul\":1784:1819   */\n      eq\n        /* \"#utility.yul\":1774:1837   */\n      tag_126\n      jumpi\n        /* \"#utility.yul\":1833:1834   */\n      0x00\n        /* \"#utility.yul\":1830:1831   */\n      dup1\n        /* \"#utility.yul\":1823:1835   */\n      revert\n        /* \"#utility.yul\":1774:1837   */\n    tag_126:\n        /* \"#utility.yul\":1721:1843   */\n      pop\n      jump\t// out\n        /* \"#utility.yul\":1849:1988   */\n    tag_86:\n        /* \"#utility.yul\":1895:1900   */\n      0x00\n        /* \"#utility.yul\":1933:1939   */\n      dup2\n        /* \"#utility.yul\":1920:1940   */\n      calldataload\n        /* \"#utility.yul\":1911:1940   */\n      swap1\n      pop\n        /* \"#utility.yul\":1949:1982   */\n      tag_128\n        /* \"#utility.yul\":1976:1981   */\n      dup2\n        /* \"#utility.yul\":1949:1982   */\n      tag_85\n      jump\t// in\n    tag_128:\n        /* \"#utility.yul\":1849:1988   */\n      swap3\n      swap2\n      pop\n      pop\n      jump\t// out\n        /* \"#utility.yul\":1994:2641   */\n    tag_21:\n        /* \"#utility.yul\":2085:2091   */\n      0x00\n        /* \"#utility.yul\":2093:2099   */\n      dup1\n        /* \"#utility.yul\":2101:2107   */\n      0x00\n        /* \"#utility.yul\":2150:2152   */\n      0x60\n        /* \"#utility.yul\":2138:2147   */\n      dup5\n        /* \"#utility.yul\":2129:2136   */\n      dup7\n        /* \"#utility.yul\":2125:2148   */\n      sub\n        /* \"#utility.yul\":2121:2153   */\n      slt\n        /* \"#utility.yul\":2118:2237   */\n      iszero\n      tag_130\n      jumpi\n        /* \"#utility.yul\":2156:2235   */\n      tag_131\n      tag_76\n      jump\t// in\n    tag_131:\n        /* \"#utility.yul\":2118:2237   */\n    tag_130:\n        /* \"#utility.yul\":2276:2277   */\n      0x00\n        /* \"#utility.yul\":2301:2368   */\n      tag_132\n        /* \"#utility.yul\":2360:2367   */\n      dup7\n        /* \"#utility.yul\":2351:2357   */\n      dup3\n        /* \"#utility.yul\":2340:2349   */\n      dup8\n        /* \"#utility.yul\":2336:2358   */\n      add\n        /* \"#utility.yul\":2301:2368   */\n      tag_82\n      jump\t// in\n    tag_132:\n        /* \"#utility.yul\":2291:2368   */\n      swap4\n      pop\n        /* \"#utility.yul\":2247:2378   */\n      pop\n        /* \"#utility.yul\":2417:2419   */\n      0x20\n        /* \"#utility.yul\":2443:2496   */\n      tag_133\n        /* \"#utility.yul\":2488:2495   */\n      dup7\n        /* \"#utility.yul\":2479:2485   */\n      dup3\n        /* \"#utility.yul\":2468:2477   */\n      dup8\n        /* \"#utility.yul\":2464:2486   */\n      add\n        /* \"#utility.yul\":2443:2496   */\n      tag_84\n      jump\t// in\n    tag_133:\n        /* \"#utility.yul\":2433:2496   */\n      swap3\n      pop\n        /* \"#utility.yul\":2388:2506   */\n      pop\n        /* \"#utility.yul\":2545:2547   */\n      0x40\n        /* \"#utility.yul\":2571:2624   */\n      tag_134\n        /* \"#utility.yul\":2616:2623   */\n      dup7\n        /* \"#utility.yul\":2607:2613   */\n      dup3\n        /* \"#utility.yul\":2596:2605   */\n      dup8\n        /* \"#utility.yul\":2592:2614   */\n      add\n        /* \"#utility.yul\":2571:2624   */\n      tag_86\n      jump\t// in\n    tag_134:\n        /* \"#utility.yul\":2561:2624   */\n      swap2\n      pop\n        /* \"#utility.yul\":2516:2634   */\n      pop\n        /* \"#utility.yul\":1994:2641   */\n      swap3\n      pop\n      swap3\n      pop\n      swap3\n      jump\t// out\n        /* \"#utility.yul\":2647:3004   */\n    tag_26:\n        /* \"#utility.yul\":2720:2726   */\n      0x00\n        /* \"#utility.yul\":2769:2771   */\n      0x20\n        /* \"#utility.yul\":2757:2766   */\n      dup3\n        /* \"#utility.yul\":2748:2755   */\n      dup5\n        /* \"#utility.yul\":2744:2767   */\n      sub\n        /* \"#utility.yul\":2740:2772   */\n      slt\n        /* \"#utility.yul\":2737:2856   */\n      iszero\n      tag_136\n      jumpi\n        /* \"#utility.yul\":2775:2854   */\n      tag_137\n      tag_76\n      jump\t// in\n    tag_137:\n        /* \"#utility.yul\":2737:2856   */\n    tag_136:\n        /* \"#utility.yul\":2895:2896   */\n      0x00\n        /* \"#utility.yul\":2920:2987   */\n      tag_138\n        /* \"#utility.yul\":2979:2986   */\n      dup5\n        /* \"#utility.yul\":2970:2976   */\n      dup3\n        /* \"#utility.yul\":2959:2968   */\n      dup6\n        /* \"#utility.yul\":2955:2977   */\n      add\n        /* \"#utility.yul\":2920:2987   */\n      tag_82\n      jump\t// in\n    tag_138:\n        /* \"#utility.yul\":2910:2987   */\n      swap2\n      pop\n        /* \"#utility.yul\":2866:2997   */\n      pop\n        /* \"#utility.yul\":2647:3004   */\n      swap3\n      swap2\n      pop\n      pop\n      jump\t// out\n        /* \"#utility.yul\":3010:3512   */\n    tag_32:\n        /* \"#utility.yul\":3092:3098   */\n      0x00\n        /* \"#utility.yul\":3100:3106   */\n      dup1\n        /* \"#utility.yul\":3149:3151   */\n      0x40\n        /* \"#utility.yul\":3137:3146   */\n      dup4\n        /* \"#utility.yul\":3128:3135   */\n      dup6\n        /* \"#utility.yul\":3124:3147   */\n      sub\n        /* \"#utility.yul\":3120:3152   */\n      slt\n        /* \"#utility.yul\":3117:3236   */\n      iszero\n      tag_140\n      jumpi\n        /* \"#utility.yul\":3155:3234   */\n      tag_141\n      tag_76\n      jump\t// in\n    tag_141:\n        /* \"#utility.yul\":3117:3236   */\n    tag_140:\n        /* \"#utility.yul\":3275:3276   */\n      0x00\n        /* \"#utility.yul\":3300:3367   */\n      tag_142\n        /* \"#utility.yul\":3359:3366   */\n      dup6\n        /* \"#utility.yul\":3350:3356   */\n      dup3\n        /* \"#utility.yul\":3339:3348   */\n      dup7\n        /* \"#utility.yul\":3335:3357   */\n      add\n        /* \"#utility.yul\":3300:3367   */\n      tag_82\n      jump\t// in\n    tag_142:\n        /* \"#utility.yul\":3290:3367   */\n      swap3\n      pop\n        /* \"#utility.yul\":3246:3377   */\n      pop\n        /* \"#utility.yul\":3416:3418   */\n      0x20\n        /* \"#utility.yul\":3442:3495   */\n      tag_143\n        /* \"#utility.yul\":3487:3494   */\n      dup6\n        /* \"#utility.yul\":3478:3484   */\n      dup3\n        /* \"#utility.yul\":3467:3476   */\n      dup7\n        /* \"#utility.yul\":3463:3485   */\n      add\n        /* \"#utility.yul\":3442:3495   */\n      tag_84\n      jump\t// in\n    tag_143:\n        /* \"#utility.yul\":3432:3495   */\n      swap2\n      pop\n        /* \"#utility.yul\":3387:3505   */\n      pop\n        /* \"#utility.yul\":3010:3512   */\n      swap3\n      pop\n      swap3\n      swap1\n      pop\n      jump\t// out\n        /* \"#utility.yul\":3518:3698   */\n    tag_87:\n        /* \"#utility.yul\":3566:3643   */\n      0x4e487b7100000000000000000000000000000000000000000000000000000000\n        /* \"#utility.yul\":3563:3564   */\n      0x00\n        /* \"#utility.yul\":3556:3644   */\n      mstore\n        /* \"#utility.yul\":3663:3667   */\n      0x11\n        /* \"#utility.yul\":3660:3661   */\n      0x04\n        /* \"#utility.yul\":3653:3668   */\n      mstore\n        /* \"#utility.yul\":3687:3691   */\n      0x24\n        /* \"#utility.yul\":3684:3685   */\n      0x00\n        /* \"#utility.yul\":3677:3692   */\n      revert\n        /* \"#utility.yul\":3704:4009   */\n    tag_49:\n        /* \"#utility.yul\":3744:3747   */\n      0x00\n        /* \"#utility.yul\":3763:3783   */\n      tag_146\n        /* \"#utility.yul\":3781:3782   */\n      dup3\n        /* \"#utility.yul\":3763:3783   */\n      tag_73\n      jump\t// in\n    tag_146:\n        /* \"#utility.yul\":3758:3783   */\n      swap2\n      pop\n        /* \"#utility.yul\":3797:3817   */\n      tag_147\n        /* \"#utility.yul\":3815:3816   */\n      dup4\n        /* \"#utility.yul\":3797:3817   */\n      tag_73\n      jump\t// in\n    tag_147:\n        /* \"#utility.yul\":3792:3817   */\n      swap3\n      pop\n        /* \"#utility.yul\":3951:3952   */\n      dup3\n        /* \"#utility.yul\":3883:3949   */\n      0xffffffffffffffffffffffffffffffffffffffffffffffffffffffffffffffff\n        /* \"#utility.yul\":3879:3953   */\n      sub\n        /* \"#utility.yul\":3876:3877   */\n      dup3\n        /* \"#utility.yul\":3873:3954   */\n      gt\n        /* \"#utility.yul\":3870:3977   */\n      iszero\n      tag_148\n      jumpi\n        /* \"#utility.yul\":3957:3975   */\n      tag_149\n      tag_87\n      jump\t// in\n    tag_149:\n        /* \"#utility.yul\":3870:3977   */\n    tag_148:\n        /* \"#utility.yul\":4001:4002   */\n      dup3\n        /* \"#utility.yul\":3998:3999   */\n      dup3\n        /* \"#utility.yul\":3994:4003   */\n      add\n        /* \"#utility.yul\":3987:4003   */\n      swap1\n      pop\n        /* \"#utility.yul\":3704:4009   */\n      swap3\n      swap2\n      pop\n      pop\n      jump\t// out\n        /* \"#utility.yul\":4015:4184   */\n    tag_88:\n        /* \"#utility.yul\":4099:4110   */\n      0x00\n        /* \"#utility.yul\":4133:4139   */\n      dup3\n        /* \"#utility.yul\":4128:4131   */\n      dup3\n        /* \"#utility.yul\":4121:4140   */\n      mstore\n        /* \"#utility.yul\":4173:4177   */\n      0x20\n        /* \"#utility.yul\":4168:4171   */\n      dup3\n        /* \"#utility.yul\":4164:4178   */\n      add\n        /* \"#utility.yul\":4149:4178   */\n      swap1\n      pop\n        /* \"#utility.yul\":4015:4184   */\n      swap3\n      swap2\n      pop\n      pop\n      jump\t// out\n        /* \"#utility.yul\":4190:4411   */\n    tag_89:\n        /* \"#utility.yul\":4330:4364   */\n      0x596f7520617265206e6f7420746865206f776e6572206f662074686520766175\n        /* \"#utility.yul\":4326:4327   */\n      0x00\n        /* \"#utility.yul\":4318:4324   */\n      dup3\n        /* \"#utility.yul\":4314:4328   */\n      add\n        /* \"#utility.yul\":4307:4365   */\n      mstore\n        /* \"#utility.yul\":4399:4403   */\n      0x6c74000000000000000000000000000000000000000000000000000000000000\n        /* \"#utility.yul\":4394:4396   */\n      0x20\n        /* \"#utility.yul\":4386:4392   */\n      dup3\n        /* \"#utility.yul\":4382:4397   */\n      add\n        /* \"#utility.yul\":4375:4404   */\n      mstore\n        /* \"#utility.yul\":4190:4411   */\n      pop\n      jump\t// out\n        /* \"#utility.yul\":4417:4783   */\n    tag_90:\n        /* \"#utility.yul\":4559:4562   */\n      0x00\n        /* \"#utility.yul\":4580:4647   */\n      tag_153\n        /* \"#utility.yul\":4644:4646   */\n      0x22\n        /* \"#utility.yul\":4639:4642   */\n      dup4\n        /* \"#utility.yul\":4580:4647   */\n      tag_88\n      jump\t// in\n    tag_153:\n        /* \"#utility.yul\":4573:4647   */\n      swap2\n      pop\n        /* \"#utility.yul\":4656:4749   */\n      tag_154\n        /* \"#utility.yul\":4745:4748   */\n      dup3\n        /* \"#utility.yul\":4656:4749   */\n      tag_89\n      jump\t// in\n    tag_154:\n        /* \"#utility.yul\":4774:4776   */\n      0x40\n        /* \"#utility.yul\":4769:4772   */\n      dup3\n        /* \"#utility.yul\":4765:4777   */\n      add\n        /* \"#utility.yul\":4758:4777   */\n      swap1\n      pop\n        /* \"#utility.yul\":4417:4783   */\n      swap2\n      swap1\n      pop\n      jump\t// out\n        /* \"#utility.yul\":4789:5208   */\n    tag_54:\n        /* \"#utility.yul\":4955:4959   */\n      0x00\n        /* \"#utility.yul\":4993:4995   */\n      0x20\n        /* \"#utility.yul\":4982:4991   */\n      dup3\n        /* \"#utility.yul\":4978:4996   */\n      add\n        /* \"#utility.yul\":4970:4996   */\n      swap1\n      pop\n        /* \"#utility.yul\":5042:5051   */\n      dup2\n        /* \"#utility.yul\":5036:5040   */\n      dup2\n        /* \"#utility.yul\":5032:5052   */\n      sub\n        /* \"#utility.yul\":5028:5029   */\n      0x00\n        /* \"#utility.yul\":5017:5026   */\n      dup4\n        /* \"#utility.yul\":5013:5030   */\n      add\n        /* \"#utility.yul\":5006:5053   */\n      mstore\n        /* \"#utility.yul\":5070:5201   */\n      tag_156\n        /* \"#utility.yul\":5196:5200   */\n      dup2\n        /* \"#utility.yul\":5070:5201   */\n      tag_90\n      jump\t// in\n    tag_156:\n        /* \"#utility.yul\":5062:5201   */\n      swap1\n      pop\n        /* \"#utility.yul\":4789:5208   */\n      swap2\n      swap1\n      pop\n      jump\t// out\n        /* \"#utility.yul\":5214:5332   */\n    tag_91:\n        /* \"#utility.yul\":5301:5325   */\n      tag_158\n        /* \"#utility.yul\":5319:5324   */\n      dup2\n        /* \"#utility.yul\":5301:5325   */\n      tag_79\n      jump\t// in\n    tag_158:\n        /* \"#utility.yul\":5296:5299   */\n      dup3\n        /* \"#utility.yul\":5289:5326   */\n      mstore\n        /* \"#utility.yul\":5214:5332   */\n      pop\n      pop\n      jump\t// out\n        /* \"#utility.yul\":5338:5670   */\n    tag_58:\n        /* \"#utility.yul\":5459:5463   */\n      0x00\n        /* \"#utility.yul\":5497:5499   */\n      0x40\n        /* \"#utility.yul\":5486:5495   */\n      dup3\n        /* \"#utility.yul\":5482:5500   */\n      add\n        /* \"#utility.yul\":5474:5500   */\n      swap1\n      pop\n        /* \"#utility.yul\":5510:5581   */\n      tag_160\n        /* \"#utility.yul\":5578:5579   */\n      0x00\n        /* \"#utility.yul\":5567:5576   */\n      dup4\n        /* \"#utility.yul\":5563:5580   */\n      add\n        /* \"#utility.yul\":5554:5560   */\n      dup6\n        /* \"#utility.yul\":5510:5581   */\n      tag_91\n      jump\t// in\n    tag_160:\n        /* \"#utility.yul\":5591:5663   */\n      tag_161\n        /* \"#utility.yul\":5659:5661   */\n      0x20\n        /* \"#utility.yul\":5648:5657   */\n      dup4\n        /* \"#utility.yul\":5644:5662   */\n      add\n        /* \"#utility.yul\":5635:5641   */\n      dup5\n        /* \"#utility.yul\":5591:5663   */\n      tag_74\n      jump\t// in\n    tag_161:\n        /* \"#utility.yul\":5338:5670   */\n      swap4\n      swap3\n      pop\n      pop\n      pop\n      jump\t// out\n        /* \"#utility.yul\":5676:5766   */\n    tag_92:\n        /* \"#utility.yul\":5710:5717   */\n      0x00\n        /* \"#utility.yul\":5753:5758   */\n      dup2\n        /* \"#utility.yul\":5746:5759   */\n      iszero\n        /* \"#utility.yul\":5739:5760   */\n      iszero\n        /* \"#utility.yul\":5728:5760   */\n      swap1\n      pop\n        /* \"#utility.yul\":5676:5766   */\n      swap2\n      swap1\n      pop\n      jump\t// out\n        /* \"#utility.yul\":5772:5888   */\n    tag_93:\n        /* \"#utility.yul\":5842:5863   */\n      tag_164\n        /* \"#utility.yul\":5857:5862   */\n      dup2\n        /* \"#utility.yul\":5842:5863   */\n      tag_92\n      jump\t// in\n    tag_164:\n        /* \"#utility.yul\":5835:5840   */\n      dup2\n        /* \"#utility.yul\":5832:5864   */\n      eq\n        /* \"#utility.yul\":5822:5882   */\n      tag_165\n      jumpi\n        /* \"#utility.yul\":5878:5879   */\n      0x00\n        /* \"#utility.yul\":5875:5876   */\n      dup1\n        /* \"#utility.yul\":5868:5880   */\n      revert\n        /* \"#utility.yul\":5822:5882   */\n    tag_165:\n        /* \"#utility.yul\":5772:5888   */\n      pop\n      jump\t// out\n        /* \"#utility.yul\":5894:6031   */\n    tag_94:\n        /* \"#utility.yul\":5948:5953   */\n      0x00\n        /* \"#utility.yul\":5979:5985   */\n      dup2\n        /* \"#utility.yul\":5973:5986   */\n      mload\n        /* \"#utility.yul\":5964:5986   */\n      swap1\n      pop\n        /* \"#utility.yul\":5995:6025   */\n      tag_167\n        /* \"#utility.yul\":6019:6024   */\n      dup2\n        /* \"#utility.yul\":5995:6025   */\n      tag_93\n      jump\t// in\n    tag_167:\n        /* \"#utility.yul\":5894:6031   */\n      swap3\n      swap2\n      pop\n      pop\n      jump\t// out\n        /* \"#utility.yul\":6037:6382   */\n    tag_62:\n        /* \"#utility.yul\":6104:6110   */\n      0x00\n        /* \"#utility.yul\":6153:6155   */\n      0x20\n        /* \"#utility.yul\":6141:6150   */\n      dup3\n        /* \"#utility.yul\":6132:6139   */\n      dup5\n        /* \"#utility.yul\":6128:6151   */\n      sub\n        /* \"#utility.yul\":6124:6156   */\n      slt\n        /* \"#utility.yul\":6121:6240   */\n      iszero\n      tag_169\n      jumpi\n        /* \"#utility.yul\":6159:6238   */\n      tag_170\n      tag_76\n      jump\t// in\n    tag_170:\n        /* \"#utility.yul\":6121:6240   */\n    tag_169:\n        /* \"#utility.yul\":6279:6280   */\n      0x00\n        /* \"#utility.yul\":6304:6365   */\n      tag_171\n        /* \"#utility.yul\":6357:6364   */\n      dup5\n        /* \"#utility.yul\":6348:6354   */\n      dup3\n        /* \"#utility.yul\":6337:6346   */\n      dup6\n        /* \"#utility.yul\":6333:6355   */\n      add\n        /* \"#utility.yul\":6304:6365   */\n      tag_94\n      jump\t// in\n    tag_171:\n        /* \"#utility.yul\":6294:6365   */\n      swap2\n      pop\n        /* \"#utility.yul\":6250:6375   */\n      pop\n        /* \"#utility.yul\":6037:6382   */\n      swap3\n      swap2\n      pop\n      pop\n      jump\t// out\n        /* \"#utility.yul\":6388:6448   */\n    tag_95:\n        /* \"#utility.yul\":6416:6419   */\n      0x00\n        /* \"#utility.yul\":6437:6442   */\n      dup2\n        /* \"#utility.yul\":6430:6442   */\n      swap1\n      pop\n        /* \"#utility.yul\":6388:6448   */\n      swap2\n      swap1\n      pop\n      jump\t// out\n        /* \"#utility.yul\":6454:6596   */\n    tag_96:\n        /* \"#utility.yul\":6504:6513   */\n      0x00\n        /* \"#utility.yul\":6537:6590   */\n      tag_174\n        /* \"#utility.yul\":6555:6589   */\n      tag_175\n        /* \"#utility.yul\":6564:6588   */\n      tag_176\n        /* \"#utility.yul\":6582:6587   */\n      dup5\n        /* \"#utility.yul\":6564:6588   */\n      tag_78\n      jump\t// in\n    tag_176:\n        /* \"#utility.yul\":6555:6589   */\n      tag_95\n      jump\t// in\n    tag_175:\n        /* \"#utility.yul\":6537:6590   */\n      tag_78\n      jump\t// in\n    tag_174:\n        /* \"#utility.yul\":6524:6590   */\n      swap1\n      pop\n        /* \"#utility.yul\":6454:6596   */\n      swap2\n      swap1\n      pop\n      jump\t// out\n        /* \"#utility.yul\":6602:6728   */\n    tag_97:\n        /* \"#utility.yul\":6652:6661   */\n      0x00\n        /* \"#utility.yul\":6685:6722   */\n      tag_178\n        /* \"#utility.yul\":6716:6721   */\n      dup3\n        /* \"#utility.yul\":6685:6722   */\n      tag_96\n      jump\t// in\n    tag_178:\n        /* \"#utility.yul\":6672:6722   */\n      swap1\n      pop\n        /* \"#utility.yul\":6602:6728   */\n      swap2\n      swap1\n      pop\n      jump\t// out\n        /* \"#utility.yul\":6734:6868   */\n    tag_98:\n        /* \"#utility.yul\":6792:6801   */\n      0x00\n        /* \"#utility.yul\":6825:6862   */\n      tag_180\n        /* \"#utility.yul\":6856:6861   */\n      dup3\n        /* \"#utility.yul\":6825:6862   */\n      tag_97\n      jump\t// in\n    tag_180:\n        /* \"#utility.yul\":6812:6862   */\n      swap1\n      pop\n        /* \"#utility.yul\":6734:6868   */\n      swap2\n      swap1\n      pop\n      jump\t// out\n        /* \"#utility.yul\":6874:7021   */\n    tag_99:\n        /* \"#utility.yul\":6969:7014   */\n      tag_182\n        /* \"#utility.yul\":7008:7013   */\n      dup2\n        /* \"#utility.yul\":6969:7014   */\n      tag_98\n      jump\t// in\n    tag_182:\n        /* \"#utility.yul\":6964:6967   */\n      dup3\n        /* \"#utility.yul\":6957:7015   */\n      mstore\n        /* \"#utility.yul\":6874:7021   */\n      pop\n      pop\n      jump\t// out\n        /* \"#utility.yul\":7027:7375   */\n    tag_69:\n        /* \"#utility.yul\":7156:7160   */\n      0x00\n        /* \"#utility.yul\":7194:7196   */\n      0x40\n        /* \"#utility.yul\":7183:7192   */\n      dup3\n        /* \"#utility.yul\":7179:7197   */\n      add\n        /* \"#utility.yul\":7171:7197   */\n      swap1\n      pop\n        /* \"#utility.yul\":7207:7286   */\n      tag_184\n        /* \"#utility.yul\":7283:7284   */\n      0x00\n        /* \"#utility.yul\":7272:7281   */\n      dup4\n        /* \"#utility.yul\":7268:7285   */\n      add\n        /* \"#utility.yul\":7259:7265   */\n      dup6\n        /* \"#utility.yul\":7207:7286   */\n      tag_99\n      jump\t// in\n    tag_184:\n        /* \"#utility.yul\":7296:7368   */\n      tag_185\n        /* \"#utility.yul\":7364:7366   */\n      0x20\n        /* \"#utility.yul\":7353:7362   */\n      dup4\n        /* \"#utility.yul\":7349:7367   */\n      add\n        /* \"#utility.yul\":7340:7346   */\n      dup5\n        /* \"#utility.yul\":7296:7368   */\n      tag_74\n      jump\t// in\n    tag_185:\n        /* \"#utility.yul\":7027:7375   */\n      swap4\n      swap3\n      pop\n      pop\n      pop\n      jump\t// out\n\n    auxdata: 0xa26469706673582212200eaaf96c8c822d706397803068ba86948653a4744e2c39d4bc28ba364fe176f064736f6c634300080f0033\n}\n",
				"bytecode": {
					"linkReferences": {},
					"object": "608060405233600260006101000a81548173ffffffffffffffffffffffffffffffffffffffff021916908373ffffffffffffffffffffffffffffffffffffffff1602179055503480156200005257600080fd5b5060405162001022380380620010228339818101604052810190620000789190620004bc565b600883111580156200008a5750815183145b8015620000975750805183145b15620001a05760005b838110156200019e57818181518110620000bf57620000be62000556565b5b6020026020010151600080858481518110620000e057620000df62000556565b5b602002602001015173ffffffffffffffffffffffffffffffffffffffff1673ffffffffffffffffffffffffffffffffffffffff1681526020019081526020016000208190555060006001600085848151811062000142576200014162000556565b5b602002602001015173ffffffffffffffffffffffffffffffffffffffff1673ffffffffffffffffffffffffffffffffffffffff1681526020019081526020016000208190555080806200019590620005b4565b915050620000a0565b505b50505062000601565b6000604051905090565b600080fd5b600080fd5b6000819050919050565b620001d281620001bd565b8114620001de57600080fd5b50565b600081519050620001f281620001c7565b92915050565b600080fd5b6000601f19601f8301169050919050565b7f4e487b7100000000000000000000000000000000000000000000000000000000600052604160045260246000fd5b6200024882620001fd565b810181811067ffffffffffffffff821117156200026a57620002696200020e565b5b80604052505050565b60006200027f620001a9565b90506200028d82826200023d565b919050565b600067ffffffffffffffff821115620002b057620002af6200020e565b5b602082029050602081019050919050565b600080fd5b600073ffffffffffffffffffffffffffffffffffffffff82169050919050565b6000620002f382620002c6565b9050919050565b60006200030782620002e6565b9050919050565b6200031981620002fa565b81146200032557600080fd5b50565b60008151905062000339816200030e565b92915050565b600062000356620003508462000292565b62000273565b905080838252602082019050602084028301858111156200037c576200037b620002c1565b5b835b81811015620003a9578062000394888262000328565b8452602084019350506020810190506200037e565b5050509392505050565b600082601f830112620003cb57620003ca620001f8565b5b8151620003dd8482602086016200033f565b91505092915050565b600067ffffffffffffffff8211156200040457620004036200020e565b5b602082029050602081019050919050565b60006200042c6200042684620003e6565b62000273565b90508083825260208201905060208402830185811115620004525762000451620002c1565b5b835b818110156200047f57806200046a8882620001e1565b84526020840193505060208101905062000454565b5050509392505050565b600082601f830112620004a157620004a0620001f8565b5b8151620004b384826020860162000415565b91505092915050565b600080600060608486031215620004d857620004d7620001b3565b5b6000620004e886828701620001e1565b935050602084015167ffffffffffffffff8111156200050c576200050b620001b8565b5b6200051a86828701620003b3565b925050604084015167ffffffffffffffff8111156200053e576200053d620001b8565b5b6200054c8682870162000489565b9150509250925092565b7f4e487b7100000000000000000000000000000000000000000000000000000000600052603260045260246000fd5b7f4e487b7100000000000000000000000000000000000000000000000000000000600052601160045260246000fd5b6000620005c182620001bd565b91507fffffffffffffffffffffffffffffffffffffffffffffffffffffffffffffffff8203620005f657620005f562000585565b5b600182019050919050565b610a1180620006116000396000f3fe60806040526004361061007b5760003560e01c80639e281a981161004e5780639e281a981461011b578063bea7e94914610144578063ee85c69114610181578063f5e72a37146101ac5761007b565b80630b7b1f9e146100805780631de3df2c146100ab57806354ad4179146100b55780636e3f4b3e146100de575b600080fd5b34801561008c57600080fd5b506100956101d7565b6040516100a291906105e6565b60405180910390f35b6100b36101dd565b005b3480156100c157600080fd5b506100dc60048036038101906100d791906106ce565b610218565b005b3480156100ea57600080fd5b5061010560048036038101906101009190610721565b6103c4565b60405161011291906105e6565b60405180910390f35b34801561012757600080fd5b50610142600480360381019061013d919061074e565b6103dc565b005b34801561015057600080fd5b5061016b60048036038101906101669190610721565b6105a9565b60405161017891906105e6565b60405180910390f35b34801561018d57600080fd5b506101966105c1565b6040516101a391906105e6565b60405180910390f35b3480156101b857600080fd5b506101c16105c7565b6040516101ce91906105e6565b60405180910390f35b60045481565b3460038190555034600560008282546101f691906107bd565b92505081905550346004600082825461020f91906107bd565b92505081905550565b600260009054906101000a900473ffffffffffffffffffffffffffffffffffffffff1673ffffffffffffffffffffffffffffffffffffffff163373ffffffffffffffffffffffffffffffffffffffff16146102a8576040517f08c379a000000000000000000000000000000000000000000000000000000000815260040161029f90610896565b60405180910390fd5b6000600160008573ffffffffffffffffffffffffffffffffffffffff1673ffffffffffffffffffffffffffffffffffffffff16815260200190815260200160002054116102f457600080fd5b81600160008573ffffffffffffffffffffffffffffffffffffffff1673ffffffffffffffffffffffffffffffffffffffff16815260200190815260200160002054101561034057600080fd5b8273ffffffffffffffffffffffffffffffffffffffff1663a9059cbb82846040518363ffffffff1660e01b815260040161037b9291906108c5565b6020604051808303816000875af115801561039a573d6000803e3d6000fd5b505050506040513d601f19601f820116820180604052508101906103be9190610926565b50505050565b60016020528060005260406000206000915090505481565b600260009054906101000a900473ffffffffffffffffffffffffffffffffffffffff1673ffffffffffffffffffffffffffffffffffffffff163373ffffffffffffffffffffffffffffffffffffffff161461046c576040517f08c379a000000000000000000000000000000000000000000000000000000000815260040161046390610896565b60405180910390fd5b6000600160008473ffffffffffffffffffffffffffffffffffffffff1673ffffffffffffffffffffffffffffffffffffffff16815260200190815260200160002054116104b857600080fd5b80600160008473ffffffffffffffffffffffffffffffffffffffff1673ffffffffffffffffffffffffffffffffffffffff16815260200190815260200160002054101561050457600080fd5b8173ffffffffffffffffffffffffffffffffffffffff1663a9059cbb600260009054906101000a900473ffffffffffffffffffffffffffffffffffffffff16836040518363ffffffff1660e01b81526004016105619291906109b2565b6020604051808303816000875af1158015610580573d6000803e3d6000fd5b505050506040513d601f19601f820116820180604052508101906105a49190610926565b505050565b60006020528060005260406000206000915090505481565b60035481565b60055481565b6000819050919050565b6105e0816105cd565b82525050565b60006020820190506105fb60008301846105d7565b92915050565b600080fd5b600073ffffffffffffffffffffffffffffffffffffffff82169050919050565b600061063182610606565b9050919050565b600061064382610626565b9050919050565b61065381610638565b811461065e57600080fd5b50565b6000813590506106708161064a565b92915050565b61067f816105cd565b811461068a57600080fd5b50565b60008135905061069c81610676565b92915050565b6106ab81610626565b81146106b657600080fd5b50565b6000813590506106c8816106a2565b92915050565b6000806000606084860312156106e7576106e6610601565b5b60006106f586828701610661565b93505060206107068682870161068d565b9250506040610717868287016106b9565b9150509250925092565b60006020828403121561073757610736610601565b5b600061074584828501610661565b91505092915050565b6000806040838503121561076557610764610601565b5b600061077385828601610661565b92505060206107848582860161068d565b9150509250929050565b7f4e487b7100000000000000000000000000000000000000000000000000000000600052601160045260246000fd5b60006107c8826105cd565b91506107d3836105cd565b9250827fffffffffffffffffffffffffffffffffffffffffffffffffffffffffffffffff038211156108085761080761078e565b5b828201905092915050565b600082825260208201905092915050565b7f596f7520617265206e6f7420746865206f776e6572206f66207468652076617560008201527f6c74000000000000000000000000000000000000000000000000000000000000602082015250565b6000610880602283610813565b915061088b82610824565b604082019050919050565b600060208201905081810360008301526108af81610873565b9050919050565b6108bf81610626565b82525050565b60006040820190506108da60008301856108b6565b6108e760208301846105d7565b9392505050565b60008115159050919050565b610903816108ee565b811461090e57600080fd5b50565b600081519050610920816108fa565b92915050565b60006020828403121561093c5761093b610601565b5b600061094a84828501610911565b91505092915050565b6000819050919050565b600061097861097361096e84610606565b610953565b610606565b9050919050565b600061098a8261095d565b9050919050565b600061099c8261097f565b9050919050565b6109ac81610991565b82525050565b60006040820190506109c760008301856109a3565b6109d460208301846105d7565b939250505056fea26469706673582212200eaaf96c8c822d706397803068ba86948653a4744e2c39d4bc28ba364fe176f064736f6c634300080f0033",
					"opcodes": "PUSH1 0x80 PUSH1 0x40 MSTORE CALLER PUSH1 0x2 PUSH1 0x0 PUSH2 0x100 EXP DUP2 SLOAD DUP2 PUSH20 0xFFFFFFFFFFFFFFFFFFFFFFFFFFFFFFFFFFFFFFFF MUL NOT AND SWAP1 DUP4 PUSH20 0xFFFFFFFFFFFFFFFFFFFFFFFFFFFFFFFFFFFFFFFF AND MUL OR SWAP1 SSTORE POP CALLVALUE DUP1 ISZERO PUSH3 0x52 JUMPI PUSH1 0x0 DUP1 REVERT JUMPDEST POP PUSH1 0x40 MLOAD PUSH3 0x1022 CODESIZE SUB DUP1 PUSH3 0x1022 DUP4 CODECOPY DUP2 DUP2 ADD PUSH1 0x40 MSTORE DUP2 ADD SWAP1 PUSH3 0x78 SWAP2 SWAP1 PUSH3 0x4BC JUMP JUMPDEST PUSH1 0x8 DUP4 GT ISZERO DUP1 ISZERO PUSH3 0x8A JUMPI POP DUP2 MLOAD DUP4 EQ JUMPDEST DUP1 ISZERO PUSH3 0x97 JUMPI POP DUP1 MLOAD DUP4 EQ JUMPDEST ISZERO PUSH3 0x1A0 JUMPI PUSH1 0x0 JUMPDEST DUP4 DUP2 LT ISZERO PUSH3 0x19E JUMPI DUP2 DUP2 DUP2 MLOAD DUP2 LT PUSH3 0xBF JUMPI PUSH3 0xBE PUSH3 0x556 JUMP JUMPDEST JUMPDEST PUSH1 0x20 MUL PUSH1 0x20 ADD ADD MLOAD PUSH1 0x0 DUP1 DUP6 DUP5 DUP2 MLOAD DUP2 LT PUSH3 0xE0 JUMPI PUSH3 0xDF PUSH3 0x556 JUMP JUMPDEST JUMPDEST PUSH1 0x20 MUL PUSH1 0x20 ADD ADD MLOAD PUSH20 0xFFFFFFFFFFFFFFFFFFFFFFFFFFFFFFFFFFFFFFFF AND PUSH20 0xFFFFFFFFFFFFFFFFFFFFFFFFFFFFFFFFFFFFFFFF AND DUP2 MSTORE PUSH1 0x20 ADD SWAP1 DUP2 MSTORE PUSH1 0x20 ADD PUSH1 0x0 KECCAK256 DUP2 SWAP1 SSTORE POP PUSH1 0x0 PUSH1 0x1 PUSH1 0x0 DUP6 DUP5 DUP2 MLOAD DUP2 LT PUSH3 0x142 JUMPI PUSH3 0x141 PUSH3 0x556 JUMP JUMPDEST JUMPDEST PUSH1 0x20 MUL PUSH1 0x20 ADD ADD MLOAD PUSH20 0xFFFFFFFFFFFFFFFFFFFFFFFFFFFFFFFFFFFFFFFF AND PUSH20 0xFFFFFFFFFFFFFFFFFFFFFFFFFFFFFFFFFFFFFFFF AND DUP2 MSTORE PUSH1 0x20 ADD SWAP1 DUP2 MSTORE PUSH1 0x20 ADD PUSH1 0x0 KECCAK256 DUP2 SWAP1 SSTORE POP DUP1 DUP1 PUSH3 0x195 SWAP1 PUSH3 0x5B4 JUMP JUMPDEST SWAP2 POP POP PUSH3 0xA0 JUMP JUMPDEST POP JUMPDEST POP POP POP PUSH3 0x601 JUMP JUMPDEST PUSH1 0x0 PUSH1 0x40 MLOAD SWAP1 POP SWAP1 JUMP JUMPDEST PUSH1 0x0 DUP1 REVERT JUMPDEST PUSH1 0x0 DUP1 REVERT JUMPDEST PUSH1 0x0 DUP2 SWAP1 POP SWAP2 SWAP1 POP JUMP JUMPDEST PUSH3 0x1D2 DUP2 PUSH3 0x1BD JUMP JUMPDEST DUP2 EQ PUSH3 0x1DE JUMPI PUSH1 0x0 DUP1 REVERT JUMPDEST POP JUMP JUMPDEST PUSH1 0x0 DUP2 MLOAD SWAP1 POP PUSH3 0x1F2 DUP2 PUSH3 0x1C7 JUMP JUMPDEST SWAP3 SWAP2 POP POP JUMP JUMPDEST PUSH1 0x0 DUP1 REVERT JUMPDEST PUSH1 0x0 PUSH1 0x1F NOT PUSH1 0x1F DUP4 ADD AND SWAP1 POP SWAP2 SWAP1 POP JUMP JUMPDEST PUSH32 0x4E487B7100000000000000000000000000000000000000000000000000000000 PUSH1 0x0 MSTORE PUSH1 0x41 PUSH1 0x4 MSTORE PUSH1 0x24 PUSH1 0x0 REVERT JUMPDEST PUSH3 0x248 DUP3 PUSH3 0x1FD JUMP JUMPDEST DUP2 ADD DUP2 DUP2 LT PUSH8 0xFFFFFFFFFFFFFFFF DUP3 GT OR ISZERO PUSH3 0x26A JUMPI PUSH3 0x269 PUSH3 0x20E JUMP JUMPDEST JUMPDEST DUP1 PUSH1 0x40 MSTORE POP POP POP JUMP JUMPDEST PUSH1 0x0 PUSH3 0x27F PUSH3 0x1A9 JUMP JUMPDEST SWAP1 POP PUSH3 0x28D DUP3 DUP3 PUSH3 0x23D JUMP JUMPDEST SWAP2 SWAP1 POP JUMP JUMPDEST PUSH1 0x0 PUSH8 0xFFFFFFFFFFFFFFFF DUP3 GT ISZERO PUSH3 0x2B0 JUMPI PUSH3 0x2AF PUSH3 0x20E JUMP JUMPDEST JUMPDEST PUSH1 0x20 DUP3 MUL SWAP1 POP PUSH1 0x20 DUP2 ADD SWAP1 POP SWAP2 SWAP1 POP JUMP JUMPDEST PUSH1 0x0 DUP1 REVERT JUMPDEST PUSH1 0x0 PUSH20 0xFFFFFFFFFFFFFFFFFFFFFFFFFFFFFFFFFFFFFFFF DUP3 AND SWAP1 POP SWAP2 SWAP1 POP JUMP JUMPDEST PUSH1 0x0 PUSH3 0x2F3 DUP3 PUSH3 0x2C6 JUMP JUMPDEST SWAP1 POP SWAP2 SWAP1 POP JUMP JUMPDEST PUSH1 0x0 PUSH3 0x307 DUP3 PUSH3 0x2E6 JUMP JUMPDEST SWAP1 POP SWAP2 SWAP1 POP JUMP JUMPDEST PUSH3 0x319 DUP2 PUSH3 0x2FA JUMP JUMPDEST DUP2 EQ PUSH3 0x325 JUMPI PUSH1 0x0 DUP1 REVERT JUMPDEST POP JUMP JUMPDEST PUSH1 0x0 DUP2 MLOAD SWAP1 POP PUSH3 0x339 DUP2 PUSH3 0x30E JUMP JUMPDEST SWAP3 SWAP2 POP POP JUMP JUMPDEST PUSH1 0x0 PUSH3 0x356 PUSH3 0x350 DUP5 PUSH3 0x292 JUMP JUMPDEST PUSH3 0x273 JUMP JUMPDEST SWAP1 POP DUP1 DUP4 DUP3 MSTORE PUSH1 0x20 DUP3 ADD SWAP1 POP PUSH1 0x20 DUP5 MUL DUP4 ADD DUP6 DUP2 GT ISZERO PUSH3 0x37C JUMPI PUSH3 0x37B PUSH3 0x2C1 JUMP JUMPDEST JUMPDEST DUP4 JUMPDEST DUP2 DUP2 LT ISZERO PUSH3 0x3A9 JUMPI DUP1 PUSH3 0x394 DUP9 DUP3 PUSH3 0x328 JUMP JUMPDEST DUP5 MSTORE PUSH1 0x20 DUP5 ADD SWAP4 POP POP PUSH1 0x20 DUP2 ADD SWAP1 POP PUSH3 0x37E JUMP JUMPDEST POP POP POP SWAP4 SWAP3 POP POP POP JUMP JUMPDEST PUSH1 0x0 DUP3 PUSH1 0x1F DUP4 ADD SLT PUSH3 0x3CB JUMPI PUSH3 0x3CA PUSH3 0x1F8 JUMP JUMPDEST JUMPDEST DUP2 MLOAD PUSH3 0x3DD DUP5 DUP3 PUSH1 0x20 DUP7 ADD PUSH3 0x33F JUMP JUMPDEST SWAP2 POP POP SWAP3 SWAP2 POP POP JUMP JUMPDEST PUSH1 0x0 PUSH8 0xFFFFFFFFFFFFFFFF DUP3 GT ISZERO PUSH3 0x404 JUMPI PUSH3 0x403 PUSH3 0x20E JUMP JUMPDEST JUMPDEST PUSH1 0x20 DUP3 MUL SWAP1 POP PUSH1 0x20 DUP2 ADD SWAP1 POP SWAP2 SWAP1 POP JUMP JUMPDEST PUSH1 0x0 PUSH3 0x42C PUSH3 0x426 DUP5 PUSH3 0x3E6 JUMP JUMPDEST PUSH3 0x273 JUMP JUMPDEST SWAP1 POP DUP1 DUP4 DUP3 MSTORE PUSH1 0x20 DUP3 ADD SWAP1 POP PUSH1 0x20 DUP5 MUL DUP4 ADD DUP6 DUP2 GT ISZERO PUSH3 0x452 JUMPI PUSH3 0x451 PUSH3 0x2C1 JUMP JUMPDEST JUMPDEST DUP4 JUMPDEST DUP2 DUP2 LT ISZERO PUSH3 0x47F JUMPI DUP1 PUSH3 0x46A DUP9 DUP3 PUSH3 0x1E1 JUMP JUMPDEST DUP5 MSTORE PUSH1 0x20 DUP5 ADD SWAP4 POP POP PUSH1 0x20 DUP2 ADD SWAP1 POP PUSH3 0x454 JUMP JUMPDEST POP POP POP SWAP4 SWAP3 POP POP POP JUMP JUMPDEST PUSH1 0x0 DUP3 PUSH1 0x1F DUP4 ADD SLT PUSH3 0x4A1 JUMPI PUSH3 0x4A0 PUSH3 0x1F8 JUMP JUMPDEST JUMPDEST DUP2 MLOAD PUSH3 0x4B3 DUP5 DUP3 PUSH1 0x20 DUP7 ADD PUSH3 0x415 JUMP JUMPDEST SWAP2 POP POP SWAP3 SWAP2 POP POP JUMP JUMPDEST PUSH1 0x0 DUP1 PUSH1 0x0 PUSH1 0x60 DUP5 DUP7 SUB SLT ISZERO PUSH3 0x4D8 JUMPI PUSH3 0x4D7 PUSH3 0x1B3 JUMP JUMPDEST JUMPDEST PUSH1 0x0 PUSH3 0x4E8 DUP7 DUP3 DUP8 ADD PUSH3 0x1E1 JUMP JUMPDEST SWAP4 POP POP PUSH1 0x20 DUP5 ADD MLOAD PUSH8 0xFFFFFFFFFFFFFFFF DUP2 GT ISZERO PUSH3 0x50C JUMPI PUSH3 0x50B PUSH3 0x1B8 JUMP JUMPDEST JUMPDEST PUSH3 0x51A DUP7 DUP3 DUP8 ADD PUSH3 0x3B3 JUMP JUMPDEST SWAP3 POP POP PUSH1 0x40 DUP5 ADD MLOAD PUSH8 0xFFFFFFFFFFFFFFFF DUP2 GT ISZERO PUSH3 0x53E JUMPI PUSH3 0x53D PUSH3 0x1B8 JUMP JUMPDEST JUMPDEST PUSH3 0x54C DUP7 DUP3 DUP8 ADD PUSH3 0x489 JUMP JUMPDEST SWAP2 POP POP SWAP3 POP SWAP3 POP SWAP3 JUMP JUMPDEST PUSH32 0x4E487B7100000000000000000000000000000000000000000000000000000000 PUSH1 0x0 MSTORE PUSH1 0x32 PUSH1 0x4 MSTORE PUSH1 0x24 PUSH1 0x0 REVERT JUMPDEST PUSH32 0x4E487B7100000000000000000000000000000000000000000000000000000000 PUSH1 0x0 MSTORE PUSH1 0x11 PUSH1 0x4 MSTORE PUSH1 0x24 PUSH1 0x0 REVERT JUMPDEST PUSH1 0x0 PUSH3 0x5C1 DUP3 PUSH3 0x1BD JUMP JUMPDEST SWAP2 POP PUSH32 0xFFFFFFFFFFFFFFFFFFFFFFFFFFFFFFFFFFFFFFFFFFFFFFFFFFFFFFFFFFFFFFFF DUP3 SUB PUSH3 0x5F6 JUMPI PUSH3 0x5F5 PUSH3 0x585 JUMP JUMPDEST JUMPDEST PUSH1 0x1 DUP3 ADD SWAP1 POP SWAP2 SWAP1 POP JUMP JUMPDEST PUSH2 0xA11 DUP1 PUSH3 0x611 PUSH1 0x0 CODECOPY PUSH1 0x0 RETURN INVALID PUSH1 0x80 PUSH1 0x40 MSTORE PUSH1 0x4 CALLDATASIZE LT PUSH2 0x7B JUMPI PUSH1 0x0 CALLDATALOAD PUSH1 0xE0 SHR DUP1 PUSH4 0x9E281A98 GT PUSH2 0x4E JUMPI DUP1 PUSH4 0x9E281A98 EQ PUSH2 0x11B JUMPI DUP1 PUSH4 0xBEA7E949 EQ PUSH2 0x144 JUMPI DUP1 PUSH4 0xEE85C691 EQ PUSH2 0x181 JUMPI DUP1 PUSH4 0xF5E72A37 EQ PUSH2 0x1AC JUMPI PUSH2 0x7B JUMP JUMPDEST DUP1 PUSH4 0xB7B1F9E EQ PUSH2 0x80 JUMPI DUP1 PUSH4 0x1DE3DF2C EQ PUSH2 0xAB JUMPI DUP1 PUSH4 0x54AD4179 EQ PUSH2 0xB5 JUMPI DUP1 PUSH4 0x6E3F4B3E EQ PUSH2 0xDE JUMPI JUMPDEST PUSH1 0x0 DUP1 REVERT JUMPDEST CALLVALUE DUP1 ISZERO PUSH2 0x8C JUMPI PUSH1 0x0 DUP1 REVERT JUMPDEST POP PUSH2 0x95 PUSH2 0x1D7 JUMP JUMPDEST PUSH1 0x40 MLOAD PUSH2 0xA2 SWAP2 SWAP1 PUSH2 0x5E6 JUMP JUMPDEST PUSH1 0x40 MLOAD DUP1 SWAP2 SUB SWAP1 RETURN JUMPDEST PUSH2 0xB3 PUSH2 0x1DD JUMP JUMPDEST STOP JUMPDEST CALLVALUE DUP1 ISZERO PUSH2 0xC1 JUMPI PUSH1 0x0 DUP1 REVERT JUMPDEST POP PUSH2 0xDC PUSH1 0x4 DUP1 CALLDATASIZE SUB DUP2 ADD SWAP1 PUSH2 0xD7 SWAP2 SWAP1 PUSH2 0x6CE JUMP JUMPDEST PUSH2 0x218 JUMP JUMPDEST STOP JUMPDEST CALLVALUE DUP1 ISZERO PUSH2 0xEA JUMPI PUSH1 0x0 DUP1 REVERT JUMPDEST POP PUSH2 0x105 PUSH1 0x4 DUP1 CALLDATASIZE SUB DUP2 ADD SWAP1 PUSH2 0x100 SWAP2 SWAP1 PUSH2 0x721 JUMP JUMPDEST PUSH2 0x3C4 JUMP JUMPDEST PUSH1 0x40 MLOAD PUSH2 0x112 SWAP2 SWAP1 PUSH2 0x5E6 JUMP JUMPDEST PUSH1 0x40 MLOAD DUP1 SWAP2 SUB SWAP1 RETURN JUMPDEST CALLVALUE DUP1 ISZERO PUSH2 0x127 JUMPI PUSH1 0x0 DUP1 REVERT JUMPDEST POP PUSH2 0x142 PUSH1 0x4 DUP1 CALLDATASIZE SUB DUP2 ADD SWAP1 PUSH2 0x13D SWAP2 SWAP1 PUSH2 0x74E JUMP JUMPDEST PUSH2 0x3DC JUMP JUMPDEST STOP JUMPDEST CALLVALUE DUP1 ISZERO PUSH2 0x150 JUMPI PUSH1 0x0 DUP1 REVERT JUMPDEST POP PUSH2 0x16B PUSH1 0x4 DUP1 CALLDATASIZE SUB DUP2 ADD SWAP1 PUSH2 0x166 SWAP2 SWAP1 PUSH2 0x721 JUMP JUMPDEST PUSH2 0x5A9 JUMP JUMPDEST PUSH1 0x40 MLOAD PUSH2 0x178 SWAP2 SWAP1 PUSH2 0x5E6 JUMP JUMPDEST PUSH1 0x40 MLOAD DUP1 SWAP2 SUB SWAP1 RETURN JUMPDEST CALLVALUE DUP1 ISZERO PUSH2 0x18D JUMPI PUSH1 0x0 DUP1 REVERT JUMPDEST POP PUSH2 0x196 PUSH2 0x5C1 JUMP JUMPDEST PUSH1 0x40 MLOAD PUSH2 0x1A3 SWAP2 SWAP1 PUSH2 0x5E6 JUMP JUMPDEST PUSH1 0x40 MLOAD DUP1 SWAP2 SUB SWAP1 RETURN JUMPDEST CALLVALUE DUP1 ISZERO PUSH2 0x1B8 JUMPI PUSH1 0x0 DUP1 REVERT JUMPDEST POP PUSH2 0x1C1 PUSH2 0x5C7 JUMP JUMPDEST PUSH1 0x40 MLOAD PUSH2 0x1CE SWAP2 SWAP1 PUSH2 0x5E6 JUMP JUMPDEST PUSH1 0x40 MLOAD DUP1 SWAP2 SUB SWAP1 RETURN JUMPDEST PUSH1 0x4 SLOAD DUP2 JUMP JUMPDEST CALLVALUE PUSH1 0x3 DUP2 SWAP1 SSTORE POP CALLVALUE PUSH1 0x5 PUSH1 0x0 DUP3 DUP3 SLOAD PUSH2 0x1F6 SWAP2 SWAP1 PUSH2 0x7BD JUMP JUMPDEST SWAP3 POP POP DUP2 SWAP1 SSTORE POP CALLVALUE PUSH1 0x4 PUSH1 0x0 DUP3 DUP3 SLOAD PUSH2 0x20F SWAP2 SWAP1 PUSH2 0x7BD JUMP JUMPDEST SWAP3 POP POP DUP2 SWAP1 SSTORE POP JUMP JUMPDEST PUSH1 0x2 PUSH1 0x0 SWAP1 SLOAD SWAP1 PUSH2 0x100 EXP SWAP1 DIV PUSH20 0xFFFFFFFFFFFFFFFFFFFFFFFFFFFFFFFFFFFFFFFF AND PUSH20 0xFFFFFFFFFFFFFFFFFFFFFFFFFFFFFFFFFFFFFFFF AND CALLER PUSH20 0xFFFFFFFFFFFFFFFFFFFFFFFFFFFFFFFFFFFFFFFF AND EQ PUSH2 0x2A8 JUMPI PUSH1 0x40 MLOAD PUSH32 0x8C379A000000000000000000000000000000000000000000000000000000000 DUP2 MSTORE PUSH1 0x4 ADD PUSH2 0x29F SWAP1 PUSH2 0x896 JUMP JUMPDEST PUSH1 0x40 MLOAD DUP1 SWAP2 SUB SWAP1 REVERT JUMPDEST PUSH1 0x0 PUSH1 0x1 PUSH1 0x0 DUP6 PUSH20 0xFFFFFFFFFFFFFFFFFFFFFFFFFFFFFFFFFFFFFFFF AND PUSH20 0xFFFFFFFFFFFFFFFFFFFFFFFFFFFFFFFFFFFFFFFF AND DUP2 MSTORE PUSH1 0x20 ADD SWAP1 DUP2 MSTORE PUSH1 0x20 ADD PUSH1 0x0 KECCAK256 SLOAD GT PUSH2 0x2F4 JUMPI PUSH1 0x0 DUP1 REVERT JUMPDEST DUP2 PUSH1 0x1 PUSH1 0x0 DUP6 PUSH20 0xFFFFFFFFFFFFFFFFFFFFFFFFFFFFFFFFFFFFFFFF AND PUSH20 0xFFFFFFFFFFFFFFFFFFFFFFFFFFFFFFFFFFFFFFFF AND DUP2 MSTORE PUSH1 0x20 ADD SWAP1 DUP2 MSTORE PUSH1 0x20 ADD PUSH1 0x0 KECCAK256 SLOAD LT ISZERO PUSH2 0x340 JUMPI PUSH1 0x0 DUP1 REVERT JUMPDEST DUP3 PUSH20 0xFFFFFFFFFFFFFFFFFFFFFFFFFFFFFFFFFFFFFFFF AND PUSH4 0xA9059CBB DUP3 DUP5 PUSH1 0x40 MLOAD DUP4 PUSH4 0xFFFFFFFF AND PUSH1 0xE0 SHL DUP2 MSTORE PUSH1 0x4 ADD PUSH2 0x37B SWAP3 SWAP2 SWAP1 PUSH2 0x8C5 JUMP JUMPDEST PUSH1 0x20 PUSH1 0x40 MLOAD DUP1 DUP4 SUB DUP2 PUSH1 0x0 DUP8 GAS CALL ISZERO DUP1 ISZERO PUSH2 0x39A JUMPI RETURNDATASIZE PUSH1 0x0 DUP1 RETURNDATACOPY RETURNDATASIZE PUSH1 0x0 REVERT JUMPDEST POP POP POP POP PUSH1 0x40 MLOAD RETURNDATASIZE PUSH1 0x1F NOT PUSH1 0x1F DUP3 ADD AND DUP3 ADD DUP1 PUSH1 0x40 MSTORE POP DUP2 ADD SWAP1 PUSH2 0x3BE SWAP2 SWAP1 PUSH2 0x926 JUMP JUMPDEST POP POP POP POP JUMP JUMPDEST PUSH1 0x1 PUSH1 0x20 MSTORE DUP1 PUSH1 0x0 MSTORE PUSH1 0x40 PUSH1 0x0 KECCAK256 PUSH1 0x0 SWAP2 POP SWAP1 POP SLOAD DUP2 JUMP JUMPDEST PUSH1 0x2 PUSH1 0x0 SWAP1 SLOAD SWAP1 PUSH2 0x100 EXP SWAP1 DIV PUSH20 0xFFFFFFFFFFFFFFFFFFFFFFFFFFFFFFFFFFFFFFFF AND PUSH20 0xFFFFFFFFFFFFFFFFFFFFFFFFFFFFFFFFFFFFFFFF AND CALLER PUSH20 0xFFFFFFFFFFFFFFFFFFFFFFFFFFFFFFFFFFFFFFFF AND EQ PUSH2 0x46C JUMPI PUSH1 0x40 MLOAD PUSH32 0x8C379A000000000000000000000000000000000000000000000000000000000 DUP2 MSTORE PUSH1 0x4 ADD PUSH2 0x463 SWAP1 PUSH2 0x896 JUMP JUMPDEST PUSH1 0x40 MLOAD DUP1 SWAP2 SUB SWAP1 REVERT JUMPDEST PUSH1 0x0 PUSH1 0x1 PUSH1 0x0 DUP5 PUSH20 0xFFFFFFFFFFFFFFFFFFFFFFFFFFFFFFFFFFFFFFFF AND PUSH20 0xFFFFFFFFFFFFFFFFFFFFFFFFFFFFFFFFFFFFFFFF AND DUP2 MSTORE PUSH1 0x20 ADD SWAP1 DUP2 MSTORE PUSH1 0x20 ADD PUSH1 0x0 KECCAK256 SLOAD GT PUSH2 0x4B8 JUMPI PUSH1 0x0 DUP1 REVERT JUMPDEST DUP1 PUSH1 0x1 PUSH1 0x0 DUP5 PUSH20 0xFFFFFFFFFFFFFFFFFFFFFFFFFFFFFFFFFFFFFFFF AND PUSH20 0xFFFFFFFFFFFFFFFFFFFFFFFFFFFFFFFFFFFFFFFF AND DUP2 MSTORE PUSH1 0x20 ADD SWAP1 DUP2 MSTORE PUSH1 0x20 ADD PUSH1 0x0 KECCAK256 SLOAD LT ISZERO PUSH2 0x504 JUMPI PUSH1 0x0 DUP1 REVERT JUMPDEST DUP2 PUSH20 0xFFFFFFFFFFFFFFFFFFFFFFFFFFFFFFFFFFFFFFFF AND PUSH4 0xA9059CBB PUSH1 0x2 PUSH1 0x0 SWAP1 SLOAD SWAP1 PUSH2 0x100 EXP SWAP1 DIV PUSH20 0xFFFFFFFFFFFFFFFFFFFFFFFFFFFFFFFFFFFFFFFF AND DUP4 PUSH1 0x40 MLOAD DUP4 PUSH4 0xFFFFFFFF AND PUSH1 0xE0 SHL DUP2 MSTORE PUSH1 0x4 ADD PUSH2 0x561 SWAP3 SWAP2 SWAP1 PUSH2 0x9B2 JUMP JUMPDEST PUSH1 0x20 PUSH1 0x40 MLOAD DUP1 DUP4 SUB DUP2 PUSH1 0x0 DUP8 GAS CALL ISZERO DUP1 ISZERO PUSH2 0x580 JUMPI RETURNDATASIZE PUSH1 0x0 DUP1 RETURNDATACOPY RETURNDATASIZE PUSH1 0x0 REVERT JUMPDEST POP POP POP POP PUSH1 0x40 MLOAD RETURNDATASIZE PUSH1 0x1F NOT PUSH1 0x1F DUP3 ADD AND DUP3 ADD DUP1 PUSH1 0x40 MSTORE POP DUP2 ADD SWAP1 PUSH2 0x5A4 SWAP2 SWAP1 PUSH2 0x926 JUMP JUMPDEST POP POP POP JUMP JUMPDEST PUSH1 0x0 PUSH1 0x20 MSTORE DUP1 PUSH1 0x0 MSTORE PUSH1 0x40 PUSH1 0x0 KECCAK256 PUSH1 0x0 SWAP2 POP SWAP1 POP SLOAD DUP2 JUMP JUMPDEST PUSH1 0x3 SLOAD DUP2 JUMP JUMPDEST PUSH1 0x5 SLOAD DUP2 JUMP JUMPDEST PUSH1 0x0 DUP2 SWAP1 POP SWAP2 SWAP1 POP JUMP JUMPDEST PUSH2 0x5E0 DUP2 PUSH2 0x5CD JUMP JUMPDEST DUP3 MSTORE POP POP JUMP JUMPDEST PUSH1 0x0 PUSH1 0x20 DUP3 ADD SWAP1 POP PUSH2 0x5FB PUSH1 0x0 DUP4 ADD DUP5 PUSH2 0x5D7 JUMP JUMPDEST SWAP3 SWAP2 POP POP JUMP JUMPDEST PUSH1 0x0 DUP1 REVERT JUMPDEST PUSH1 0x0 PUSH20 0xFFFFFFFFFFFFFFFFFFFFFFFFFFFFFFFFFFFFFFFF DUP3 AND SWAP1 POP SWAP2 SWAP1 POP JUMP JUMPDEST PUSH1 0x0 PUSH2 0x631 DUP3 PUSH2 0x606 JUMP JUMPDEST SWAP1 POP SWAP2 SWAP1 POP JUMP JUMPDEST PUSH1 0x0 PUSH2 0x643 DUP3 PUSH2 0x626 JUMP JUMPDEST SWAP1 POP SWAP2 SWAP1 POP JUMP JUMPDEST PUSH2 0x653 DUP2 PUSH2 0x638 JUMP JUMPDEST DUP2 EQ PUSH2 0x65E JUMPI PUSH1 0x0 DUP1 REVERT JUMPDEST POP JUMP JUMPDEST PUSH1 0x0 DUP2 CALLDATALOAD SWAP1 POP PUSH2 0x670 DUP2 PUSH2 0x64A JUMP JUMPDEST SWAP3 SWAP2 POP POP JUMP JUMPDEST PUSH2 0x67F DUP2 PUSH2 0x5CD JUMP JUMPDEST DUP2 EQ PUSH2 0x68A JUMPI PUSH1 0x0 DUP1 REVERT JUMPDEST POP JUMP JUMPDEST PUSH1 0x0 DUP2 CALLDATALOAD SWAP1 POP PUSH2 0x69C DUP2 PUSH2 0x676 JUMP JUMPDEST SWAP3 SWAP2 POP POP JUMP JUMPDEST PUSH2 0x6AB DUP2 PUSH2 0x626 JUMP JUMPDEST DUP2 EQ PUSH2 0x6B6 JUMPI PUSH1 0x0 DUP1 REVERT JUMPDEST POP JUMP JUMPDEST PUSH1 0x0 DUP2 CALLDATALOAD SWAP1 POP PUSH2 0x6C8 DUP2 PUSH2 0x6A2 JUMP JUMPDEST SWAP3 SWAP2 POP POP JUMP JUMPDEST PUSH1 0x0 DUP1 PUSH1 0x0 PUSH1 0x60 DUP5 DUP7 SUB SLT ISZERO PUSH2 0x6E7 JUMPI PUSH2 0x6E6 PUSH2 0x601 JUMP JUMPDEST JUMPDEST PUSH1 0x0 PUSH2 0x6F5 DUP7 DUP3 DUP8 ADD PUSH2 0x661 JUMP JUMPDEST SWAP4 POP POP PUSH1 0x20 PUSH2 0x706 DUP7 DUP3 DUP8 ADD PUSH2 0x68D JUMP JUMPDEST SWAP3 POP POP PUSH1 0x40 PUSH2 0x717 DUP7 DUP3 DUP8 ADD PUSH2 0x6B9 JUMP JUMPDEST SWAP2 POP POP SWAP3 POP SWAP3 POP SWAP3 JUMP JUMPDEST PUSH1 0x0 PUSH1 0x20 DUP3 DUP5 SUB SLT ISZERO PUSH2 0x737 JUMPI PUSH2 0x736 PUSH2 0x601 JUMP JUMPDEST JUMPDEST PUSH1 0x0 PUSH2 0x745 DUP5 DUP3 DUP6 ADD PUSH2 0x661 JUMP JUMPDEST SWAP2 POP POP SWAP3 SWAP2 POP POP JUMP JUMPDEST PUSH1 0x0 DUP1 PUSH1 0x40 DUP4 DUP6 SUB SLT ISZERO PUSH2 0x765 JUMPI PUSH2 0x764 PUSH2 0x601 JUMP JUMPDEST JUMPDEST PUSH1 0x0 PUSH2 0x773 DUP6 DUP3 DUP7 ADD PUSH2 0x661 JUMP JUMPDEST SWAP3 POP POP PUSH1 0x20 PUSH2 0x784 DUP6 DUP3 DUP7 ADD PUSH2 0x68D JUMP JUMPDEST SWAP2 POP POP SWAP3 POP SWAP3 SWAP1 POP JUMP JUMPDEST PUSH32 0x4E487B7100000000000000000000000000000000000000000000000000000000 PUSH1 0x0 MSTORE PUSH1 0x11 PUSH1 0x4 MSTORE PUSH1 0x24 PUSH1 0x0 REVERT JUMPDEST PUSH1 0x0 PUSH2 0x7C8 DUP3 PUSH2 0x5CD JUMP JUMPDEST SWAP2 POP PUSH2 0x7D3 DUP4 PUSH2 0x5CD JUMP JUMPDEST SWAP3 POP DUP3 PUSH32 0xFFFFFFFFFFFFFFFFFFFFFFFFFFFFFFFFFFFFFFFFFFFFFFFFFFFFFFFFFFFFFFFF SUB DUP3 GT ISZERO PUSH2 0x808 JUMPI PUSH2 0x807 PUSH2 0x78E JUMP JUMPDEST JUMPDEST DUP3 DUP3 ADD SWAP1 POP SWAP3 SWAP2 POP POP JUMP JUMPDEST PUSH1 0x0 DUP3 DUP3 MSTORE PUSH1 0x20 DUP3 ADD SWAP1 POP SWAP3 SWAP2 POP POP JUMP JUMPDEST PUSH32 0x596F7520617265206E6F7420746865206F776E6572206F662074686520766175 PUSH1 0x0 DUP3 ADD MSTORE PUSH32 0x6C74000000000000000000000000000000000000000000000000000000000000 PUSH1 0x20 DUP3 ADD MSTORE POP JUMP JUMPDEST PUSH1 0x0 PUSH2 0x880 PUSH1 0x22 DUP4 PUSH2 0x813 JUMP JUMPDEST SWAP2 POP PUSH2 0x88B DUP3 PUSH2 0x824 JUMP JUMPDEST PUSH1 0x40 DUP3 ADD SWAP1 POP SWAP2 SWAP1 POP JUMP JUMPDEST PUSH1 0x0 PUSH1 0x20 DUP3 ADD SWAP1 POP DUP2 DUP2 SUB PUSH1 0x0 DUP4 ADD MSTORE PUSH2 0x8AF DUP2 PUSH2 0x873 JUMP JUMPDEST SWAP1 POP SWAP2 SWAP1 POP JUMP JUMPDEST PUSH2 0x8BF DUP2 PUSH2 0x626 JUMP JUMPDEST DUP3 MSTORE POP POP JUMP JUMPDEST PUSH1 0x0 PUSH1 0x40 DUP3 ADD SWAP1 POP PUSH2 0x8DA PUSH1 0x0 DUP4 ADD DUP6 PUSH2 0x8B6 JUMP JUMPDEST PUSH2 0x8E7 PUSH1 0x20 DUP4 ADD DUP5 PUSH2 0x5D7 JUMP JUMPDEST SWAP4 SWAP3 POP POP POP JUMP JUMPDEST PUSH1 0x0 DUP2 ISZERO ISZERO SWAP1 POP SWAP2 SWAP1 POP JUMP JUMPDEST PUSH2 0x903 DUP2 PUSH2 0x8EE JUMP JUMPDEST DUP2 EQ PUSH2 0x90E JUMPI PUSH1 0x0 DUP1 REVERT JUMPDEST POP JUMP JUMPDEST PUSH1 0x0 DUP2 MLOAD SWAP1 POP PUSH2 0x920 DUP2 PUSH2 0x8FA JUMP JUMPDEST SWAP3 SWAP2 POP POP JUMP JUMPDEST PUSH1 0x0 PUSH1 0x20 DUP3 DUP5 SUB SLT ISZERO PUSH2 0x93C JUMPI PUSH2 0x93B PUSH2 0x601 JUMP JUMPDEST JUMPDEST PUSH1 0x0 PUSH2 0x94A DUP5 DUP3 DUP6 ADD PUSH2 0x911 JUMP JUMPDEST SWAP2 POP POP SWAP3 SWAP2 POP POP JUMP JUMPDEST PUSH1 0x0 DUP2 SWAP1 POP SWAP2 SWAP1 POP JUMP JUMPDEST PUSH1 0x0 PUSH2 0x978 PUSH2 0x973 PUSH2 0x96E DUP5 PUSH2 0x606 JUMP JUMPDEST PUSH2 0x953 JUMP JUMPDEST PUSH2 0x606 JUMP JUMPDEST SWAP1 POP SWAP2 SWAP1 POP JUMP JUMPDEST PUSH1 0x0 PUSH2 0x98A DUP3 PUSH2 0x95D JUMP JUMPDEST SWAP1 POP SWAP2 SWAP1 POP JUMP JUMPDEST PUSH1 0x0 PUSH2 0x99C DUP3 PUSH2 0x97F JUMP JUMPDEST SWAP1 POP SWAP2 SWAP1 POP JUMP JUMPDEST PUSH2 0x9AC DUP2 PUSH2 0x991 JUMP JUMPDEST DUP3 MSTORE POP POP JUMP JUMPDEST PUSH1 0x0 PUSH1 0x40 DUP3 ADD SWAP1 POP PUSH2 0x9C7 PUSH1 0x0 DUP4 ADD DUP6 PUSH2 0x9A3 JUMP JUMPDEST PUSH2 0x9D4 PUSH1 0x20 DUP4 ADD DUP5 PUSH2 0x5D7 JUMP JUMPDEST SWAP4 SWAP3 POP POP POP JUMP INVALID LOG2 PUSH5 0x6970667358 0x22 SLT KECCAK256 0xE 0xAA 0xF9 PUSH13 0x8C822D706397803068BA869486 MSTORE8 LOG4 PUSH21 0x4E2C39D4BC28BA364FE176F064736F6C634300080F STOP CALLER "
				},
				"gasEstimates": {
					"creation": {
						"codeDepositCost": "515400",
						"executionCost": "infinite",
						"totalCost": "infinite"
					},
					"external": {
						"allWETHreceived()": "2495",
						"depositWETH()": "infinite",
						"lastWETHreceived()": "2473",
						"timesWETHreceived()": "2430",
						"tokenAmmounts(address)": "2924",
						"tokenRations(address)": "2879",
						"withdrawToken(address,uint256)": "infinite",
						"withdrawTokenTo(address,uint256,address)": "infinite"
					}
				},
				"methodIdentifiers": {
					"allWETHreceived()": "f5e72a37",
					"depositWETH()": "1de3df2c",
					"lastWETHreceived()": "ee85c691",
					"timesWETHreceived()": "0b7b1f9e",
					"tokenAmmounts(address)": "6e3f4b3e",
					"tokenRations(address)": "bea7e949",
					"withdrawToken(address,uint256)": "9e281a98",
					"withdrawTokenTo(address,uint256,address)": "54ad4179"
				}
			},
			"storageLayout": {
				"storage": [
					{
						"astId": 7,
						"contract": "contracts/RebalancingVault.sol:Vault",
						"label": "tokenRations",
						"offset": 0,
						"slot": "0",
						"type": "t_mapping(t_contract(IERC20)764,t_uint256)"
					},
					{
						"astId": 12,
						"contract": "contracts/RebalancingVault.sol:Vault",
						"label": "tokenAmmounts",
						"offset": 0,
						"slot": "1",
						"type": "t_mapping(t_contract(IERC20)764,t_uint256)"
					},
					{
						"astId": 19,
						"contract": "contracts/RebalancingVault.sol:Vault",
						"label": "contractOwner",
						"offset": 0,
						"slot": "2",
						"type": "t_address_payable"
					},
					{
						"astId": 21,
						"contract": "contracts/RebalancingVault.sol:Vault",
						"label": "lastWETHreceived",
						"offset": 0,
						"slot": "3",
						"type": "t_uint256"
					},
					{
						"astId": 23,
						"contract": "contracts/RebalancingVault.sol:Vault",
						"label": "timesWETHreceived",
						"offset": 0,
						"slot": "4",
						"type": "t_uint256"
					},
					{
						"astId": 25,
						"contract": "contracts/RebalancingVault.sol:Vault",
						"label": "allWETHreceived",
						"offset": 0,
						"slot": "5",
						"type": "t_uint256"
					}
				],
				"types": {
					"t_address_payable": {
						"encoding": "inplace",
						"label": "address payable",
						"numberOfBytes": "20"
					},
					"t_contract(IERC20)764": {
						"encoding": "inplace",
						"label": "contract IERC20",
						"numberOfBytes": "20"
					},
					"t_mapping(t_contract(IERC20)764,t_uint256)": {
						"encoding": "mapping",
						"key": "t_contract(IERC20)764",
						"label": "mapping(contract IERC20 => uint256)",
						"numberOfBytes": "32",
						"value": "t_uint256"
					},
					"t_uint256": {
						"encoding": "inplace",
						"label": "uint256",
						"numberOfBytes": "32"
					}
				}
			},
			"userdoc": {
				"kind": "user",
				"methods": {},
				"version": 1
			}
		}
	}
}