{
	"contracts/RebalancingVault.sol": {
		"Vault": {
			"abi": [
				{
					"inputs": [
						{
							"internalType": "uint256",
							"name": "_noOfTokens",
							"type": "uint256"
						},
						{
							"internalType": "address[]",
							"name": "_toekenAddresses",
							"type": "address[]"
						},
						{
							"internalType": "uint256[]",
							"name": "_ratios",
							"type": "uint256[]"
						}
					],
					"stateMutability": "nonpayable",
					"type": "constructor"
				},
				{
					"inputs": [
						{
							"internalType": "address",
							"name": "",
							"type": "address"
						}
					],
					"name": "tokenAmmounts",
					"outputs": [
						{
							"internalType": "uint256",
							"name": "",
							"type": "uint256"
						}
					],
					"stateMutability": "view",
					"type": "function"
				},
				{
					"inputs": [
						{
							"internalType": "address",
							"name": "",
							"type": "address"
						}
					],
					"name": "tokenRations",
					"outputs": [
						{
							"internalType": "uint256",
							"name": "",
							"type": "uint256"
						}
					],
					"stateMutability": "view",
					"type": "function"
				}
			],
			"devdoc": {
				"kind": "dev",
				"methods": {},
				"version": 1
			},
			"evm": {
				"assembly": "    /* \"contracts/RebalancingVault.sol\":958:3997  contract Vault {... */\n  mstore(0x40, 0x80)\n    /* \"contracts/RebalancingVault.sol\":1565:3277  constructor(uint _noOfTokens, address[] memory _toekenAddresses, uint[] memory _ratios) {... */\n  callvalue\n  dup1\n  iszero\n  tag_1\n  jumpi\n  0x00\n  dup1\n  revert\ntag_1:\n  pop\n  mload(0x40)\n  sub(codesize, bytecodeSize)\n  dup1\n  bytecodeSize\n  dup4\n  codecopy\n  dup2\n  dup2\n  add\n  0x40\n  mstore\n  dup2\n  add\n  swap1\n  tag_2\n  swap2\n  swap1\n  tag_3\n  jump\t// in\ntag_2:\n    /* \"contracts/RebalancingVault.sol\":1682:1683  8 */\n  0x08\n    /* \"contracts/RebalancingVault.sol\":1667:1678  _noOfTokens */\n  dup4\n    /* \"contracts/RebalancingVault.sol\":1667:1683  _noOfTokens <= 8 */\n  gt\n  iszero\n    /* \"contracts/RebalancingVault.sol\":1667:1725  _noOfTokens <= 8 && _noOfTokens == _toekenAddresses.length */\n  dup1\n  iszero\n  tag_6\n  jumpi\n  pop\n    /* \"contracts/RebalancingVault.sol\":1702:1718  _toekenAddresses */\n  dup2\n    /* \"contracts/RebalancingVault.sol\":1702:1725  _toekenAddresses.length */\n  mload\n    /* \"contracts/RebalancingVault.sol\":1687:1698  _noOfTokens */\n  dup4\n    /* \"contracts/RebalancingVault.sol\":1687:1725  _noOfTokens == _toekenAddresses.length */\n  eq\n    /* \"contracts/RebalancingVault.sol\":1667:1725  _noOfTokens <= 8 && _noOfTokens == _toekenAddresses.length */\ntag_6:\n    /* \"contracts/RebalancingVault.sol\":1667:1758  _noOfTokens <= 8 && _noOfTokens == _toekenAddresses.length && _noOfTokens == _ratios.length */\n  dup1\n  iszero\n  tag_7\n  jumpi\n  pop\n    /* \"contracts/RebalancingVault.sol\":1744:1751  _ratios */\n  dup1\n    /* \"contracts/RebalancingVault.sol\":1744:1758  _ratios.length */\n  mload\n    /* \"contracts/RebalancingVault.sol\":1729:1740  _noOfTokens */\n  dup4\n    /* \"contracts/RebalancingVault.sol\":1729:1758  _noOfTokens == _ratios.length */\n  eq\n    /* \"contracts/RebalancingVault.sol\":1667:1758  _noOfTokens <= 8 && _noOfTokens == _toekenAddresses.length && _noOfTokens == _ratios.length */\ntag_7:\n    /* \"contracts/RebalancingVault.sol\":1663:1949  if (_noOfTokens <= 8 && _noOfTokens == _toekenAddresses.length && _noOfTokens == _ratios.length){... */\n  iszero\n  tag_8\n  jumpi\n    /* \"contracts/RebalancingVault.sol\":1778:1784  uint i */\n  0x00\n    /* \"contracts/RebalancingVault.sol\":1773:1943  for (uint i = 0; i < _noOfTokens; i++) {... */\ntag_9:\n    /* \"contracts/RebalancingVault.sol\":1794:1805  _noOfTokens */\n  dup4\n    /* \"contracts/RebalancingVault.sol\":1790:1791  i */\n  dup2\n    /* \"contracts/RebalancingVault.sol\":1790:1805  i < _noOfTokens */\n  lt\n    /* \"contracts/RebalancingVault.sol\":1773:1943  for (uint i = 0; i < _noOfTokens; i++) {... */\n  iszero\n  tag_10\n  jumpi\n    /* \"contracts/RebalancingVault.sol\":1866:1873  _ratios */\n  dup2\n    /* \"contracts/RebalancingVault.sol\":1874:1875  i */\n  dup2\n    /* \"contracts/RebalancingVault.sol\":1866:1876  _ratios[i] */\n  dup2\n  mload\n  dup2\n  lt\n  tag_12\n  jumpi\n  tag_13\n  tag_14\n  jump\t// in\ntag_13:\ntag_12:\n  0x20\n  mul\n  0x20\n  add\n  add\n  mload\n    /* \"contracts/RebalancingVault.sol\":1830:1842  tokenRations */\n  0x00\n    /* \"contracts/RebalancingVault.sol\":1830:1863  tokenRations[_toekenAddresses[i]] */\n  dup1\n    /* \"contracts/RebalancingVault.sol\":1843:1859  _toekenAddresses */\n  dup6\n    /* \"contracts/RebalancingVault.sol\":1860:1861  i */\n  dup5\n    /* \"contracts/RebalancingVault.sol\":1843:1862  _toekenAddresses[i] */\n  dup2\n  mload\n  dup2\n  lt\n  tag_15\n  jumpi\n  tag_16\n  tag_14\n  jump\t// in\ntag_16:\ntag_15:\n  0x20\n  mul\n  0x20\n  add\n  add\n  mload\n    /* \"contracts/RebalancingVault.sol\":1830:1863  tokenRations[_toekenAddresses[i]] */\n  0xffffffffffffffffffffffffffffffffffffffff\n  and\n  0xffffffffffffffffffffffffffffffffffffffff\n  and\n  dup2\n  mstore\n  0x20\n  add\n  swap1\n  dup2\n  mstore\n  0x20\n  add\n  0x00\n  keccak256\n    /* \"contracts/RebalancingVault.sol\":1830:1876  tokenRations[_toekenAddresses[i]] = _ratios[i] */\n  dup2\n  swap1\n  sstore\n  pop\n    /* \"contracts/RebalancingVault.sol\":1931:1932  0 */\n  0x00\n    /* \"contracts/RebalancingVault.sol\":1894:1907  tokenAmmounts */\n  0x01\n    /* \"contracts/RebalancingVault.sol\":1894:1928  tokenAmmounts[_toekenAddresses[i]] */\n  0x00\n    /* \"contracts/RebalancingVault.sol\":1908:1924  _toekenAddresses */\n  dup6\n    /* \"contracts/RebalancingVault.sol\":1925:1926  i */\n  dup5\n    /* \"contracts/RebalancingVault.sol\":1908:1927  _toekenAddresses[i] */\n  dup2\n  mload\n  dup2\n  lt\n  tag_17\n  jumpi\n  tag_18\n  tag_14\n  jump\t// in\ntag_18:\ntag_17:\n  0x20\n  mul\n  0x20\n  add\n  add\n  mload\n    /* \"contracts/RebalancingVault.sol\":1894:1928  tokenAmmounts[_toekenAddresses[i]] */\n  0xffffffffffffffffffffffffffffffffffffffff\n  and\n  0xffffffffffffffffffffffffffffffffffffffff\n  and\n  dup2\n  mstore\n  0x20\n  add\n  swap1\n  dup2\n  mstore\n  0x20\n  add\n  0x00\n  keccak256\n    /* \"contracts/RebalancingVault.sol\":1894:1932  tokenAmmounts[_toekenAddresses[i]] = 0 */\n  dup2\n  swap1\n  sstore\n  pop\n    /* \"contracts/RebalancingVault.sol\":1807:1810  i++ */\n  dup1\n  dup1\n  tag_19\n  swap1\n  tag_20\n  jump\t// in\ntag_19:\n  swap2\n  pop\n  pop\n    /* \"contracts/RebalancingVault.sol\":1773:1943  for (uint i = 0; i < _noOfTokens; i++) {... */\n  jump(tag_9)\ntag_10:\n  pop\n    /* \"contracts/RebalancingVault.sol\":1663:1949  if (_noOfTokens <= 8 && _noOfTokens == _toekenAddresses.length && _noOfTokens == _ratios.length){... */\ntag_8:\n    /* \"contracts/RebalancingVault.sol\":1565:3277  constructor(uint _noOfTokens, address[] memory _toekenAddresses, uint[] memory _ratios) {... */\n  pop\n  pop\n  pop\n    /* \"contracts/RebalancingVault.sol\":958:3997  contract Vault {... */\n  jump(tag_21)\n    /* \"#utility.yul\":7:82   */\ntag_22:\n    /* \"#utility.yul\":40:46   */\n  0x00\n    /* \"#utility.yul\":73:75   */\n  0x40\n    /* \"#utility.yul\":67:76   */\n  mload\n    /* \"#utility.yul\":57:76   */\n  swap1\n  pop\n    /* \"#utility.yul\":7:82   */\n  swap1\n  jump\t// out\n    /* \"#utility.yul\":88:205   */\ntag_23:\n    /* \"#utility.yul\":197:198   */\n  0x00\n    /* \"#utility.yul\":194:195   */\n  dup1\n    /* \"#utility.yul\":187:199   */\n  revert\n    /* \"#utility.yul\":211:328   */\ntag_24:\n    /* \"#utility.yul\":320:321   */\n  0x00\n    /* \"#utility.yul\":317:318   */\n  dup1\n    /* \"#utility.yul\":310:322   */\n  revert\n    /* \"#utility.yul\":334:411   */\ntag_25:\n    /* \"#utility.yul\":371:378   */\n  0x00\n    /* \"#utility.yul\":400:405   */\n  dup2\n    /* \"#utility.yul\":389:405   */\n  swap1\n  pop\n    /* \"#utility.yul\":334:411   */\n  swap2\n  swap1\n  pop\n  jump\t// out\n    /* \"#utility.yul\":417:539   */\ntag_26:\n    /* \"#utility.yul\":490:514   */\n  tag_51\n    /* \"#utility.yul\":508:513   */\n  dup2\n    /* \"#utility.yul\":490:514   */\n  tag_25\n  jump\t// in\ntag_51:\n    /* \"#utility.yul\":483:488   */\n  dup2\n    /* \"#utility.yul\":480:515   */\n  eq\n    /* \"#utility.yul\":470:533   */\n  tag_52\n  jumpi\n    /* \"#utility.yul\":529:530   */\n  0x00\n    /* \"#utility.yul\":526:527   */\n  dup1\n    /* \"#utility.yul\":519:531   */\n  revert\n    /* \"#utility.yul\":470:533   */\ntag_52:\n    /* \"#utility.yul\":417:539   */\n  pop\n  jump\t// out\n    /* \"#utility.yul\":545:688   */\ntag_27:\n    /* \"#utility.yul\":602:607   */\n  0x00\n    /* \"#utility.yul\":633:639   */\n  dup2\n    /* \"#utility.yul\":627:640   */\n  mload\n    /* \"#utility.yul\":618:640   */\n  swap1\n  pop\n    /* \"#utility.yul\":649:682   */\n  tag_54\n    /* \"#utility.yul\":676:681   */\n  dup2\n    /* \"#utility.yul\":649:682   */\n  tag_26\n  jump\t// in\ntag_54:\n    /* \"#utility.yul\":545:688   */\n  swap3\n  swap2\n  pop\n  pop\n  jump\t// out\n    /* \"#utility.yul\":694:811   */\ntag_28:\n    /* \"#utility.yul\":803:804   */\n  0x00\n    /* \"#utility.yul\":800:801   */\n  dup1\n    /* \"#utility.yul\":793:805   */\n  revert\n    /* \"#utility.yul\":817:919   */\ntag_29:\n    /* \"#utility.yul\":858:864   */\n  0x00\n    /* \"#utility.yul\":909:911   */\n  0x1f\n    /* \"#utility.yul\":905:912   */\n  not\n    /* \"#utility.yul\":900:902   */\n  0x1f\n    /* \"#utility.yul\":893:898   */\n  dup4\n    /* \"#utility.yul\":889:903   */\n  add\n    /* \"#utility.yul\":885:913   */\n  and\n    /* \"#utility.yul\":875:913   */\n  swap1\n  pop\n    /* \"#utility.yul\":817:919   */\n  swap2\n  swap1\n  pop\n  jump\t// out\n    /* \"#utility.yul\":925:1105   */\ntag_30:\n    /* \"#utility.yul\":973:1050   */\n  0x4e487b7100000000000000000000000000000000000000000000000000000000\n    /* \"#utility.yul\":970:971   */\n  0x00\n    /* \"#utility.yul\":963:1051   */\n  mstore\n    /* \"#utility.yul\":1070:1074   */\n  0x41\n    /* \"#utility.yul\":1067:1068   */\n  0x04\n    /* \"#utility.yul\":1060:1075   */\n  mstore\n    /* \"#utility.yul\":1094:1098   */\n  0x24\n    /* \"#utility.yul\":1091:1092   */\n  0x00\n    /* \"#utility.yul\":1084:1099   */\n  revert\n    /* \"#utility.yul\":1111:1392   */\ntag_31:\n    /* \"#utility.yul\":1194:1221   */\n  tag_59\n    /* \"#utility.yul\":1216:1220   */\n  dup3\n    /* \"#utility.yul\":1194:1221   */\n  tag_29\n  jump\t// in\ntag_59:\n    /* \"#utility.yul\":1186:1192   */\n  dup2\n    /* \"#utility.yul\":1182:1222   */\n  add\n    /* \"#utility.yul\":1324:1330   */\n  dup2\n    /* \"#utility.yul\":1312:1322   */\n  dup2\n    /* \"#utility.yul\":1309:1331   */\n  lt\n    /* \"#utility.yul\":1288:1306   */\n  0xffffffffffffffff\n    /* \"#utility.yul\":1276:1286   */\n  dup3\n    /* \"#utility.yul\":1273:1307   */\n  gt\n    /* \"#utility.yul\":1270:1332   */\n  or\n    /* \"#utility.yul\":1267:1355   */\n  iszero\n  tag_60\n  jumpi\n    /* \"#utility.yul\":1335:1353   */\n  tag_61\n  tag_30\n  jump\t// in\ntag_61:\n    /* \"#utility.yul\":1267:1355   */\ntag_60:\n    /* \"#utility.yul\":1375:1385   */\n  dup1\n    /* \"#utility.yul\":1371:1373   */\n  0x40\n    /* \"#utility.yul\":1364:1386   */\n  mstore\n    /* \"#utility.yul\":1154:1392   */\n  pop\n    /* \"#utility.yul\":1111:1392   */\n  pop\n  pop\n  jump\t// out\n    /* \"#utility.yul\":1398:1527   */\ntag_32:\n    /* \"#utility.yul\":1432:1438   */\n  0x00\n    /* \"#utility.yul\":1459:1479   */\n  tag_63\n  tag_22\n  jump\t// in\ntag_63:\n    /* \"#utility.yul\":1449:1479   */\n  swap1\n  pop\n    /* \"#utility.yul\":1488:1521   */\n  tag_64\n    /* \"#utility.yul\":1516:1520   */\n  dup3\n    /* \"#utility.yul\":1508:1514   */\n  dup3\n    /* \"#utility.yul\":1488:1521   */\n  tag_31\n  jump\t// in\ntag_64:\n    /* \"#utility.yul\":1398:1527   */\n  swap2\n  swap1\n  pop\n  jump\t// out\n    /* \"#utility.yul\":1533:1844   */\ntag_33:\n    /* \"#utility.yul\":1610:1614   */\n  0x00\n    /* \"#utility.yul\":1700:1718   */\n  0xffffffffffffffff\n    /* \"#utility.yul\":1692:1698   */\n  dup3\n    /* \"#utility.yul\":1689:1719   */\n  gt\n    /* \"#utility.yul\":1686:1742   */\n  iszero\n  tag_66\n  jumpi\n    /* \"#utility.yul\":1722:1740   */\n  tag_67\n  tag_30\n  jump\t// in\ntag_67:\n    /* \"#utility.yul\":1686:1742   */\ntag_66:\n    /* \"#utility.yul\":1772:1776   */\n  0x20\n    /* \"#utility.yul\":1764:1770   */\n  dup3\n    /* \"#utility.yul\":1760:1777   */\n  mul\n    /* \"#utility.yul\":1752:1777   */\n  swap1\n  pop\n    /* \"#utility.yul\":1832:1836   */\n  0x20\n    /* \"#utility.yul\":1826:1830   */\n  dup2\n    /* \"#utility.yul\":1822:1837   */\n  add\n    /* \"#utility.yul\":1814:1837   */\n  swap1\n  pop\n    /* \"#utility.yul\":1533:1844   */\n  swap2\n  swap1\n  pop\n  jump\t// out\n    /* \"#utility.yul\":1850:1967   */\ntag_34:\n    /* \"#utility.yul\":1959:1960   */\n  0x00\n    /* \"#utility.yul\":1956:1957   */\n  dup1\n    /* \"#utility.yul\":1949:1961   */\n  revert\n    /* \"#utility.yul\":1973:2099   */\ntag_35:\n    /* \"#utility.yul\":2010:2017   */\n  0x00\n    /* \"#utility.yul\":2050:2092   */\n  0xffffffffffffffffffffffffffffffffffffffff\n    /* \"#utility.yul\":2043:2048   */\n  dup3\n    /* \"#utility.yul\":2039:2093   */\n  and\n    /* \"#utility.yul\":2028:2093   */\n  swap1\n  pop\n    /* \"#utility.yul\":1973:2099   */\n  swap2\n  swap1\n  pop\n  jump\t// out\n    /* \"#utility.yul\":2105:2201   */\ntag_36:\n    /* \"#utility.yul\":2142:2149   */\n  0x00\n    /* \"#utility.yul\":2171:2195   */\n  tag_71\n    /* \"#utility.yul\":2189:2194   */\n  dup3\n    /* \"#utility.yul\":2171:2195   */\n  tag_35\n  jump\t// in\ntag_71:\n    /* \"#utility.yul\":2160:2195   */\n  swap1\n  pop\n    /* \"#utility.yul\":2105:2201   */\n  swap2\n  swap1\n  pop\n  jump\t// out\n    /* \"#utility.yul\":2207:2329   */\ntag_37:\n    /* \"#utility.yul\":2280:2304   */\n  tag_73\n    /* \"#utility.yul\":2298:2303   */\n  dup2\n    /* \"#utility.yul\":2280:2304   */\n  tag_36\n  jump\t// in\ntag_73:\n    /* \"#utility.yul\":2273:2278   */\n  dup2\n    /* \"#utility.yul\":2270:2305   */\n  eq\n    /* \"#utility.yul\":2260:2323   */\n  tag_74\n  jumpi\n    /* \"#utility.yul\":2319:2320   */\n  0x00\n    /* \"#utility.yul\":2316:2317   */\n  dup1\n    /* \"#utility.yul\":2309:2321   */\n  revert\n    /* \"#utility.yul\":2260:2323   */\ntag_74:\n    /* \"#utility.yul\":2207:2329   */\n  pop\n  jump\t// out\n    /* \"#utility.yul\":2335:2478   */\ntag_38:\n    /* \"#utility.yul\":2392:2397   */\n  0x00\n    /* \"#utility.yul\":2423:2429   */\n  dup2\n    /* \"#utility.yul\":2417:2430   */\n  mload\n    /* \"#utility.yul\":2408:2430   */\n  swap1\n  pop\n    /* \"#utility.yul\":2439:2472   */\n  tag_76\n    /* \"#utility.yul\":2466:2471   */\n  dup2\n    /* \"#utility.yul\":2439:2472   */\n  tag_37\n  jump\t// in\ntag_76:\n    /* \"#utility.yul\":2335:2478   */\n  swap3\n  swap2\n  pop\n  pop\n  jump\t// out\n    /* \"#utility.yul\":2501:3233   */\ntag_39:\n    /* \"#utility.yul\":2608:2613   */\n  0x00\n    /* \"#utility.yul\":2633:2714   */\n  tag_78\n    /* \"#utility.yul\":2649:2713   */\n  tag_79\n    /* \"#utility.yul\":2706:2712   */\n  dup5\n    /* \"#utility.yul\":2649:2713   */\n  tag_33\n  jump\t// in\ntag_79:\n    /* \"#utility.yul\":2633:2714   */\n  tag_32\n  jump\t// in\ntag_78:\n    /* \"#utility.yul\":2624:2714   */\n  swap1\n  pop\n    /* \"#utility.yul\":2734:2739   */\n  dup1\n    /* \"#utility.yul\":2763:2769   */\n  dup4\n    /* \"#utility.yul\":2756:2761   */\n  dup3\n    /* \"#utility.yul\":2749:2770   */\n  mstore\n    /* \"#utility.yul\":2797:2801   */\n  0x20\n    /* \"#utility.yul\":2790:2795   */\n  dup3\n    /* \"#utility.yul\":2786:2802   */\n  add\n    /* \"#utility.yul\":2779:2802   */\n  swap1\n  pop\n    /* \"#utility.yul\":2850:2854   */\n  0x20\n    /* \"#utility.yul\":2842:2848   */\n  dup5\n    /* \"#utility.yul\":2838:2855   */\n  mul\n    /* \"#utility.yul\":2830:2836   */\n  dup4\n    /* \"#utility.yul\":2826:2856   */\n  add\n    /* \"#utility.yul\":2879:2882   */\n  dup6\n    /* \"#utility.yul\":2871:2877   */\n  dup2\n    /* \"#utility.yul\":2868:2883   */\n  gt\n    /* \"#utility.yul\":2865:2987   */\n  iszero\n  tag_80\n  jumpi\n    /* \"#utility.yul\":2898:2977   */\n  tag_81\n  tag_34\n  jump\t// in\ntag_81:\n    /* \"#utility.yul\":2865:2987   */\ntag_80:\n    /* \"#utility.yul\":3013:3019   */\n  dup4\n    /* \"#utility.yul\":2996:3227   */\ntag_82:\n    /* \"#utility.yul\":3030:3036   */\n  dup2\n    /* \"#utility.yul\":3025:3028   */\n  dup2\n    /* \"#utility.yul\":3022:3037   */\n  lt\n    /* \"#utility.yul\":2996:3227   */\n  iszero\n  tag_84\n  jumpi\n    /* \"#utility.yul\":3105:3108   */\n  dup1\n    /* \"#utility.yul\":3134:3182   */\n  tag_85\n    /* \"#utility.yul\":3178:3181   */\n  dup9\n    /* \"#utility.yul\":3166:3176   */\n  dup3\n    /* \"#utility.yul\":3134:3182   */\n  tag_38\n  jump\t// in\ntag_85:\n    /* \"#utility.yul\":3129:3132   */\n  dup5\n    /* \"#utility.yul\":3122:3183   */\n  mstore\n    /* \"#utility.yul\":3212:3216   */\n  0x20\n    /* \"#utility.yul\":3207:3210   */\n  dup5\n    /* \"#utility.yul\":3203:3217   */\n  add\n    /* \"#utility.yul\":3196:3217   */\n  swap4\n  pop\n    /* \"#utility.yul\":3072:3227   */\n  pop\n    /* \"#utility.yul\":3056:3060   */\n  0x20\n    /* \"#utility.yul\":3051:3054   */\n  dup2\n    /* \"#utility.yul\":3047:3061   */\n  add\n    /* \"#utility.yul\":3040:3061   */\n  swap1\n  pop\n    /* \"#utility.yul\":2996:3227   */\n  jump(tag_82)\ntag_84:\n    /* \"#utility.yul\":3000:3021   */\n  pop\n    /* \"#utility.yul\":2614:3233   */\n  pop\n  pop\n    /* \"#utility.yul\":2501:3233   */\n  swap4\n  swap3\n  pop\n  pop\n  pop\n  jump\t// out\n    /* \"#utility.yul\":3256:3641   */\ntag_40:\n    /* \"#utility.yul\":3338:3343   */\n  0x00\n    /* \"#utility.yul\":3387:3390   */\n  dup3\n    /* \"#utility.yul\":3380:3384   */\n  0x1f\n    /* \"#utility.yul\":3372:3378   */\n  dup4\n    /* \"#utility.yul\":3368:3385   */\n  add\n    /* \"#utility.yul\":3364:3391   */\n  slt\n    /* \"#utility.yul\":3354:3476   */\n  tag_87\n  jumpi\n    /* \"#utility.yul\":3395:3474   */\n  tag_88\n  tag_28\n  jump\t// in\ntag_88:\n    /* \"#utility.yul\":3354:3476   */\ntag_87:\n    /* \"#utility.yul\":3505:3511   */\n  dup2\n    /* \"#utility.yul\":3499:3512   */\n  mload\n    /* \"#utility.yul\":3530:3635   */\n  tag_89\n    /* \"#utility.yul\":3631:3634   */\n  dup5\n    /* \"#utility.yul\":3623:3629   */\n  dup3\n    /* \"#utility.yul\":3616:3620   */\n  0x20\n    /* \"#utility.yul\":3608:3614   */\n  dup7\n    /* \"#utility.yul\":3604:3621   */\n  add\n    /* \"#utility.yul\":3530:3635   */\n  tag_39\n  jump\t// in\ntag_89:\n    /* \"#utility.yul\":3521:3635   */\n  swap2\n  pop\n    /* \"#utility.yul\":3344:3641   */\n  pop\n    /* \"#utility.yul\":3256:3641   */\n  swap3\n  swap2\n  pop\n  pop\n  jump\t// out\n    /* \"#utility.yul\":3647:3958   */\ntag_41:\n    /* \"#utility.yul\":3724:3728   */\n  0x00\n    /* \"#utility.yul\":3814:3832   */\n  0xffffffffffffffff\n    /* \"#utility.yul\":3806:3812   */\n  dup3\n    /* \"#utility.yul\":3803:3833   */\n  gt\n    /* \"#utility.yul\":3800:3856   */\n  iszero\n  tag_91\n  jumpi\n    /* \"#utility.yul\":3836:3854   */\n  tag_92\n  tag_30\n  jump\t// in\ntag_92:\n    /* \"#utility.yul\":3800:3856   */\ntag_91:\n    /* \"#utility.yul\":3886:3890   */\n  0x20\n    /* \"#utility.yul\":3878:3884   */\n  dup3\n    /* \"#utility.yul\":3874:3891   */\n  mul\n    /* \"#utility.yul\":3866:3891   */\n  swap1\n  pop\n    /* \"#utility.yul\":3946:3950   */\n  0x20\n    /* \"#utility.yul\":3940:3944   */\n  dup2\n    /* \"#utility.yul\":3936:3951   */\n  add\n    /* \"#utility.yul\":3928:3951   */\n  swap1\n  pop\n    /* \"#utility.yul\":3647:3958   */\n  swap2\n  swap1\n  pop\n  jump\t// out\n    /* \"#utility.yul\":3981:4713   */\ntag_42:\n    /* \"#utility.yul\":4088:4093   */\n  0x00\n    /* \"#utility.yul\":4113:4194   */\n  tag_94\n    /* \"#utility.yul\":4129:4193   */\n  tag_95\n    /* \"#utility.yul\":4186:4192   */\n  dup5\n    /* \"#utility.yul\":4129:4193   */\n  tag_41\n  jump\t// in\ntag_95:\n    /* \"#utility.yul\":4113:4194   */\n  tag_32\n  jump\t// in\ntag_94:\n    /* \"#utility.yul\":4104:4194   */\n  swap1\n  pop\n    /* \"#utility.yul\":4214:4219   */\n  dup1\n    /* \"#utility.yul\":4243:4249   */\n  dup4\n    /* \"#utility.yul\":4236:4241   */\n  dup3\n    /* \"#utility.yul\":4229:4250   */\n  mstore\n    /* \"#utility.yul\":4277:4281   */\n  0x20\n    /* \"#utility.yul\":4270:4275   */\n  dup3\n    /* \"#utility.yul\":4266:4282   */\n  add\n    /* \"#utility.yul\":4259:4282   */\n  swap1\n  pop\n    /* \"#utility.yul\":4330:4334   */\n  0x20\n    /* \"#utility.yul\":4322:4328   */\n  dup5\n    /* \"#utility.yul\":4318:4335   */\n  mul\n    /* \"#utility.yul\":4310:4316   */\n  dup4\n    /* \"#utility.yul\":4306:4336   */\n  add\n    /* \"#utility.yul\":4359:4362   */\n  dup6\n    /* \"#utility.yul\":4351:4357   */\n  dup2\n    /* \"#utility.yul\":4348:4363   */\n  gt\n    /* \"#utility.yul\":4345:4467   */\n  iszero\n  tag_96\n  jumpi\n    /* \"#utility.yul\":4378:4457   */\n  tag_97\n  tag_34\n  jump\t// in\ntag_97:\n    /* \"#utility.yul\":4345:4467   */\ntag_96:\n    /* \"#utility.yul\":4493:4499   */\n  dup4\n    /* \"#utility.yul\":4476:4707   */\ntag_98:\n    /* \"#utility.yul\":4510:4516   */\n  dup2\n    /* \"#utility.yul\":4505:4508   */\n  dup2\n    /* \"#utility.yul\":4502:4517   */\n  lt\n    /* \"#utility.yul\":4476:4707   */\n  iszero\n  tag_100\n  jumpi\n    /* \"#utility.yul\":4585:4588   */\n  dup1\n    /* \"#utility.yul\":4614:4662   */\n  tag_101\n    /* \"#utility.yul\":4658:4661   */\n  dup9\n    /* \"#utility.yul\":4646:4656   */\n  dup3\n    /* \"#utility.yul\":4614:4662   */\n  tag_27\n  jump\t// in\ntag_101:\n    /* \"#utility.yul\":4609:4612   */\n  dup5\n    /* \"#utility.yul\":4602:4663   */\n  mstore\n    /* \"#utility.yul\":4692:4696   */\n  0x20\n    /* \"#utility.yul\":4687:4690   */\n  dup5\n    /* \"#utility.yul\":4683:4697   */\n  add\n    /* \"#utility.yul\":4676:4697   */\n  swap4\n  pop\n    /* \"#utility.yul\":4552:4707   */\n  pop\n    /* \"#utility.yul\":4536:4540   */\n  0x20\n    /* \"#utility.yul\":4531:4534   */\n  dup2\n    /* \"#utility.yul\":4527:4541   */\n  add\n    /* \"#utility.yul\":4520:4541   */\n  swap1\n  pop\n    /* \"#utility.yul\":4476:4707   */\n  jump(tag_98)\ntag_100:\n    /* \"#utility.yul\":4480:4501   */\n  pop\n    /* \"#utility.yul\":4094:4713   */\n  pop\n  pop\n    /* \"#utility.yul\":3981:4713   */\n  swap4\n  swap3\n  pop\n  pop\n  pop\n  jump\t// out\n    /* \"#utility.yul\":4736:5121   */\ntag_43:\n    /* \"#utility.yul\":4818:4823   */\n  0x00\n    /* \"#utility.yul\":4867:4870   */\n  dup3\n    /* \"#utility.yul\":4860:4864   */\n  0x1f\n    /* \"#utility.yul\":4852:4858   */\n  dup4\n    /* \"#utility.yul\":4848:4865   */\n  add\n    /* \"#utility.yul\":4844:4871   */\n  slt\n    /* \"#utility.yul\":4834:4956   */\n  tag_103\n  jumpi\n    /* \"#utility.yul\":4875:4954   */\n  tag_104\n  tag_28\n  jump\t// in\ntag_104:\n    /* \"#utility.yul\":4834:4956   */\ntag_103:\n    /* \"#utility.yul\":4985:4991   */\n  dup2\n    /* \"#utility.yul\":4979:4992   */\n  mload\n    /* \"#utility.yul\":5010:5115   */\n  tag_105\n    /* \"#utility.yul\":5111:5114   */\n  dup5\n    /* \"#utility.yul\":5103:5109   */\n  dup3\n    /* \"#utility.yul\":5096:5100   */\n  0x20\n    /* \"#utility.yul\":5088:5094   */\n  dup7\n    /* \"#utility.yul\":5084:5101   */\n  add\n    /* \"#utility.yul\":5010:5115   */\n  tag_42\n  jump\t// in\ntag_105:\n    /* \"#utility.yul\":5001:5115   */\n  swap2\n  pop\n    /* \"#utility.yul\":4824:5121   */\n  pop\n    /* \"#utility.yul\":4736:5121   */\n  swap3\n  swap2\n  pop\n  pop\n  jump\t// out\n    /* \"#utility.yul\":5127:6196   */\ntag_3:\n    /* \"#utility.yul\":5265:5271   */\n  0x00\n    /* \"#utility.yul\":5273:5279   */\n  dup1\n    /* \"#utility.yul\":5281:5287   */\n  0x00\n    /* \"#utility.yul\":5330:5332   */\n  0x60\n    /* \"#utility.yul\":5318:5327   */\n  dup5\n    /* \"#utility.yul\":5309:5316   */\n  dup7\n    /* \"#utility.yul\":5305:5328   */\n  sub\n    /* \"#utility.yul\":5301:5333   */\n  slt\n    /* \"#utility.yul\":5298:5417   */\n  iszero\n  tag_107\n  jumpi\n    /* \"#utility.yul\":5336:5415   */\n  tag_108\n  tag_23\n  jump\t// in\ntag_108:\n    /* \"#utility.yul\":5298:5417   */\ntag_107:\n    /* \"#utility.yul\":5456:5457   */\n  0x00\n    /* \"#utility.yul\":5481:5545   */\n  tag_109\n    /* \"#utility.yul\":5537:5544   */\n  dup7\n    /* \"#utility.yul\":5528:5534   */\n  dup3\n    /* \"#utility.yul\":5517:5526   */\n  dup8\n    /* \"#utility.yul\":5513:5535   */\n  add\n    /* \"#utility.yul\":5481:5545   */\n  tag_27\n  jump\t// in\ntag_109:\n    /* \"#utility.yul\":5471:5545   */\n  swap4\n  pop\n    /* \"#utility.yul\":5427:5555   */\n  pop\n    /* \"#utility.yul\":5615:5617   */\n  0x20\n    /* \"#utility.yul\":5604:5613   */\n  dup5\n    /* \"#utility.yul\":5600:5618   */\n  add\n    /* \"#utility.yul\":5594:5619   */\n  mload\n    /* \"#utility.yul\":5646:5664   */\n  0xffffffffffffffff\n    /* \"#utility.yul\":5638:5644   */\n  dup2\n    /* \"#utility.yul\":5635:5665   */\n  gt\n    /* \"#utility.yul\":5632:5749   */\n  iszero\n  tag_110\n  jumpi\n    /* \"#utility.yul\":5668:5747   */\n  tag_111\n  tag_24\n  jump\t// in\ntag_111:\n    /* \"#utility.yul\":5632:5749   */\ntag_110:\n    /* \"#utility.yul\":5773:5862   */\n  tag_112\n    /* \"#utility.yul\":5854:5861   */\n  dup7\n    /* \"#utility.yul\":5845:5851   */\n  dup3\n    /* \"#utility.yul\":5834:5843   */\n  dup8\n    /* \"#utility.yul\":5830:5852   */\n  add\n    /* \"#utility.yul\":5773:5862   */\n  tag_40\n  jump\t// in\ntag_112:\n    /* \"#utility.yul\":5763:5862   */\n  swap3\n  pop\n    /* \"#utility.yul\":5565:5872   */\n  pop\n    /* \"#utility.yul\":5932:5934   */\n  0x40\n    /* \"#utility.yul\":5921:5930   */\n  dup5\n    /* \"#utility.yul\":5917:5935   */\n  add\n    /* \"#utility.yul\":5911:5936   */\n  mload\n    /* \"#utility.yul\":5963:5981   */\n  0xffffffffffffffff\n    /* \"#utility.yul\":5955:5961   */\n  dup2\n    /* \"#utility.yul\":5952:5982   */\n  gt\n    /* \"#utility.yul\":5949:6066   */\n  iszero\n  tag_113\n  jumpi\n    /* \"#utility.yul\":5985:6064   */\n  tag_114\n  tag_24\n  jump\t// in\ntag_114:\n    /* \"#utility.yul\":5949:6066   */\ntag_113:\n    /* \"#utility.yul\":6090:6179   */\n  tag_115\n    /* \"#utility.yul\":6171:6178   */\n  dup7\n    /* \"#utility.yul\":6162:6168   */\n  dup3\n    /* \"#utility.yul\":6151:6160   */\n  dup8\n    /* \"#utility.yul\":6147:6169   */\n  add\n    /* \"#utility.yul\":6090:6179   */\n  tag_43\n  jump\t// in\ntag_115:\n    /* \"#utility.yul\":6080:6179   */\n  swap2\n  pop\n    /* \"#utility.yul\":5882:6189   */\n  pop\n    /* \"#utility.yul\":5127:6196   */\n  swap3\n  pop\n  swap3\n  pop\n  swap3\n  jump\t// out\n    /* \"#utility.yul\":6202:6382   */\ntag_14:\n    /* \"#utility.yul\":6250:6327   */\n  0x4e487b7100000000000000000000000000000000000000000000000000000000\n    /* \"#utility.yul\":6247:6248   */\n  0x00\n    /* \"#utility.yul\":6240:6328   */\n  mstore\n    /* \"#utility.yul\":6347:6351   */\n  0x32\n    /* \"#utility.yul\":6344:6345   */\n  0x04\n    /* \"#utility.yul\":6337:6352   */\n  mstore\n    /* \"#utility.yul\":6371:6375   */\n  0x24\n    /* \"#utility.yul\":6368:6369   */\n  0x00\n    /* \"#utility.yul\":6361:6376   */\n  revert\n    /* \"#utility.yul\":6388:6568   */\ntag_44:\n    /* \"#utility.yul\":6436:6513   */\n  0x4e487b7100000000000000000000000000000000000000000000000000000000\n    /* \"#utility.yul\":6433:6434   */\n  0x00\n    /* \"#utility.yul\":6426:6514   */\n  mstore\n    /* \"#utility.yul\":6533:6537   */\n  0x11\n    /* \"#utility.yul\":6530:6531   */\n  0x04\n    /* \"#utility.yul\":6523:6538   */\n  mstore\n    /* \"#utility.yul\":6557:6561   */\n  0x24\n    /* \"#utility.yul\":6554:6555   */\n  0x00\n    /* \"#utility.yul\":6547:6562   */\n  revert\n    /* \"#utility.yul\":6574:6807   */\ntag_20:\n    /* \"#utility.yul\":6613:6616   */\n  0x00\n    /* \"#utility.yul\":6636:6660   */\n  tag_119\n    /* \"#utility.yul\":6654:6659   */\n  dup3\n    /* \"#utility.yul\":6636:6660   */\n  tag_25\n  jump\t// in\ntag_119:\n    /* \"#utility.yul\":6627:6660   */\n  swap2\n  pop\n    /* \"#utility.yul\":6682:6748   */\n  0xffffffffffffffffffffffffffffffffffffffffffffffffffffffffffffffff\n    /* \"#utility.yul\":6675:6680   */\n  dup3\n    /* \"#utility.yul\":6672:6749   */\n  sub\n    /* \"#utility.yul\":6669:6772   */\n  tag_120\n  jumpi\n    /* \"#utility.yul\":6752:6770   */\n  tag_121\n  tag_44\n  jump\t// in\ntag_121:\n    /* \"#utility.yul\":6669:6772   */\ntag_120:\n    /* \"#utility.yul\":6799:6800   */\n  0x01\n    /* \"#utility.yul\":6792:6797   */\n  dup3\n    /* \"#utility.yul\":6788:6801   */\n  add\n    /* \"#utility.yul\":6781:6801   */\n  swap1\n  pop\n    /* \"#utility.yul\":6574:6807   */\n  swap2\n  swap1\n  pop\n  jump\t// out\n    /* \"contracts/RebalancingVault.sol\":958:3997  contract Vault {... */\ntag_21:\n  dataSize(sub_0)\n  dup1\n  dataOffset(sub_0)\n  0x00\n  codecopy\n  0x00\n  return\nstop\n\nsub_0: assembly {\n        /* \"contracts/RebalancingVault.sol\":958:3997  contract Vault {... */\n      mstore(0x40, 0x80)\n      callvalue\n      dup1\n      iszero\n      tag_1\n      jumpi\n      0x00\n      dup1\n      revert\n    tag_1:\n      pop\n      jumpi(tag_2, lt(calldatasize, 0x04))\n      shr(0xe0, calldataload(0x00))\n      dup1\n      0x6e3f4b3e\n      eq\n      tag_3\n      jumpi\n      dup1\n      0xbea7e949\n      eq\n      tag_4\n      jumpi\n    tag_2:\n      0x00\n      dup1\n      revert\n        /* \"contracts/RebalancingVault.sol\":1121:1167  mapping(address  => uint) public tokenAmmounts */\n    tag_3:\n      tag_5\n      0x04\n      dup1\n      calldatasize\n      sub\n      dup2\n      add\n      swap1\n      tag_6\n      swap2\n      swap1\n      tag_7\n      jump\t// in\n    tag_6:\n      tag_8\n      jump\t// in\n    tag_5:\n      mload(0x40)\n      tag_9\n      swap2\n      swap1\n      tag_10\n      jump\t// in\n    tag_9:\n      mload(0x40)\n      dup1\n      swap2\n      sub\n      swap1\n      return\n        /* \"contracts/RebalancingVault.sol\":1070:1115  mapping(address  => uint) public tokenRations */\n    tag_4:\n      tag_11\n      0x04\n      dup1\n      calldatasize\n      sub\n      dup2\n      add\n      swap1\n      tag_12\n      swap2\n      swap1\n      tag_7\n      jump\t// in\n    tag_12:\n      tag_13\n      jump\t// in\n    tag_11:\n      mload(0x40)\n      tag_14\n      swap2\n      swap1\n      tag_10\n      jump\t// in\n    tag_14:\n      mload(0x40)\n      dup1\n      swap2\n      sub\n      swap1\n      return\n        /* \"contracts/RebalancingVault.sol\":1121:1167  mapping(address  => uint) public tokenAmmounts */\n    tag_8:\n      mstore(0x20, 0x01)\n      dup1\n      0x00\n      mstore\n      keccak256(0x00, 0x40)\n      0x00\n      swap2\n      pop\n      swap1\n      pop\n      sload\n      dup2\n      jump\t// out\n        /* \"contracts/RebalancingVault.sol\":1070:1115  mapping(address  => uint) public tokenRations */\n    tag_13:\n      mstore(0x20, 0x00)\n      dup1\n      0x00\n      mstore\n      keccak256(0x00, 0x40)\n      0x00\n      swap2\n      pop\n      swap1\n      pop\n      sload\n      dup2\n      jump\t// out\n        /* \"#utility.yul\":88:205   */\n    tag_16:\n        /* \"#utility.yul\":197:198   */\n      0x00\n        /* \"#utility.yul\":194:195   */\n      dup1\n        /* \"#utility.yul\":187:199   */\n      revert\n        /* \"#utility.yul\":334:460   */\n    tag_18:\n        /* \"#utility.yul\":371:378   */\n      0x00\n        /* \"#utility.yul\":411:453   */\n      0xffffffffffffffffffffffffffffffffffffffff\n        /* \"#utility.yul\":404:409   */\n      dup3\n        /* \"#utility.yul\":400:454   */\n      and\n        /* \"#utility.yul\":389:454   */\n      swap1\n      pop\n        /* \"#utility.yul\":334:460   */\n      swap2\n      swap1\n      pop\n      jump\t// out\n        /* \"#utility.yul\":466:562   */\n    tag_19:\n        /* \"#utility.yul\":503:510   */\n      0x00\n        /* \"#utility.yul\":532:556   */\n      tag_30\n        /* \"#utility.yul\":550:555   */\n      dup3\n        /* \"#utility.yul\":532:556   */\n      tag_18\n      jump\t// in\n    tag_30:\n        /* \"#utility.yul\":521:556   */\n      swap1\n      pop\n        /* \"#utility.yul\":466:562   */\n      swap2\n      swap1\n      pop\n      jump\t// out\n        /* \"#utility.yul\":568:690   */\n    tag_20:\n        /* \"#utility.yul\":641:665   */\n      tag_32\n        /* \"#utility.yul\":659:664   */\n      dup2\n        /* \"#utility.yul\":641:665   */\n      tag_19\n      jump\t// in\n    tag_32:\n        /* \"#utility.yul\":634:639   */\n      dup2\n        /* \"#utility.yul\":631:666   */\n      eq\n        /* \"#utility.yul\":621:684   */\n      tag_33\n      jumpi\n        /* \"#utility.yul\":680:681   */\n      0x00\n        /* \"#utility.yul\":677:678   */\n      dup1\n        /* \"#utility.yul\":670:682   */\n      revert\n        /* \"#utility.yul\":621:684   */\n    tag_33:\n        /* \"#utility.yul\":568:690   */\n      pop\n      jump\t// out\n        /* \"#utility.yul\":696:835   */\n    tag_21:\n        /* \"#utility.yul\":742:747   */\n      0x00\n        /* \"#utility.yul\":780:786   */\n      dup2\n        /* \"#utility.yul\":767:787   */\n      calldataload\n        /* \"#utility.yul\":758:787   */\n      swap1\n      pop\n        /* \"#utility.yul\":796:829   */\n      tag_35\n        /* \"#utility.yul\":823:828   */\n      dup2\n        /* \"#utility.yul\":796:829   */\n      tag_20\n      jump\t// in\n    tag_35:\n        /* \"#utility.yul\":696:835   */\n      swap3\n      swap2\n      pop\n      pop\n      jump\t// out\n        /* \"#utility.yul\":841:1170   */\n    tag_7:\n        /* \"#utility.yul\":900:906   */\n      0x00\n        /* \"#utility.yul\":949:951   */\n      0x20\n        /* \"#utility.yul\":937:946   */\n      dup3\n        /* \"#utility.yul\":928:935   */\n      dup5\n        /* \"#utility.yul\":924:947   */\n      sub\n        /* \"#utility.yul\":920:952   */\n      slt\n        /* \"#utility.yul\":917:1036   */\n      iszero\n      tag_37\n      jumpi\n        /* \"#utility.yul\":955:1034   */\n      tag_38\n      tag_16\n      jump\t// in\n    tag_38:\n        /* \"#utility.yul\":917:1036   */\n    tag_37:\n        /* \"#utility.yul\":1075:1076   */\n      0x00\n        /* \"#utility.yul\":1100:1153   */\n      tag_39\n        /* \"#utility.yul\":1145:1152   */\n      dup5\n        /* \"#utility.yul\":1136:1142   */\n      dup3\n        /* \"#utility.yul\":1125:1134   */\n      dup6\n        /* \"#utility.yul\":1121:1143   */\n      add\n        /* \"#utility.yul\":1100:1153   */\n      tag_21\n      jump\t// in\n    tag_39:\n        /* \"#utility.yul\":1090:1153   */\n      swap2\n      pop\n        /* \"#utility.yul\":1046:1163   */\n      pop\n        /* \"#utility.yul\":841:1170   */\n      swap3\n      swap2\n      pop\n      pop\n      jump\t// out\n        /* \"#utility.yul\":1176:1253   */\n    tag_22:\n        /* \"#utility.yul\":1213:1220   */\n      0x00\n        /* \"#utility.yul\":1242:1247   */\n      dup2\n        /* \"#utility.yul\":1231:1247   */\n      swap1\n      pop\n        /* \"#utility.yul\":1176:1253   */\n      swap2\n      swap1\n      pop\n      jump\t// out\n        /* \"#utility.yul\":1259:1377   */\n    tag_23:\n        /* \"#utility.yul\":1346:1370   */\n      tag_42\n        /* \"#utility.yul\":1364:1369   */\n      dup2\n        /* \"#utility.yul\":1346:1370   */\n      tag_22\n      jump\t// in\n    tag_42:\n        /* \"#utility.yul\":1341:1344   */\n      dup3\n        /* \"#utility.yul\":1334:1371   */\n      mstore\n        /* \"#utility.yul\":1259:1377   */\n      pop\n      pop\n      jump\t// out\n        /* \"#utility.yul\":1383:1605   */\n    tag_10:\n        /* \"#utility.yul\":1476:1480   */\n      0x00\n        /* \"#utility.yul\":1514:1516   */\n      0x20\n        /* \"#utility.yul\":1503:1512   */\n      dup3\n        /* \"#utility.yul\":1499:1517   */\n      add\n        /* \"#utility.yul\":1491:1517   */\n      swap1\n      pop\n        /* \"#utility.yul\":1527:1598   */\n      tag_44\n        /* \"#utility.yul\":1595:1596   */\n      0x00\n        /* \"#utility.yul\":1584:1593   */\n      dup4\n        /* \"#utility.yul\":1580:1597   */\n      add\n        /* \"#utility.yul\":1571:1577   */\n      dup5\n        /* \"#utility.yul\":1527:1598   */\n      tag_23\n      jump\t// in\n    tag_44:\n        /* \"#utility.yul\":1383:1605   */\n      swap3\n      swap2\n      pop\n      pop\n      jump\t// out\n\n    auxdata: 0xa26469706673582212205992bbb344e97363418837d1858fbf92c7644e7b1d4ab8cd452481eeebc1c6bf64736f6c634300080f0033\n}\n",
				"bytecode": {
					"linkReferences": {},
					"object": "608060405234801561001057600080fd5b5060405161071b38038061071b83398181016040528101906100329190610416565b600883111580156100435750815183145b801561004f5750805183145b1561014a5760005b8381101561014857818181518110610072576100716104a1565b5b60200260200101516000808584815181106100905761008f6104a1565b5b602002602001015173ffffffffffffffffffffffffffffffffffffffff1673ffffffffffffffffffffffffffffffffffffffff168152602001908152602001600020819055506000600160008584815181106100ef576100ee6104a1565b5b602002602001015173ffffffffffffffffffffffffffffffffffffffff1673ffffffffffffffffffffffffffffffffffffffff168152602001908152602001600020819055508080610140906104ff565b915050610057565b505b505050610547565b6000604051905090565b600080fd5b600080fd5b6000819050919050565b61017981610166565b811461018457600080fd5b50565b60008151905061019681610170565b92915050565b600080fd5b6000601f19601f8301169050919050565b7f4e487b7100000000000000000000000000000000000000000000000000000000600052604160045260246000fd5b6101ea826101a1565b810181811067ffffffffffffffff82111715610209576102086101b2565b5b80604052505050565b600061021c610152565b905061022882826101e1565b919050565b600067ffffffffffffffff821115610248576102476101b2565b5b602082029050602081019050919050565b600080fd5b600073ffffffffffffffffffffffffffffffffffffffff82169050919050565b60006102898261025e565b9050919050565b6102998161027e565b81146102a457600080fd5b50565b6000815190506102b681610290565b92915050565b60006102cf6102ca8461022d565b610212565b905080838252602082019050602084028301858111156102f2576102f1610259565b5b835b8181101561031b578061030788826102a7565b8452602084019350506020810190506102f4565b5050509392505050565b600082601f83011261033a5761033961019c565b5b815161034a8482602086016102bc565b91505092915050565b600067ffffffffffffffff82111561036e5761036d6101b2565b5b602082029050602081019050919050565b600061039261038d84610353565b610212565b905080838252602082019050602084028301858111156103b5576103b4610259565b5b835b818110156103de57806103ca8882610187565b8452602084019350506020810190506103b7565b5050509392505050565b600082601f8301126103fd576103fc61019c565b5b815161040d84826020860161037f565b91505092915050565b60008060006060848603121561042f5761042e61015c565b5b600061043d86828701610187565b935050602084015167ffffffffffffffff81111561045e5761045d610161565b5b61046a86828701610325565b925050604084015167ffffffffffffffff81111561048b5761048a610161565b5b610497868287016103e8565b9150509250925092565b7f4e487b7100000000000000000000000000000000000000000000000000000000600052603260045260246000fd5b7f4e487b7100000000000000000000000000000000000000000000000000000000600052601160045260246000fd5b600061050a82610166565b91507fffffffffffffffffffffffffffffffffffffffffffffffffffffffffffffffff820361053c5761053b6104d0565b5b600182019050919050565b6101c5806105566000396000f3fe608060405234801561001057600080fd5b50600436106100365760003560e01c80636e3f4b3e1461003b578063bea7e9491461006b575b600080fd5b6100556004803603810190610050919061012e565b61009b565b6040516100629190610174565b60405180910390f35b6100856004803603810190610080919061012e565b6100b3565b6040516100929190610174565b60405180910390f35b60016020528060005260406000206000915090505481565b60006020528060005260406000206000915090505481565b600080fd5b600073ffffffffffffffffffffffffffffffffffffffff82169050919050565b60006100fb826100d0565b9050919050565b61010b816100f0565b811461011657600080fd5b50565b60008135905061012881610102565b92915050565b600060208284031215610144576101436100cb565b5b600061015284828501610119565b91505092915050565b6000819050919050565b61016e8161015b565b82525050565b60006020820190506101896000830184610165565b9291505056fea26469706673582212205992bbb344e97363418837d1858fbf92c7644e7b1d4ab8cd452481eeebc1c6bf64736f6c634300080f0033",
					"opcodes": "PUSH1 0x80 PUSH1 0x40 MSTORE CALLVALUE DUP1 ISZERO PUSH2 0x10 JUMPI PUSH1 0x0 DUP1 REVERT JUMPDEST POP PUSH1 0x40 MLOAD PUSH2 0x71B CODESIZE SUB DUP1 PUSH2 0x71B DUP4 CODECOPY DUP2 DUP2 ADD PUSH1 0x40 MSTORE DUP2 ADD SWAP1 PUSH2 0x32 SWAP2 SWAP1 PUSH2 0x416 JUMP JUMPDEST PUSH1 0x8 DUP4 GT ISZERO DUP1 ISZERO PUSH2 0x43 JUMPI POP DUP2 MLOAD DUP4 EQ JUMPDEST DUP1 ISZERO PUSH2 0x4F JUMPI POP DUP1 MLOAD DUP4 EQ JUMPDEST ISZERO PUSH2 0x14A JUMPI PUSH1 0x0 JUMPDEST DUP4 DUP2 LT ISZERO PUSH2 0x148 JUMPI DUP2 DUP2 DUP2 MLOAD DUP2 LT PUSH2 0x72 JUMPI PUSH2 0x71 PUSH2 0x4A1 JUMP JUMPDEST JUMPDEST PUSH1 0x20 MUL PUSH1 0x20 ADD ADD MLOAD PUSH1 0x0 DUP1 DUP6 DUP5 DUP2 MLOAD DUP2 LT PUSH2 0x90 JUMPI PUSH2 0x8F PUSH2 0x4A1 JUMP JUMPDEST JUMPDEST PUSH1 0x20 MUL PUSH1 0x20 ADD ADD MLOAD PUSH20 0xFFFFFFFFFFFFFFFFFFFFFFFFFFFFFFFFFFFFFFFF AND PUSH20 0xFFFFFFFFFFFFFFFFFFFFFFFFFFFFFFFFFFFFFFFF AND DUP2 MSTORE PUSH1 0x20 ADD SWAP1 DUP2 MSTORE PUSH1 0x20 ADD PUSH1 0x0 KECCAK256 DUP2 SWAP1 SSTORE POP PUSH1 0x0 PUSH1 0x1 PUSH1 0x0 DUP6 DUP5 DUP2 MLOAD DUP2 LT PUSH2 0xEF JUMPI PUSH2 0xEE PUSH2 0x4A1 JUMP JUMPDEST JUMPDEST PUSH1 0x20 MUL PUSH1 0x20 ADD ADD MLOAD PUSH20 0xFFFFFFFFFFFFFFFFFFFFFFFFFFFFFFFFFFFFFFFF AND PUSH20 0xFFFFFFFFFFFFFFFFFFFFFFFFFFFFFFFFFFFFFFFF AND DUP2 MSTORE PUSH1 0x20 ADD SWAP1 DUP2 MSTORE PUSH1 0x20 ADD PUSH1 0x0 KECCAK256 DUP2 SWAP1 SSTORE POP DUP1 DUP1 PUSH2 0x140 SWAP1 PUSH2 0x4FF JUMP JUMPDEST SWAP2 POP POP PUSH2 0x57 JUMP JUMPDEST POP JUMPDEST POP POP POP PUSH2 0x547 JUMP JUMPDEST PUSH1 0x0 PUSH1 0x40 MLOAD SWAP1 POP SWAP1 JUMP JUMPDEST PUSH1 0x0 DUP1 REVERT JUMPDEST PUSH1 0x0 DUP1 REVERT JUMPDEST PUSH1 0x0 DUP2 SWAP1 POP SWAP2 SWAP1 POP JUMP JUMPDEST PUSH2 0x179 DUP2 PUSH2 0x166 JUMP JUMPDEST DUP2 EQ PUSH2 0x184 JUMPI PUSH1 0x0 DUP1 REVERT JUMPDEST POP JUMP JUMPDEST PUSH1 0x0 DUP2 MLOAD SWAP1 POP PUSH2 0x196 DUP2 PUSH2 0x170 JUMP JUMPDEST SWAP3 SWAP2 POP POP JUMP JUMPDEST PUSH1 0x0 DUP1 REVERT JUMPDEST PUSH1 0x0 PUSH1 0x1F NOT PUSH1 0x1F DUP4 ADD AND SWAP1 POP SWAP2 SWAP1 POP JUMP JUMPDEST PUSH32 0x4E487B7100000000000000000000000000000000000000000000000000000000 PUSH1 0x0 MSTORE PUSH1 0x41 PUSH1 0x4 MSTORE PUSH1 0x24 PUSH1 0x0 REVERT JUMPDEST PUSH2 0x1EA DUP3 PUSH2 0x1A1 JUMP JUMPDEST DUP2 ADD DUP2 DUP2 LT PUSH8 0xFFFFFFFFFFFFFFFF DUP3 GT OR ISZERO PUSH2 0x209 JUMPI PUSH2 0x208 PUSH2 0x1B2 JUMP JUMPDEST JUMPDEST DUP1 PUSH1 0x40 MSTORE POP POP POP JUMP JUMPDEST PUSH1 0x0 PUSH2 0x21C PUSH2 0x152 JUMP JUMPDEST SWAP1 POP PUSH2 0x228 DUP3 DUP3 PUSH2 0x1E1 JUMP JUMPDEST SWAP2 SWAP1 POP JUMP JUMPDEST PUSH1 0x0 PUSH8 0xFFFFFFFFFFFFFFFF DUP3 GT ISZERO PUSH2 0x248 JUMPI PUSH2 0x247 PUSH2 0x1B2 JUMP JUMPDEST JUMPDEST PUSH1 0x20 DUP3 MUL SWAP1 POP PUSH1 0x20 DUP2 ADD SWAP1 POP SWAP2 SWAP1 POP JUMP JUMPDEST PUSH1 0x0 DUP1 REVERT JUMPDEST PUSH1 0x0 PUSH20 0xFFFFFFFFFFFFFFFFFFFFFFFFFFFFFFFFFFFFFFFF DUP3 AND SWAP1 POP SWAP2 SWAP1 POP JUMP JUMPDEST PUSH1 0x0 PUSH2 0x289 DUP3 PUSH2 0x25E JUMP JUMPDEST SWAP1 POP SWAP2 SWAP1 POP JUMP JUMPDEST PUSH2 0x299 DUP2 PUSH2 0x27E JUMP JUMPDEST DUP2 EQ PUSH2 0x2A4 JUMPI PUSH1 0x0 DUP1 REVERT JUMPDEST POP JUMP JUMPDEST PUSH1 0x0 DUP2 MLOAD SWAP1 POP PUSH2 0x2B6 DUP2 PUSH2 0x290 JUMP JUMPDEST SWAP3 SWAP2 POP POP JUMP JUMPDEST PUSH1 0x0 PUSH2 0x2CF PUSH2 0x2CA DUP5 PUSH2 0x22D JUMP JUMPDEST PUSH2 0x212 JUMP JUMPDEST SWAP1 POP DUP1 DUP4 DUP3 MSTORE PUSH1 0x20 DUP3 ADD SWAP1 POP PUSH1 0x20 DUP5 MUL DUP4 ADD DUP6 DUP2 GT ISZERO PUSH2 0x2F2 JUMPI PUSH2 0x2F1 PUSH2 0x259 JUMP JUMPDEST JUMPDEST DUP4 JUMPDEST DUP2 DUP2 LT ISZERO PUSH2 0x31B JUMPI DUP1 PUSH2 0x307 DUP9 DUP3 PUSH2 0x2A7 JUMP JUMPDEST DUP5 MSTORE PUSH1 0x20 DUP5 ADD SWAP4 POP POP PUSH1 0x20 DUP2 ADD SWAP1 POP PUSH2 0x2F4 JUMP JUMPDEST POP POP POP SWAP4 SWAP3 POP POP POP JUMP JUMPDEST PUSH1 0x0 DUP3 PUSH1 0x1F DUP4 ADD SLT PUSH2 0x33A JUMPI PUSH2 0x339 PUSH2 0x19C JUMP JUMPDEST JUMPDEST DUP2 MLOAD PUSH2 0x34A DUP5 DUP3 PUSH1 0x20 DUP7 ADD PUSH2 0x2BC JUMP JUMPDEST SWAP2 POP POP SWAP3 SWAP2 POP POP JUMP JUMPDEST PUSH1 0x0 PUSH8 0xFFFFFFFFFFFFFFFF DUP3 GT ISZERO PUSH2 0x36E JUMPI PUSH2 0x36D PUSH2 0x1B2 JUMP JUMPDEST JUMPDEST PUSH1 0x20 DUP3 MUL SWAP1 POP PUSH1 0x20 DUP2 ADD SWAP1 POP SWAP2 SWAP1 POP JUMP JUMPDEST PUSH1 0x0 PUSH2 0x392 PUSH2 0x38D DUP5 PUSH2 0x353 JUMP JUMPDEST PUSH2 0x212 JUMP JUMPDEST SWAP1 POP DUP1 DUP4 DUP3 MSTORE PUSH1 0x20 DUP3 ADD SWAP1 POP PUSH1 0x20 DUP5 MUL DUP4 ADD DUP6 DUP2 GT ISZERO PUSH2 0x3B5 JUMPI PUSH2 0x3B4 PUSH2 0x259 JUMP JUMPDEST JUMPDEST DUP4 JUMPDEST DUP2 DUP2 LT ISZERO PUSH2 0x3DE JUMPI DUP1 PUSH2 0x3CA DUP9 DUP3 PUSH2 0x187 JUMP JUMPDEST DUP5 MSTORE PUSH1 0x20 DUP5 ADD SWAP4 POP POP PUSH1 0x20 DUP2 ADD SWAP1 POP PUSH2 0x3B7 JUMP JUMPDEST POP POP POP SWAP4 SWAP3 POP POP POP JUMP JUMPDEST PUSH1 0x0 DUP3 PUSH1 0x1F DUP4 ADD SLT PUSH2 0x3FD JUMPI PUSH2 0x3FC PUSH2 0x19C JUMP JUMPDEST JUMPDEST DUP2 MLOAD PUSH2 0x40D DUP5 DUP3 PUSH1 0x20 DUP7 ADD PUSH2 0x37F JUMP JUMPDEST SWAP2 POP POP SWAP3 SWAP2 POP POP JUMP JUMPDEST PUSH1 0x0 DUP1 PUSH1 0x0 PUSH1 0x60 DUP5 DUP7 SUB SLT ISZERO PUSH2 0x42F JUMPI PUSH2 0x42E PUSH2 0x15C JUMP JUMPDEST JUMPDEST PUSH1 0x0 PUSH2 0x43D DUP7 DUP3 DUP8 ADD PUSH2 0x187 JUMP JUMPDEST SWAP4 POP POP PUSH1 0x20 DUP5 ADD MLOAD PUSH8 0xFFFFFFFFFFFFFFFF DUP2 GT ISZERO PUSH2 0x45E JUMPI PUSH2 0x45D PUSH2 0x161 JUMP JUMPDEST JUMPDEST PUSH2 0x46A DUP7 DUP3 DUP8 ADD PUSH2 0x325 JUMP JUMPDEST SWAP3 POP POP PUSH1 0x40 DUP5 ADD MLOAD PUSH8 0xFFFFFFFFFFFFFFFF DUP2 GT ISZERO PUSH2 0x48B JUMPI PUSH2 0x48A PUSH2 0x161 JUMP JUMPDEST JUMPDEST PUSH2 0x497 DUP7 DUP3 DUP8 ADD PUSH2 0x3E8 JUMP JUMPDEST SWAP2 POP POP SWAP3 POP SWAP3 POP SWAP3 JUMP JUMPDEST PUSH32 0x4E487B7100000000000000000000000000000000000000000000000000000000 PUSH1 0x0 MSTORE PUSH1 0x32 PUSH1 0x4 MSTORE PUSH1 0x24 PUSH1 0x0 REVERT JUMPDEST PUSH32 0x4E487B7100000000000000000000000000000000000000000000000000000000 PUSH1 0x0 MSTORE PUSH1 0x11 PUSH1 0x4 MSTORE PUSH1 0x24 PUSH1 0x0 REVERT JUMPDEST PUSH1 0x0 PUSH2 0x50A DUP3 PUSH2 0x166 JUMP JUMPDEST SWAP2 POP PUSH32 0xFFFFFFFFFFFFFFFFFFFFFFFFFFFFFFFFFFFFFFFFFFFFFFFFFFFFFFFFFFFFFFFF DUP3 SUB PUSH2 0x53C JUMPI PUSH2 0x53B PUSH2 0x4D0 JUMP JUMPDEST JUMPDEST PUSH1 0x1 DUP3 ADD SWAP1 POP SWAP2 SWAP1 POP JUMP JUMPDEST PUSH2 0x1C5 DUP1 PUSH2 0x556 PUSH1 0x0 CODECOPY PUSH1 0x0 RETURN INVALID PUSH1 0x80 PUSH1 0x40 MSTORE CALLVALUE DUP1 ISZERO PUSH2 0x10 JUMPI PUSH1 0x0 DUP1 REVERT JUMPDEST POP PUSH1 0x4 CALLDATASIZE LT PUSH2 0x36 JUMPI PUSH1 0x0 CALLDATALOAD PUSH1 0xE0 SHR DUP1 PUSH4 0x6E3F4B3E EQ PUSH2 0x3B JUMPI DUP1 PUSH4 0xBEA7E949 EQ PUSH2 0x6B JUMPI JUMPDEST PUSH1 0x0 DUP1 REVERT JUMPDEST PUSH2 0x55 PUSH1 0x4 DUP1 CALLDATASIZE SUB DUP2 ADD SWAP1 PUSH2 0x50 SWAP2 SWAP1 PUSH2 0x12E JUMP JUMPDEST PUSH2 0x9B JUMP JUMPDEST PUSH1 0x40 MLOAD PUSH2 0x62 SWAP2 SWAP1 PUSH2 0x174 JUMP JUMPDEST PUSH1 0x40 MLOAD DUP1 SWAP2 SUB SWAP1 RETURN JUMPDEST PUSH2 0x85 PUSH1 0x4 DUP1 CALLDATASIZE SUB DUP2 ADD SWAP1 PUSH2 0x80 SWAP2 SWAP1 PUSH2 0x12E JUMP JUMPDEST PUSH2 0xB3 JUMP JUMPDEST PUSH1 0x40 MLOAD PUSH2 0x92 SWAP2 SWAP1 PUSH2 0x174 JUMP JUMPDEST PUSH1 0x40 MLOAD DUP1 SWAP2 SUB SWAP1 RETURN JUMPDEST PUSH1 0x1 PUSH1 0x20 MSTORE DUP1 PUSH1 0x0 MSTORE PUSH1 0x40 PUSH1 0x0 KECCAK256 PUSH1 0x0 SWAP2 POP SWAP1 POP SLOAD DUP2 JUMP JUMPDEST PUSH1 0x0 PUSH1 0x20 MSTORE DUP1 PUSH1 0x0 MSTORE PUSH1 0x40 PUSH1 0x0 KECCAK256 PUSH1 0x0 SWAP2 POP SWAP1 POP SLOAD DUP2 JUMP JUMPDEST PUSH1 0x0 DUP1 REVERT JUMPDEST PUSH1 0x0 PUSH20 0xFFFFFFFFFFFFFFFFFFFFFFFFFFFFFFFFFFFFFFFF DUP3 AND SWAP1 POP SWAP2 SWAP1 POP JUMP JUMPDEST PUSH1 0x0 PUSH2 0xFB DUP3 PUSH2 0xD0 JUMP JUMPDEST SWAP1 POP SWAP2 SWAP1 POP JUMP JUMPDEST PUSH2 0x10B DUP2 PUSH2 0xF0 JUMP JUMPDEST DUP2 EQ PUSH2 0x116 JUMPI PUSH1 0x0 DUP1 REVERT JUMPDEST POP JUMP JUMPDEST PUSH1 0x0 DUP2 CALLDATALOAD SWAP1 POP PUSH2 0x128 DUP2 PUSH2 0x102 JUMP JUMPDEST SWAP3 SWAP2 POP POP JUMP JUMPDEST PUSH1 0x0 PUSH1 0x20 DUP3 DUP5 SUB SLT ISZERO PUSH2 0x144 JUMPI PUSH2 0x143 PUSH2 0xCB JUMP JUMPDEST JUMPDEST PUSH1 0x0 PUSH2 0x152 DUP5 DUP3 DUP6 ADD PUSH2 0x119 JUMP JUMPDEST SWAP2 POP POP SWAP3 SWAP2 POP POP JUMP JUMPDEST PUSH1 0x0 DUP2 SWAP1 POP SWAP2 SWAP1 POP JUMP JUMPDEST PUSH2 0x16E DUP2 PUSH2 0x15B JUMP JUMPDEST DUP3 MSTORE POP POP JUMP JUMPDEST PUSH1 0x0 PUSH1 0x20 DUP3 ADD SWAP1 POP PUSH2 0x189 PUSH1 0x0 DUP4 ADD DUP5 PUSH2 0x165 JUMP JUMPDEST SWAP3 SWAP2 POP POP JUMP INVALID LOG2 PUSH5 0x6970667358 0x22 SLT KECCAK256 MSIZE SWAP3 0xBB 0xB3 DIFFICULTY 0xE9 PUSH20 0x63418837D1858FBF92C7644E7B1D4AB8CD452481 0xEE 0xEB 0xC1 0xC6 0xBF PUSH5 0x736F6C6343 STOP ADDMOD 0xF STOP CALLER "
				},
				"gasEstimates": {
					"creation": {
						"codeDepositCost": "90600",
						"executionCost": "infinite",
						"totalCost": "infinite"
					},
					"external": {
						"tokenAmmounts(address)": "2792",
						"tokenRations(address)": "2814"
					}
				},
				"methodIdentifiers": {
					"tokenAmmounts(address)": "6e3f4b3e",
					"tokenRations(address)": "bea7e949"
				}
			},
			"storageLayout": {
				"storage": [
					{
						"astId": 5,
						"contract": "contracts/RebalancingVault.sol:Vault",
						"label": "tokenRations",
						"offset": 0,
						"slot": "0",
						"type": "t_mapping(t_address,t_uint256)"
					},
					{
						"astId": 9,
						"contract": "contracts/RebalancingVault.sol:Vault",
						"label": "tokenAmmounts",
						"offset": 0,
						"slot": "1",
						"type": "t_mapping(t_address,t_uint256)"
					}
				],
				"types": {
					"t_address": {
						"encoding": "inplace",
						"label": "address",
						"numberOfBytes": "20"
					},
					"t_mapping(t_address,t_uint256)": {
						"encoding": "mapping",
						"key": "t_address",
						"label": "mapping(address => uint256)",
						"numberOfBytes": "32",
						"value": "t_uint256"
					},
					"t_uint256": {
						"encoding": "inplace",
						"label": "uint256",
						"numberOfBytes": "32"
					}
				}
			},
			"userdoc": {
				"kind": "user",
				"methods": {},
				"version": 1
			}
		}
	}
}